:020000040800F2
:1000000000800120B53E0008053F0008053F0008BC
:10001000053F0008053F0008053F000800000000FC
:10002000000000000000000000000000093D000882
:10003000053F0008000000000B3D00080D3D0008D2
:10004000053F0008053F0008053F0008053F000880
:10005000053F0008053F0008053F0008053F000870
:10006000053F0008053F0008053F0008053F000860
:10007000053F00081D3D0008293D0008053F000818
:10008000053F0008053F0008053F0008053F000840
:10009000053F0008053F0008053F0008053F000830
:1000A000053F0008053F0008053F0008053F000820
:1000B000053F0008053F0008053F0008053F000810
:1000C000053F0008053F0008053F0008053F000800
:1000D000053F0008053F0008353D0008053F0008C2
:1000E000413D0008053F0008053F0008053F0008A6
:1000F000053F0008053F0008053F0008053F0008D0
:10010000053F0008053F0008053F0008053F0008BF
:10011000053F0008053F0008053F0008053F0008AF
:10012000053F0008053F0008053F0008053F00089F
:10013000493D0008053F0008053F0008053F00084D
:10014000053F0008053F0008053F0008053F00087F
:10015000053F0008053F0008053F0008053F00086F
:10016000053F0008053F0008053F0008053F00085F
:10017000053F0008053F0008053F0008000000009B
:08018000053F0008053F0008DF
:1001880010B5054C237833B9044B13B10448AFF3C9
:1001980000800123237010BDD4010020000000005E
:1001A800786B000808B5034B1BB103490348AFF34C
:1001B800008008BD00000000D8010020786B00080E
:1001C8004B1C012B98BF70472DE9F003911C9B082D
:1001D800B1F80480B1F802900A8831F802CC804462
:1001E800814402448444D9F80070D8F80060156846
:1001F800DCF80040C9F80060C8F80070CCF800507E
:100208001460D9F80470D8F804605568DCF8044024
:10021800C9F80460C8F80470CCF804505460083178
:10022800013BD5D1BDE8F00370474B1C012B98BFAB
:1002380070472DE9F003911C9B08B1F80480B1F8D0
:1002480002900A8831F802CC00EB580800EB5909F3
:1002580000EB520200EB5C0CD9F80070D8F8006093
:100268001568DCF80040C9F80060C8F80070CCF8E0
:10027800005014600831013BDFD1BDE8F00370473E
:10028800034613F8012B002AFBD1181A01387047CE
:1002980081F0004102E000BF83F0004330B54FEA2F
:1002A80041044FEA430594EA050F08BF90EA020F9C
:1002B8001FBF54EA000C55EA020C7FEA645C7FEA2F
:1002C800655C00F0E2804FEA5454D4EB5555B8BF52
:1002D8006D420CDD2C4480EA020281EA030382EAC3
:1002E800000083EA010180EA020281EA0303362D55
:1002F80088BF30BD11F0004F4FEA01314FF4801C28
:100308004CEA113102D0404261EB410113F0004F39
:100318004FEA03334CEA133302D0524263EB4303F0
:1003280094EA050F00F0A780A4F10104D5F1200E8E
:100338000DDB02FA0EFC22FA05F2801841F10001E9
:1003480003FA0EF2801843FA05F359410EE0A5F1BD
:1003580020050EF1200E012A03FA0EFC28BF4CF0EE
:10036800020C43FA05F3C01851EBE37101F00045A4
:1003780007D54FF0000EDCF1000C7EEB00006EEBB1
:100388000101B1F5801F1BD3B1F5001F0CD349083B
:100398005FEA30004FEA3C0C04F101044FEA445292
:1003A80012F5800F80F09A80BCF1004F08BF5FEA19
:1003B800500C50F1000041EB045141EA050130BDF9
:1003C8005FEA4C0C404141EB010111F4801FA4F19C
:1003D8000104E9D191F0000F04BF01460020B1FAF1
:1003E80081F308BF2033A3F10B03B3F120020CDA29
:1003F8000C3208DD02F1140CC2F10C0201FA0CF007
:1004080021FA02F10CE002F11402D8BFC2F1200C6B
:1004180001FA02F120FA0CFCDCBF41EA0C01904021
:10042800E41AA2BF01EB0451294330BD6FEA04046A
:100438001F3C1CDA0C340EDC04F11404C4F1200255
:1004480020FA04F001FA02F340EA030021FA04F367
:1004580045EA030130BDC4F10C04C4F1200220FABE
:1004680002F001FA04F340EA0300294630BD21FAFC
:1004780004F0294630BD94F0000F83F4801306BFC2
:1004880081F480110134013D4EE77FEA645C18BFB6
:100498007FEA655C29D094EA050F08BF90EA020F4D
:1004A80005D054EA000C04BF1946104630BD91EA45
:1004B800030F1EBF0021002030BD5FEA545C05D148
:1004C8004000494128BF41F0004130BD14F5800487
:1004D8003CBF01F5801130BD01F0004545F0FE41FB
:1004E80041F470014FF0000030BD7FEA645C1ABF30
:1004F800194610467FEA655C1CBF0B46024650EA67
:10050800013406BF52EA033591EA030F41F4002192
:1005180030BD00BF90F0000F04BF0021704730B518
:100528004FF4806404F132044FF000054FF00001ED
:1005380050E700BF90F0000F04BF0021704730B5AE
:100548004FF4806404F1320410F0004548BF404283
:100558004FF000013EE700BF42004FEAE2014FEAD8
:1005680031014FEA02701FBF12F07F4393F07F4FB3
:1005780081F06051704792F0000F14BF93F07F4FE5
:10058800704730B54FF4607401F0004521F0004128
:1005980020E700BF50EA010208BF704730B54FF0AE
:1005A80000050AE050EA010208BF704730B511F0B3
:1005B800004502D5404261EB41014FF4806404F1EB
:1005C80032045FEA915C3FF4DCAE4FF003025FEA6D
:1005D800DC0C18BF03325FEADC0C18BF033202EBF5
:1005E800DC02C2F1200300FA03FC20FA02F001FA4F
:1005F80003FE40EA0E0021FA02F11444C1E600BFEE
:1006080070B54FF0FF0C4CF4E06C1CEA11541DBFA0
:100618001CEA135594EA0C0F95EA0C0F00F0DEF86B
:100628002C4481EA030621EA4C5123EA4C5350EA50
:10063800013518BF52EA033541F4801143F48013A1
:1006480038D0A0FB02CE4FF00005E1FB02E506F032
:100658000042E0FB03E54FF00006E1FB03569CF087
:10066800000F18BF4EF0010EA4F1FF04B6F5007F8D
:1006780064F5407404D25FEA4E0E6D4146EB0606FF
:1006880042EAC62141EA55514FEAC52040EA5E5088
:100698004FEACE2EB4F1FD0C88BFBCF5E06F1ED832
:1006A800BEF1004F08BF5FEA500E50F1000041EB69
:1006B800045170BD06F0004646EA010140EA020016
:1006C80081EA0301B4EB5C04C2BFD4EB0C0541EA38
:1006D800045170BD41F480114FF0000E013C00F34D
:1006E800AB8014F1360FDEBF002001F0004170BD71
:1006F800C4F10004203C35DA0C341BDC04F114048A
:10070800C4F1200500FA05F320FA04F001FA05F215
:1007180040EA020001F0004221F0004110EBD370E2
:1007280021FA04F642EB06015EEA430E08BF20EA0E
:10073800D37070BDC4F10C04C4F1200500FA04F3B1
:1007480020FA05F001FA04F240EA020001F0004143
:1007580010EBD37041F100015EEA430E08BF20EAB6
:10076800D37070BDC4F1200500FA05F24EEA020EFE
:1007780020FA04F301FA05F243EA020321FA04F02D
:1007880001F0004121FA04F220EA020000EBD370E4
:100798005EEA430E08BF20EAD37070BD94F0000FE4
:1007A8000FD101F00046400041EB010111F4801F18
:1007B80008BF013CF7D041EA060195F0000F18BFC9
:1007C800704703F00046520043EB030313F4801F05
:1007D80008BF013DF7D043EA0603704794EA0C0FBF
:1007E8000CEA135518BF95EA0C0F0CD050EA4106D5
:1007F80018BF52EA4306D1D181EA030101F0004152
:100808004FF0000070BD50EA410606BF1046194679
:1008180052EA430619D094EA0C0F02D150EA013685
:1008280013D195EA0C0F05D152EA03361CBF1046C6
:1008380019460AD181EA030101F0004141F0FE4165
:1008480041F470014FF0000070BD41F0FE4141F4E9
:10085800780170BD70B54FF0FF0C4CF4E06C1CEAE9
:1008680011541DBF1CEA135594EA0C0F95EA0C0F9E
:1008780000F0A7F8A4EB050481EA030E52EA033559
:100888004FEA013100F088804FEA03334FF080557A
:1008980045EA131343EA12634FEA022245EA1115A7
:1008A80045EA10654FEA00260EF000419D4208BF58
:1008B800964244F1FD0404F5407402D25B084FEA05
:1008C8003202B61A65EB03055B084FEA32024FF4B1
:1008D80080104FF4002CB6EB020E75EB030E22BF0E
:1008E800B61A754640EA0C005B084FEA3202B6EBCE
:1008F800020E75EB030E22BFB61A754640EA5C007D
:100908005B084FEA3202B6EB020E75EB030E22BF0C
:10091800B61A754640EA9C005B084FEA3202B6EB0D
:10092800020E75EB030E22BFB61A754640EADC00CC
:1009380055EA060E18D04FEA051545EA16754FEA2E
:1009480006164FEAC30343EA52734FEAC2025FEA4C
:100958001C1CC0D111F4801F0BD141EA00014FF0DB
:1009680000004FF0004CB6E711F4801F04BF0143AC
:100978000020B4F1FD0C88BFBCF5E06F3FF6AFAEC8
:10098800B5EB030C04BFB6EB020C5FEA500C50F158
:10099800000041EB045170BD0EF0004E4EEA1131DB
:1009A80014EB5C04C2BFD4EB0C0541EA045170BDE2
:1009B80041F480114FF0000E013C90E645EA060E26
:1009C8008DE60CEA135594EA0C0F08BF95EA0C0F54
:1009D8003FF43BAF94EA0C0F0AD150EA01347FF49C
:1009E80034AF95EA0C0F7FF425AF104619462CE773
:1009F80095EA0C0F06D152EA03353FF4FDAE1046D6
:100A0800194622E750EA410618BF52EA43067FF426
:100A1800C5AE50EA41047FF40DAF52EA43057FF4B6
:100A2800EBAE12E74FF0FF3C06E000BF4FF0010CC1
:100A380002E000BF4FF0010C4DF804CD4FEA410C25
:100A48007FEA6C5C4FEA430C18BF7FEA6C5C1BD0F2
:100A580001B050EA410C0CBF52EA430C91EA030F73
:100A680002BF90EA020F0020704710F1000F91EAD0
:100A7800030F58BF994208BF90422CBFD8176FEA9E
:100A8800E37040F0010070474FEA410C7FEA6C5C6C
:100A980002D150EA013C07D14FEA430C7FEA6C5C73
:100AA800D6D152EA033CD3D05DF8040B704700BF9F
:100AB8008446104662468C461946634600E000BFED
:100AC80001B5FFF7B7FF002848BF10F1000F01BDBF
:100AD8004DF808EDFFF7F4FF0CBF012000205DF88A
:100AE80008FB00BF4DF808EDFFF7EAFF34BF01200F
:100AF80000205DF808FB00BF4DF808EDFFF7E0FFA8
:100B080094BF012000205DF808FB00BF4DF808EDF8
:100B1800FFF7CEFF94BF012000205DF808FB00BF5F
:100B28004DF808EDFFF7C4FF34BF012000205DF841
:100B380008FB00BF4FEA410C7FEA6C5C02D150EA27
:100B4800013C0AD14FEA430C7FEA6C5C02D152EABD
:100B5800033C02D14FF0000070474FF0010070478E
:100B68004FEA410212F5001215D211D56FF47873CD
:100B7800B3EB625212D94FEAC12343F0004343EA70
:100B8800505311F0004F23FA02F018BF404270474B
:100B98004FF00000704750EA013005D111F00040D5
:100BA80008BF6FF0004070474FF00000704700BF6B
:100BB8004FEA4102B2F1E04324BFB3F5001CDCF177
:100BC800FE5C0DD901F0004C4FEAC0024CEA5070AF
:100BD800B2F1004F40EB830008BF20F001007047DE
:100BE80011F0804F21D113F13872BCBF01F00040E1
:100BF800704741F480114FEA5252C2F11802C2F113
:100C0800200C10FA0CF320FA02F018BF40F0010093
:100C18004FEAC1234FEAD32303FA0CFC40EA0C0045
:100C280023FA02F34FEA4303CCE77FEA625307D182
:100C380050EA01331EBF4FF0FE4040F440007047B9
:100C480001F0004040F0FE4040F40000704700BF53
:100C580053B94AB9002908BF00281CBF4FF0FF311B
:100C68004FF0FF3000F07AB9ADF1080C6DE904CE11
:100C780000F006F8DDF804E0DDE9022304B070476F
:100C88002DE9F0478C460D460446089E002B51D1AD
:100C98008A4217466DD9B2FA82FEBEF1000F0BD018
:100CA800CEF1200C01FA0EF520FA0CFC02FA0EF730
:100CB8004CEA050C00FA0EF44FEA174A250CBCFB67
:100CC800FAF81FFA87F90AFB18CC45EA0C4508FB25
:100CD80009F3AB420AD9ED1908F1FF3280F02381FC
:100CE800AB4240F22081A8F102083D44ED1AA4B2BB
:100CF800B5FBFAF00AFB105544EA054400FB09F974
:100D0800A14509D9E41900F1FF3380F00A81A14512
:100D180040F2078102383C44A4EB090440EA084049
:100D28000021002E61D024FA0EF400233460736091
:100D3800BDE8F0878B4207D9002E54D0002186E801
:100D480021000846BDE8F087B3FA83F1002940F096
:100D58008E80AB4202D3824200F2FA80841A65EB9D
:100D680003050120AC46002E3FD086E81010BDE8F0
:100D7800F08712B90127B7FBF2F7B7FA87FEBEF181
:100D8800000F34D1EB1B3A0C1FFA87FC0121B3FB8F
:100D9800F2F8250C02FB183345EA03450CFB08F36F
:100DA800AB4207D9ED1908F1FF3002D2AB4200F28D
:100DB800D1808046ED1AA3B2B5FBF2F002FB1055C4
:100DC80043EA05440CFB00FCA44507D9E41900F1EB
:100DD800FF3302D2A44500F2B8801846A4EB0C04F5
:100DE80040EA08409DE731463046BDE8F087CEF13D
:100DF800200405FA0EF307FA0EF720FA04F83A0C65
:100E080025FA04F448EA0308B4FBF2F14FEA18455E
:100E180002FB11441FFA87FC45EA044501FB0CF369
:100E2800AB4200FA0EF409D9ED1901F1FF3080F058
:100E38008A80AB4240F2878002393D44EB1A1FFAA0
:100E480088F5B3FBF2F002FB103345EA034500FBDB
:100E58000CF3AB4207D9ED1900F1FF386FD2AB4262
:100E68006DD902383D44EB1A40EA01418FE7C1F1E0
:100E7800200722FA07F88B4005FA01F448EA030331
:100E880020FA07FE4FEA134CFD404EEA040EB5FB6C
:100E9800FCF94FEA1E440CFB19551FFA83F844EA83
:100EA800054509FB08F4AC4202FA01F200FA01FA1E
:100EB80008D9ED1809F1FF3043D2AC4241D9A9F164
:100EC80002091D442D1B1FFA8EFEB5FBFCF00CFB1E
:100ED80010554EEA054400FB08F8A04507D9E41868
:100EE80000F1FF3529D2A04527D902381C4440EA31
:100EF8000940A4EB0804A0FB02894C45C6464D46B0
:100F080015D312D056B1BAEB0E0364EB050404FAFC
:100F180007F7CB401F43CC40376074600021BDE821
:100F2800F0871846F8E69046E0E6C245EAD2B8EB04
:100F3800020E69EB03050138E4E72846D7E7404687
:100F480091E78146BEE7014678E702383C4445E729
:100F5800084608E7A8F102083D442BE7704700BFA0
:100F680038B50A4B054618684FF47A73B0FBF3F0AE
:100F780000F092F8044638B9024629464FF0FF308F
:100F880000F04AF8204638BD012038BD0000002096
:100F9800094A136843F4807310B50320136000F006
:100FA80029F80020FFF7DCFF044618B902F062FEBA
:100FB800204610BD0124FBE700200240024A1368C6
:100FC80001331360704700BF30220120014B1868BD
:100FD800704700BF3022012038B50446FFF7F6FFFE
:100FE800631C054618BF0134FFF7F0FF401B84421D
:100FF800FAD838BD074AD36823F4E0631B041B0CF6
:1010080043F0BF63000243F4003300F4E06003439D
:10101800D360704700ED00E0174B30B5DC68C4F3CF
:101028000224C4F10703251D042B28BF0423062D21
:101038004FF0010505FA03F303F1FF338CBF033CBE
:1010480000241940A14005FA04F4013C224000287C
:1010580042EA01024FEA0212AFBF00F1604000F01D
:101068000F00064BD2B2A5BF00F56140D2B21A54A8
:1010780080F8002330BD00BF00ED00E014ED00E073
:101088004209012300F01F0003FA00F0014B43F866
:101098002200704700E100E00138B0F1807F0AD2F9
:1010A800064B074A5860F02182F8231000200722D7
:1010B80098601A6070470120704700BF10E000E098
:1010C80000ED00E0044B1A6804280CBF42F004024B
:1010D80022F004021A60704710E000E0704708B57B
:1010E800FFF7FCFF08BD10B5044668B1037903F0AB
:1010F800FF0213B9427101F0DFFF022323710020C0
:1011080001232061237110BD012010BD4379012BFB
:1011180030B54FF0020317D00371036801221C6831
:10112800427101F01005AA4022431A601A6869B991
:1011380002F03C02042A03D15A6842F001025A60C4
:101148000123037100234371184630BD02F4701265
:10115800B2F5802FF4D15A6842F00202EFE700009E
:10116800F8B50546407901280E464FF002001146B1
:10117800069A54D001246C7128712C68E6B9A868C5
:10118800274FC762274F0763274F47632768042AFB
:1011980047F48057276009D0082A0AD0002A3CD192
:1011A80004F10802276847F400571AE004F10C021A
:1011B800F8E704F11002F5E7E8681C4FC7621C4F16
:1011C80007631C4F47632768042A47F08057276046
:1011D80016D0082A17D0F2B904F11402276847F08C
:1011E8000057276000F0F8FA00236B7170B92B687C
:1011F80006F010011A6801268E4016431E60F8BDDD
:1012080004F11802EAE704F11C02E7E72B6943F04E
:1012180004032B61F8BD0022E0E73246C2E7F8BDBF
:1012280043120008551200086112000891130008C3
:10123800A1130008AB130008704710B5846A204654
:10124800FFF7FAFF0123237110BD704708B5806AC4
:10125800FFF7FBFF08BD704710B5846A236943F0A8
:10126800040323612046FFF7F6FF0123237110BD15
:10127800F8B54379012B04460D4616464FF0020097
:1012880063D00B6820710122042B627125D1002ED6
:101298006CD1FFF79BFE074623685B6B1B0455D494
:1012A8000120FFF799FE2368AA691A64216806F0ED
:1012B80010008A6C40F2FF33834022EA0302EB6994
:1012C80083401A438A64CB6CFF22824023EA0203DC
:1012D8002A6A02FA00F00343CB642B69012B06F05B
:1012E8001002236808D1996B1F20904021EA000062
:1012F8006969914001439963D96BAE6807209040B2
:1013080021EA000029683143EE68314391400143E6
:10131800D96319684FF48040904021EA00011960B0
:10132800196840F6FC70904021EA00006968914015
:10133800014319601968C02000FA02F221EA02028A
:101348001A600020012323716071F8BDFFF73EFE8B
:10135800C01B0128A0D92369032043F00803236197
:101368002071F8BDFFF732FE0128F4D823685B6BC3
:10137800002BF7DB0120FFF72FFE2368AA695A64C8
:1013880094E770477047704710B5846A2046FFF7A6
:10139800F8FF0123237110BD08B5806AFFF7F2FF3B
:1013A80008BD10B5846A236943F00403236120460D
:1013B800FFF7E9FF0123237110BD426B036890F822
:1013C8004C103AB91A6842F400321A6001291CD14B
:1013D80002231BE01A6822F001021A601A6842F41C
:1013E80000221A601A68032942F001021A60EDD13E
:1013F800826B1AB91A6842F002021A6090F84030FB
:10140800012B0CBF436C01238364042380F84C3008
:1014180070470000144B984217D02033984216D0DA
:101428002033984215D02033984214D02033984264
:1014380013D02033984212D02033984211D0203351
:1014480098420CBF072000207047002070470120F9
:10145800704702207047032070470420704705201A
:1014680070470620704700BF0060014038B5044649
:10147800002867D00068344DFFF7CCFF55F82030BE
:10148800002B5FD1204601F035FF304B1A6801323E
:101498001A601B68012B19D12D4B1A6822F0804263
:1014A8001A601A68A1680A431A601A6822F47F024F
:1014B8001A602279012A05D1E1681A68013942EADD
:1014C80001421A601A6842F000421A602068616995
:1014D800036823F471430360236902680B43A1691D
:1014E8000B43134303600368216A23F00F0303606F
:1014F800E36902680B43134303608368616AA26A65
:1015080023F45F0383608368013A0B4343EA024391
:1015180083604368226B03F007034360436843EA30
:10152800C203E26A43EA02234360036843F080038C
:101538000360012384F83430FFF76CFF45F820403E
:10154800002038BD012038BDF00100201002002025
:101558000060014038B50446002869D00268354B60
:101568009A4205D14068012863D0E068012860D01C
:101578000023012223636264A2642365204601F0EC
:101588004BFE2368207C1A6822F400221A60227A13
:10159800012A1A680CBF42F0005222F000521A6069
:1015A800627A012A1A680CBF42F4001222F400126F
:1015B8001A601A68E56822F4CE4222F008021A601E
:1015C800022D01BF1A6861690A431A601A68012866
:1015D8000CBF42F0100222F010021A60627C012A4D
:1015E8001A680CBF42F0200222F020021A605A69E1
:1015F80022F0634202F0FF225A61626A5969013A95
:101608000A43E1690A43216A013942EA01425A61FF
:1016180062686263A269A563E2631A6884F840009D
:1016280042F001021A60012384F84C30002038BDD2
:10163800012038BD0061014090F84C30013BDBB21D
:10164800FD2B10B513D803681C6824F0E06424F45B
:1016580080241C6009021C68012A01F07F4108BF30
:1016680041F48021214319600263002010BD01204C
:1016780010BD0000F8B5134605460A4651B34BB3F2
:1016880007683968890225D5416B49B9016B39B9B1
:10169800816AC86908B9012B1CD1C969202919D0E8
:1016A80095F84C6006F0FD06012E13D1A86A0D4985
:1016B800C1620D494163C1690C4C202918BF00243F
:1016C800046307F11C0100F087F8044620B1FF23EA
:1016D80085F84C30012402E02846FFF76EFE2046CC
:1016E800F8BD00BFF91600080F1700080317000817
:1016F80008B5806A02F0AEFA08BD08B5806A02F043
:101708009BFA08BD704708B5806A03230365FFF795
:10171800F9FF08BD30B500284ED00168274B994223
:101728004FF0140440D8264A0A44B2FBF4F292005F
:101738004264A3F207430364022380F825308468D7
:10174800C36805690A6823432B4345692B438569A8
:101758002B43C5692B43056A22F4FF4222F070022D
:101768002B431343B4F5804F0B6014D0026C154B18
:101778009A420CBF14491549436C0A6803F01C03CC
:101788000F249C4022EA04020A6042680C6802FAAC
:1017980003F323430B6000230122C36380F8243042
:1017A80080F82520184630BD094B0B44B3FBF4F3F1
:1017B8009B004364074BBEE7012030BD070402408D
:1017C800F8FFFDBF00000240A8000240A804024044
:1017D800F8FBFDBF00040240F0B590F82440012C4E
:1017E80038D090F825500124EDB2A54280F8244065
:1017F8004FF000064FF002042AD180F82540046813
:10180800C6632668076C26F001062660466C06F05B
:101818001C06B5407D60636083680568102B036B08
:101828000BBFA260A160E160E2604BB1236843F0A6
:101838000E0323602B6843F001032B600020F0BDEA
:10184800236823F004032360236843F00A03F0E7C6
:1018580080F824600220F0BD90F82520022A10B5F7
:1018680003D00422C263012010BD0268046C116811
:10187800836B21F00E011160116821F001011160E4
:10188800426C012102F01C0201FA02F2626000249B
:1018980080F8251080F8244013B19847204610BDE1
:1018A800184610BD016C426C036870B402F01C024B
:1018B8000E681D680424944026420ED015F0040FCB
:1018C8000BD01A6892065EBF1A6822F004021A60EA
:1018D800036B4C6073B370BC1847022494402642D3
:1018E80012D015F0020F0FD01A68950606D41A68A0
:1018F80022F00A021A60012380F8253000234C6088
:1019080080F82430C36AE5E708249440344211D0B3
:101918002C070FD51C6824F00E041C60012303FA61
:1019280002F24A60C36380F82530002380F824302F
:10193800436BCFE770BC70472DE9F04F85B00B685B
:10194800DFF8A881674C01930023019ADA4002D19D
:1019580005B0BDE8F08F0126019A9E4012EA060EF6
:1019680000F0B1804A6822F01007022F16D14FEA22
:10197800D30900EB890903F0070AD9F820504FEA88
:101988008A0A4FF00F0C0CFA0AFC25EA0C0C0D69B8
:1019980005FA0AF545EA0C05C9F820504FEA430C48
:1019A8000325D0F800B005FA0CF5ED4302F0030A60
:1019B8000BEA050B0AFA0CF9013F49EA0B09012F5A
:1019C800C0F8009011D8876805EA0709CF6807FAB8
:1019D8000CF747EA09078760476827EA0609C2F350
:1019E80000179F4047EA09074760BAF1030F07D17C
:1019F800C76A27EA0606C2F3C0079F403E43C6628D
:101A0800C66835408E6806FA0CF63543C560D500C1
:101A180059D5D8F8605045F00105C8F86050D8F895
:101A2800605023F0030606F1804605F0010506F52F
:101A38008036039503F0030C039DB5684FEA8C0CC0
:101A48000F2707FA0CF7B0F1904F25EA07073CD0AB
:101A5800254DA8423BD005F58065A84239D005F54B
:101A68008065A84237D005F58065A84235D005F5D0
:101A78008065A84233D005F58065A84214BF0725C4
:101A8800062505FA0CF53D43B56025686FEA0E0694
:101A9800D70354BF35404EEA0505256065689703AE
:101AA80054BF35404EEA05056560A568D70254BFA6
:101AB80035404EEA0505A560E568920254BF3540F9
:101AC8004EEA0505E56001333FE70025D9E7012522
:101AD800D7E70225D5E70325D3E70425D1E7052570
:101AE800CFE700BF00040140000400480010024096
:101AF8007047000008B5044B5969014202D058618B
:101B0800FFF7F6FF08BD00BF00040140024B18684C
:101B180000F4C060704700BF00700040174B1A689F
:101B2800B0F5007F02F4C0621CD1B2F5007F15D079
:101B38001A6822F4C06242F400721A60104A1168EE
:101B480032224A430F49B2FBF1F219460132586971
:101B5800400500D522B94B695B050DD400207047BC
:101B6800013AF4E7B2F5806F1FBF1A6822F4C06229
:101B780042F480621A60F1E7032070470070004069
:101B88000000002040420F0037B51E4DAB6DDA0053
:101B9800044618D5FFF7BAFFB0F5007F23D1802C93
:101BA80029D9A02C8CBF02200120174A136823F0E2
:101BB800070303431360136803F00703181A18BFD9
:101BC800012003B030BDAB6D43F08053AB65AB6D06
:101BD80003F080530193019BFFF798FFAB6D23F04F
:101BE8008053AB65D8E7802C07D808D0A4F17003E0
:101BF80058425841D9E70020D7E70320D5E702200B
:101C0800D3E700BF0010024000200240254B9A682D
:101C1800D96812F00C0205D00C2A15D101F0030185
:101C2800012918D119682048090755BFD3F894101D
:101C38001968C1F30321C1F3031150F8210082B3DD
:101C48000C2A09D000207047042A29D0082A1748EE
:101C580018BF002070470020D968DA6801F0030136
:101C6800C2F30212022902F1010205D0032912D09F
:101C7800D968C1F3062103E0D9680D48C1F30621EC
:101C8800DB68B0FBF2F0C3F34163013348435B0008
:101C9800B0FBF3F07047D9680448C1F30621EFE7B9
:101CA8000348704700100240D86B000800127A0001
:101CB8000024F4002DE9F743054618B9012003B0C4
:101CC800BDE8F083A54C0368A668E768DB0606F064
:101CD8000C0607F003073CD51EB10C2E63D1012F6B
:101CE80061D12368980702D5AB69002BE6D0236839
:101CF800286A190756BFD4F8943023681B0903F0E3
:101D0800F00383423AD2FFF73FFF0028D6D1236879
:101D180043F00803236023682A6A23F0F00313437F
:101D280023606368EA6923F47F4343EA022363601C
:101D3800FFF76CFFA3688A4AC3F30313D35C03F06D
:101D48001F03D840874B18600020FFF709F90028C7
:101D5800B5D12B68D8075DD42B68990700F19C8012
:101D68002B68180700F1D0802B68590700F1FC8018
:101D7800AB6A002B40F065810020A0E7236843F0A0
:101D880008032360236823F0F00303432360636898
:101D9800EA6923F47F4343EA02236360FFF7F4FE12
:101DA8000028C5D08AE7AB691BB3236843F0010359
:101DB8002360FFF70BF9804623689A0711D523683B
:101DC80043F00803236023682A6A23F0F0031343CF
:101DD80023606368EA6923F47F4343EA022363606C
:101DE800B7E7FFF7F3F8A0EB08000228E4D90320CF
:101DF80065E7236823F001032360FFF7E7F88046CF
:101E080023689B07A5D5FFF7E1F8A0EB0800022897
:101E1800F6D9ECE7082E03D00C2E08D1032F06D1F3
:101E280023689A0398D56B68002B95D146E76B68B1
:101E3800B3F5803F10D1236843F480332360FFF764
:101E4800C5F8804623689B0386D4FFF7BFF8A0EB4C
:101E580008006428F6D9CAE7B3F5A02F04D123688F
:101E680043F480232360E6E7226822F4803222606C
:101E7800226822F480222260002BE0D1FFF7A6F826
:101E88008046236898037FF567AFFFF79FF8A0EBBC
:101E980008006428F5D9AAE7042E03D00C2E10D127
:101EA800022F0ED12368590503D5EB68002B3FF4A8
:101EB80005AF63682A6923F0F85343EA0263636055
:101EC8004EE7EB687BB1236843F480732360FFF728
:101ED8007DF8074623685A05EBD4FFF777F8C01B4F
:101EE8000228F7D983E7236823F480732360FFF778
:101EF8006DF8074623685B057FF532AFFFF766F894
:101F0800C01B0228F6D972E76B699BB1D4F89430EC
:101F180043F00103C4F89430FFF758F80746D4F8A3
:101F280094309A073FF520AFFFF750F8C01B0228FE
:101F3800F5D95CE7D4F8943023F00103C4F8943061
:101F4800FFF744F80746D4F894309B077FF50CAFA9
:101F5800FFF73CF8C01B0228F5D948E700100240FB
:101F6800BD6B000800000020A36DD80029D4A36D24
:101F780043F08053A365A36D03F080530193019B45
:101F88004FF001085D4F3B68D9051DD5AB68012BA3
:101F98002BD1D4F8903043F00103C4F89030FFF708
:101FA80015F841F288390746D4F890309B0742D596
:101FB800B8F1000F3FF4DCAEA36D23F08053A365A6
:101FC800D6E64FF00008DDE73B6843F480733B60DA
:101FD800FEF7FCFF81463B68DA05D7D4FEF7F6FF2B
:101FE800A0EB09000228F6D901E7052B06D1D4F8A1
:101FF800903043F00403C4F89030CAE7D4F8902036
:1020080022F00102C4F89020D4F8902022F00402B3
:10201800C4F89020002BC2D1FEF7D8FF41F28839CE
:102028000746D4F890309807C2D5FEF7CFFFC01BFB
:102038004845F6D9DBE6FEF7C9FFC01B4845B3D9CA
:10204800D5E60C2E3FF43AAE022B236823F08073BA
:10205800236037D1FEF7BAFF0646236899012BD4CF
:102068006A6BEB6A43EA02232A6B013A43EA0213DA
:10207800AA6B120943EA4243EA6B5208013A43EA5F
:1020880042532A6C5208013A43EA4263E3602368E8
:1020980043F080732360E36843F08073E360FEF7E6
:1020A80095FF054623689A013FF566AEFEF78EFF59
:1020B800401B0228F6D99AE6FEF788FF801B022803
:1020C800CBD994E6236813F0205F02BFE36823F0BE
:1020D8000303E360E36823F0887323F48033E36049
:1020E800FEF774FF054623689B017FF545AEFEF7B2
:1020F8006DFF401B0228F6D979E600BF007000404A
:102108002DE9F0410E46044610B90120BDE8F081E2
:10211800404A136803F007038B4229D32368D90781
:1021280031D421688A075BD43A4A136803F007035D
:102138009E425DD311F0040F374D64D10B0706D5CD
:10214800AB68226923F4605343EAC203AB60FFF72C
:102158005DFDAB68314AC3F30313BDE8F041D35CBE
:1021680003F01F03D8402E4B18600020FEF7F8BE7E
:10217800136823F007030B431360136803F0070386
:102188009942C2D1CAE76268234D032A2B681BD142
:1021980013F0007FB9D0AB6823F003031343AB609F
:1021A800FEF714FF41F288380746AB68626803F00F
:1021B8000C03B3EB820FB4D0FEF708FFC01B4045F9
:1021C800F3D90320BDE8F081022A02D113F4003FBD
:1021D800E0E712B913F0020FDCE713F4806FD9E7D8
:1021E8000D4AA068936823F0F003034393609BE7CC
:1021F800136823F0070333431360136803F00703DE
:102208009E4282D196E7AB68E26823F4E063134309
:10221800AB6093E70020024000100240BD6B00084D
:1022280000000020014B1868704700BF0000002024
:10223800054B064A9B68C3F30223D35C044A106823
:1022480003F01F03D840704700100240CD6B000810
:1022580000000020054B064A9B68C3F3C223D35CE9
:10226800044A106803F01F03D8407047001002406A
:10227800CD6B000800000020F8B5454BDA6812F075
:10228800030F05460E461C4600682AD0DA6802F09D
:10229800030282423CD1002A3AD0DB686A68C3F361
:1022A80002130133934233D1236823F08063236000
:1022B800FEF78CFE074623681A0132D4AF68002E59
:1022C80036D0012E50D12269286922F4C002400874
:1022D80022F4FE42013842EA072242EA40522261D1
:1022E80032E0022810D0032814D0012810D11B682E
:1022F8009F0738D5E3686A6823F07303013A1843E7
:1023080040EA0210E060CFE71B6813F4806FF1D158
:102318000120F8BD1A689103ECD41B6813F4802FD0
:10232800F5E7FEF753FEC01B0228C4D90320F8BD09
:102338002169EB6821F41F3121F4407141EA07213A
:102348001B0941EA43412161236843F0806323600C
:10235800FEF73CFE064623681B0113D52369AA69CC
:10236800134323610020F8BD2369686923F0C06323
:10237800400823F4FE43013843EA072343EA406355
:102388002361E1E7FEF722FE801B0228E3D9CDE7AF
:1023980000100240F8B53D4BDA6812F0030F05460D
:1023A8000E461C46006828D0DA6802F00302824212
:1023B8003AD1002A38D0DB686A68C3F302130133C4
:1023C800934231D1236823F080532360FEF7FEFD4A
:1023D800074623689A0030D4A868002E34D0636971
:1023E800296923F0C063490823F4FE43013943EA0D
:1023F800002343EA4163636132E0022810D00328D6
:1024080014D0012810D11B689F0738D5E3686A6883
:1024180023F07303013A184340EA0210E060D1E761
:102428001B6813F4806FF1D10120F8BD1A6891037D
:10243800ECD41B6813F4802FF5E7FEF7C7FDC01B2B
:102448000228C6D90320F8BD6269EB6822F41F325E
:1024580022F4407242EA00221B0942EA43426261C6
:10246800236843F080532360FEF7B0FD06462368D7
:102478009B0005D563696A69134363610020F8BD51
:10248800FEF7A4FD801B0228F1D9DBE7001002400B
:102498002DE9F347066816F40066044624D0416E19
:1024A800B1F5800F2CD002D8C1B101261CE0B1F5DE
:1024B800000F0DD0B1F5400FF7D14D4A616ED2F83B
:1024C800883023F440030B43C2F8883000260BE021
:1024D800474AD36843F48033D360EEE70430FFF70C
:1024E800CBFE06460028E8D02368D80406D5A16E9E
:1024F800B1F1807F74D008D8A9B10126354621E012
:1025080000212030FFF746FFEBE7B1F1007F04D050
:10251800B1F1407FF1D1354609E0354AD36843F43B
:102528008033D360F7E7201DFFF7A6FE0546002D90
:102538005CD12F4AA16ED2F8883023F040730B4348
:10254800C2F888302368990340F14F81284FBB6D4A
:10255800DA0040F176814FF00008DFF89890D9F85A
:10256800003043F48073C9F80030FEF72FFD82462F
:10257800D9F80030DB053FD5002D44D1D7F890308D
:1025880013F4407315D0D4F88420934211D0D7F8AF
:102598009030D7F8902042F48032C7F89020D7F8CE
:1025A800902023F4407322F48032C7F89020C7F8B3
:1025B8009030D80709D5FEF709FD41F2883905465C
:1025C800D7F89030990740F10981D7F89030D4F8BE
:1025D800842023F440731343C7F89030354612E043
:1025E800002104F12000FFF7D5FE9FE72E46A9E75A
:1025F8000010024000700040FEF7E8FCA0EB0A0063
:102608000228B5D90325B8F1000F03D0BB6D23F01C
:102618008053BB652368DA0708D59049A06BD1F8C9
:10262800882022F003020243C1F888209F0708D5BA
:102638008A49E06BD1F8882022F00C020243C1F8E5
:1026480088205E0708D58549206CD1F8882022F0BB
:1026580030020243C1F88820180708D57F49606C0A
:10266800D1F8882022F0C0020243C1F88820D90698
:1026780008D57A49A06CD1F8882022F44072024328
:10268800C1F888209A0608D57449E06CD1F88820EA
:1026980022F440620243C1F888209F0508D56F499B
:1026A800E06DD1F8882022F440220243C1F8882046
:1026B8005E0508D56949206ED1F8882022F44012B9
:1026C8000243C1F88820580608D56449206DD1F81E
:1026D800882022F440520243C1F88820190608D500
:1026E8005E49606DD1F8882022F440420243C1F867
:1026F8008820DA0508D55949A06DD1F8882022F438
:1027080040320243C1F888209B040FD5534AE16E3A
:10271800D2F8883023F040630B43B1F1006FC2F860
:10272800883064D1D36843F48013D36023681F03CF
:102738000FD54A4A216FD2F8883023F040630B4303
:10274800B1F1006FC2F888305CD1D36843F48013CC
:10275800D36023685E030FD5404A616FD2F8883092
:1027680023F040630B43B1F1006FC2F8883054D1B5
:10277800D36843F48013D3602368580412D53749CB
:10278800A26FD1F8883023F040531343B2F1805F31
:10279800C1F888304CD10221201DFFF76DFD0028BB
:1027A80018BF05462268110408D52C49E06FD1F8F6
:1027B800883023F080430343C1F88830D30309D518
:1027C800264AD4F88010D2F8883023F000430B430F
:1027D800C2F88830284602B0BDE8F087FEF7F6FB5D
:1027E800401B48457FF6ECAE0CE7354612E7B1F1E1
:1027F800806F9BD10121201DFFF73EFD002818BFE7
:10280800054693E7B1F1806FA3D10121201DFFF7A1
:1028180033FD002818BF05469BE7B1F1806FABD1A7
:102828000121201DFFF728FD002818BF0546A3E752
:10283800B2F1005FB6D1022104F12000FFF7AAFD32
:10284800ADE7BB6D43F08053BB65BB6D03F08053B0
:102858000193019B4FF001087FE600BF0010024082
:10286800022310B580F83D300368094C996821406F
:10287800062908D09A682240B2F5803F1EBF1A6820
:1028880042F001021A60012380F83D30002010BD9B
:1028980007000100304A0368904212D0B0F1804F1F
:1028A8000FD0A2F5943290420BD002F5806290428C
:1028B80007D002F58062904203D002F5943290422C
:1028C80019D14A6823F070031343234A90421DD05C
:1028D800B0F1804F1AD0A2F59432904216D002F58A
:1028E8008062904212D002F5806290420ED002F5CA
:1028F800943290420AD0194A904207D002F5806279
:10290800904203D002F58062904203D1CA6823F452
:10291800407313434A6923F08003134303608B68B1
:10292800C3620B6883620C4B98420FD003F50063B7
:1029380098420BD003F54063984207D003F58063B3
:10294800984203D003F58063984201D10B69036371
:1029580001234361704700BF002C01400040014043
:1029680010B50446A0B190F83D3003F0FF021BB942
:1029780080F83C2001F038FA022384F83D302068C2
:10298800211DFFF787FF012384F83D30002010BD8B
:10299800012010BD90F83C30012B30B54FF00203F8
:1029A8001FD00268104D80F83D30AA4253689468E1
:1029B80003D005F50065AA4203D14D6823F47003DE
:1029C8002B430D68896823F070032B4324F080049F
:1029D800536021430123916080F83D30002380F843
:1029E8003C30184630BD00BF002C014003681A680F
:1029F80022F490721A609A6822F001029A602023E9
:102A080080F87230002303667047704770470000F3
:102A18000368DA69196870B5160704469D680AD113
:102A2800960664D58E0662D5036E002B00F083806F
:102A3800BDE87040184715F0010002D111F4907FED
:102A480055D0D50707D5CE0505D501251D62656F7B
:102A580045F001056567950706D528B102251D6271
:102A6800656F45F004056567560706D528B1042546
:102A78001D62656F45F002056567150707D58E0667
:102A880000D420B108201862636F03436367636F43
:102A9800002B50D0950605D5880603D5236E0BB1BB
:102AA80020469847636F1907204604D423689D6819
:102AB80015F0400517D0FFF799FF23689A6852066A
:102AC8000DD59A68E06E22F040029A6038B11A4B30
:102AD8008363FEF7C1FE70B3E06E836BA8E7204600
:102AE800FFF794FF70BDFFF791FF656770BDD602D1
:102AF80009D5680207D54FF4801220461A62BDE84E
:102B0800704000F0A6BA160605D50D0603D5636E0B
:102B18008BB120468CE750060DD54A060BD51A68AE
:102B280022F040021A60202384F871300023636683
:102B38002046FFF76AFF70BD452B000808B5806A7C
:102B48000023A0F85A30A0F85230FFF75FFF08BD05
:102B58000268C169F8B504468368006915680343CB
:102B680060690343BA480B43284003431360536822
:102B7800E06823F4405303435360B64BA0699A427C
:102B88001CBF236A1843936823F43063034393609C
:102B9800B14B9A4219D103F55843B04AD3F888305B
:102BA80003F00303B1F5004FD35C40F03881082BE4
:102BB80000F28F80DFE813F01A01CA00F9008D00D7
:102BC80014018D008D008D003600A54B9A4207D167
:102BD80003F5E633A34AD3F8883003F00C03E1E7A2
:102BE800A14B9A4223D103F5E433D3F8883003F09C
:102BF8003003102B00F0F1800BD8002B00F0F3808D
:102C0800B1F5004F4FF001024FF0000300F0F880DB
:102C1800A8E0202B00F0C680302BF1D1B1F5004F91
:102C280040F0B8806068430803F58033C3E08F4BF9
:102C38009A421ED103F5E233D3F8883003F0C0037B
:102C4800402B00F0BB800AD87BB9824B9A4240F0F7
:102C5800CA80FFF7EDFA0023B0BB02463AE0802BAA
:102C680000F09D80C02B00F0B0807A4B9A42C7D10B
:102C78002FE07F4B9A4211D103F5E033D3F8883027
:102C880003F44073B3F5807F00F09880DCD9B3F586
:102C9800007F00F08480B3F5407FE4E76D4B9A42F3
:102CA800AED103F5C833D3F8883003F44063B3F5E5
:102CB800806F00F08380C7D9B3F5006F6FD0B3F58C
:102CC800406FD0E76B480223626802EB4201814201
:102CD80005D901220023236663661046F8BDB0EBD0
:102CE800023FF6D8082B2ED8DFE803F0052D1C2D5F
:102CF800242D2D2D2700FFF79BFA62684FF4807171
:102D080056080027E1FB0067002330463946FDF7E7
:102D18009FFF0022584BA0F540719942D9D82368EB
:102D2800D860D7E75548550800230021401941F1DC
:102D38000001ECE7FEF76AFFDFE7500800210023F7
:102D480010F50000F3E701220020E3E7FFF782FA1D
:102D58004EE0FFF76DFA626800EB5203B3FBF2F343
:102D68009BB20022A3F110004FF6EF718842B0D851
:102D78002168CB60AEE7FFF76DFAECE760684308BF
:102D880003F5740303F51053B3FBF0F3E8E7FEF71C
:102D98003DFFE0E76068430803F50043F4E72D4B87
:102DA8009A428FD0B1F5004FE8D16068430803F12B
:102DB800F47303F59043B3FBF0F31FE0254B9A42FD
:102DC8000BD1FEF723FF042346E7224B9A427FF4F8
:102DD80025AF4FF40040082376E7B1F5004FD6D170
:102DE800FEF714FF04E0B1F5004FB2D1FFF720FA67
:102DF80061684A0802EB4003B3FBF1F39BB200227F
:102E0800A3F110004FF6EF7188423FF662AF23F04E
:102E18000F012068C3F342030B43C3605AE7082B32
:102E28003FF657AF01A252F823F000BF5B2D000810
:102E38007F2D0008852D0008DB2C0008972D000841
:102E4800DB2C0008DB2C0008DB2C00089D2D00087B
:102E5800F369FFEF0080004000380140906B0008E4
:102E680000440040946B000800480040004C0040BB
:102E7800005000400024F400FFFC0F00000024F480
:102E8800436ADA0710B506D50168846A4A6822F4ED
:102E9800003222434A609C0706D50168C46A4A6822
:102EA80022F4803222434A60590706D50168046B30
:102EB8004A6822F4802222434A601A0706D501682C
:102EC800446B4A6822F4004222434A60DC0606D575
:102ED8000168846B8A6822F4805222438A609906CA
:102EE80006D50168C46B8A6822F4005222438A60BE
:102EF8005A060FD50168046C4A6822F480122243EE
:102F0800B4F5801F4A6005D14A68446C22F4C002B7
:102F180022434A601B0606D50268816C536823F475
:102F280000230B43536010BD2DE9F041069D044674
:102F38000F46164698462168CA6937EA02030CBF4D
:102F480001220022B24202D00020BDE8F0816B1CB1
:102F5800F2D09DB923681A6822F4D0721A609A6870
:102F680022F001029A60202384F8713084F87230CC
:102F7800002384F870300320BDE8F081FEF726F8BE
:102F8800A0EB08008542D6D2E4E773B504460026D4
:102F98004667FEF71BF823681B681A07054617D40F
:102FA80023681B685B070AD56FF07E4300930022F5
:102FB8002B464FF480012046FFF7B6FFA0B9202327
:102FC800002084F8713084F8700084F872300CE0C6
:102FD8006FF07E430093324603464FF400112046BB
:102FE800FFF7A2FF0028DBD0032002B070BD10B5A8
:102FF800044660B390F8713003F0FF021BB980F803
:10300800702000F027FF2268242384F871301368A9
:1030180023F0010313602046FFF79AFD012816D01C
:10302800636A13B12046FFF72BFF23685A6822F41E
:1030380090425A609A6822F02A029A601A6842F00E
:10304800010220461A60BDE81040FFF79EBF01202C
:1030580010BD704710B51548154B03608AB0FEF7D0
:1030680042F818B14021134800F002FE002404235E
:1030780022460DEB03010D48019402930394049436
:103088000594FEF7F5F818B14C210A4800F0F0FD58
:10309800102201A905480494FEF7EAF818B1542152
:1030A800044800F0E5FD0AB010BD00BF342201203D
:1030B80000740040A16B000870B502682B4B9A425F
:1030C80086B0054650D103F5CE3300269A6D284CBC
:1030D80042F000529A659B6D039603F000530093EB
:1030E800009B302301934FF09040032301A90293E2
:1030F800FEF722FC1F4AE66006234FF0100C84E816
:103108000C10802323614FF4807363614FF4806354
:10311800A36120462023E3612662FEF7FBFA18B17B
:103128007B21154800F0A4FDAC60A562134C144B3C
:10313800802222614FF4807203264FF0100E6261E4
:103148004FF4806284E84840A26100232022204690
:10315800E360E2612362FEF7DDFA18B18C210648CC
:1031680000F086FDEC60A56206B070BD00740040FA
:103178004822012030000240A16B00089022012063
:10318800580402401E481F4A08B5002380E80C0076
:103198004FF0C0420123C2612022037243720262CF
:1031A8004362FEF7D7F918B14321174800F060FDD4
:1031B8001648174B036034220123C26004220371AE
:1031C800026200230A228360036143618361C36151
:1031D80043628262C3620363FEF748F918B155215E
:1031E800094800F045FD01220A490548FEF724FA7E
:1031F80028B15A210448BDE8084000F039BD08BD8F
:10320800D822012000610140AE6B00087423012020
:1032180040600140040002002DE9F0412D4C236874
:1032280086B00546002B2ED12B4A13680133012B9B
:10323800136009D1294B1A6E42F080721A661B6E10
:1032480003F080730093009B2548042300260DEBB0
:1032580003014FF0020806270193CDF80880039672
:1032680004960597FEF768FB4FF4804301A91D48B3
:103278000193CDF80880039604960597FEF75CFB4A
:103288002368013323602A68174B9A421ED1174CD2
:10329800802203F51F4322614FF4007244336261B8
:1032A8004FF400622360A26100232022204663605D
:1032B800A360E360E2612362FEF72CFA18B198215B
:1032C8000B4800F0D5FCA562EC62AC6206B0BDE824
:1032D800F08100BF140200201802002000100240F4
:1032E8000008004800040048006101402C23012028
:1032F800AE6B0008F0B5194C236887B0002B2BD1B2
:10330800174A13680133012B136009D1154B1A6E44
:1033180042F080721A661B6E03F080730093009B64
:103328001148042300250DEB03010227062601930B
:103338000297039504950596FEF7FEFA4FF480432D
:1033480001A90A4801930297039504950596FEF78B
:10335800F3FA23680133236007B0F0BD140200209C
:10336800180200200010024000080048000400482D
:10337800174B07B59A6C42F001029A649A6C02F0F6
:1033880001020092009A9A6C42F002029A649B6CC5
:10339800002203F00203114601930D20019BFDF763
:1033A8003BFE0D20FDF76CFE002211460E20FDF7B6
:1033B80033FE0E20FDF764FE002211463C20FDF787
:1033C8002BFE3C20FDF75CFE03B05DF804FB00BF5C
:1033D8000010024070B54FF400612DED028B0546D8
:1033E8009FED120A1248124E00F08AFD07EE905A1D
:1033F8009FED107AF8EEE77A0024C7EE278AB6EE3A
:10340800008AAC4202DBBDEC028B70BD07EE904A2D
:10341800B8EEE70A013420EE280A01F0C1FAF0EE0E
:10342800487AE0EE487AE6EC017AEAE70000000024
:1034380020220020DB0FC94008B5B5EE400AF1EEA6
:1034480010FA2DED028BB0EE408A06D001F05AFA40
:1034580080EE080ABDEC028B08BDB7EE000AF9E75A
:10346800014B83ED000A70471C220020012A38B561
:1034780004460D4614D102460F494FF4806301F00B
:10348800CFFA0D494FF4806204F5805000F056FDE4
:10349800294620464FF48062BDE8384000F04EBD12
:1034A800022AF5D1024605494FF4806301F0B8FAC3
:1034B8004FF480620149E7E71C0200201C1200203B
:1034C8002DE9F04F2DED048B431C87B0C64E0493B5
:1034D8000546022490FBF4FB1846F0EE409A0F468E
:1034E800B0EE609AFFF776FFD6ED008ABF489FEDF1
:1034F800C00A4FF4805100F003FD4FF48051BD48DD
:103508009FEDBB0A89EEA88A00F0FAFC032F0ED8BB
:10351800DFE817F004006B00CC004D01B34EB54F47
:1035280095FBF4F44FEACB0564425C451CDDAF4AD9
:10353800049BB149104601F0D9F8AE4A049BAE4944
:10354800104601F0D3F801230022A849AB4801F046
:1035580053F8A849A9480123002207B0BDEC048B01
:10356800BDE8F04F01F048B818EE100AFCF7F4FF78
:103578009BA3D3E90023CDE90001FDF741F880467C
:1035880020468946FCF7D6FF02460B464046494688
:10359800FDF736F8FDF70CFB00EE100AFFF74CFFBD
:1035A800DDE90023104619468DED020AFCF776FE88
:1035B8009DED020A804610EE100A8946FCF7CCFF02
:1035C80002460B4640464946FDF71AF8FDF7F0FA61
:1035D80005EBC40AB2444FF48052CAF800003946D9
:1035E800824800F0ABFC01349FE7DFED858ADFF805
:1035F800FC8195FBF4F44FEACB0564425C4596DC0C
:1036080007EE904AB8EEE70A05EBC40920EE280A4F
:10361800FFF712FF18EE100A10EE10AAFCF79CFF35
:103628006FA3D3E90023CDE90001FCF7E9FF0646C3
:1036380020460F46FCF77EFF02460B4630463946C9
:10364800FCF7DEFFFDF7B4FA00EE100AFFF7F4FE10
:1036580050468DED050AFCF77FFFDDE90023CDE933
:10366800020110461946FCF719FE9DED050A0646AB
:1036780010EE100A0F46FCF76FFF02460B46304665
:103688003946FCF7BDFF02460B46DDE90201FCF7AF
:1036980003FEFDF78DFAC1444FF48052C9F80000CB
:1036A8005449524800F04AFC0134A7E7DFF83C913E
:1036B800DFF8408195FBF4F44FEACB0A64425C459D
:1036C8003FF735AFC9EE287A0AEBC4054D4417EE2B
:1036D800900AFCF741FF064620460F46FCF72AFFF2
:1036E8003FA3D3E90023CDE9000130463946FCF772
:1036F80087FFDDE90023FCF783FFFDF759FA00EEA9
:10370800100AFFF799FE32463B46304639468DEDA2
:10371800020AFCF7C3FD9DED020A064610EE100AE8
:103728000F46FCF719FF02460B4630463946FCF7B0
:1037380067FFCDE9020118EE100AFCF70DFF28A378
:10374800D3E9002306460F46FCF75AFFDDE90023BC
:10375800FCF756FFFDF72CFA00EE100AFFF76CFE97
:1037680032463B46304639468DED000AFCF796FD59
:103778009DED000A064610EE100A0F46FCF7ECFE17
:1037880002460B4630463946FCF73AFF02460B46DE
:10379800DDE90201FCF780FDFDF70AFA4FF48052DB
:1037A80028604146114800F0C9FB013487E7D6ED8F
:1037B800007A9FED147A0F4A0C4967EE877A4FF02A
:1037C8007E50FDEEE77A086017EE903A9B001944A8
:1037D800134410600C4A08601A60A8E6AFF3008032
:1037E80000000060FB2119401C220020204200201C
:1037F800000000002082002020220020246C000805
:10380800DB0F49400AD7A33B000080BF30B5002337
:103818000024934201F1080100DB30BD50F8045B3D
:1038280041F8085C41F8044C0133F2E710B5002375
:10383800934200F1080000DB10BD50F8084C41F835
:10384800044B0133F4E7000070B52DED028B9FEDBA
:10385800358A354CADF5804D06460D464FF480420D
:103868000021684601F038FCB0EE480A0DF500501A
:103878004FF4006100F044FB694630464FF4806223
:10388800FFF7C4FF694620460123002200F0B4FE7A
:103898006A4669464FF40063244800F093FF012309
:1038A8001A466946204600F0A7FE694668464FF466
:1038B8000062FFF7BBFF012231466846FFF7D6FDDD
:1038C800B0EE480A0DF500504FF4006100F018FB07
:1038D800694628464FF48062FFF798FF69462046FC
:1038E8000123002200F088FE6A4669464FF400630F
:1038F8000F4800F067FF01231A466946204600F08A
:103908007BFE694668464FF40062FFF78FFF02228C
:1039180029466846FFF7AAFD0DF5804DBDEC028BE0
:1039280070BD00BF00000000246C00082042002089
:1039380020820020194B1A48DA6C10B542F00402B4
:10394800DA64DA6C88B002F004020092009ADA6C49
:1039580042F00102DA64DA6C02F001020192019A83
:10396800DA6C42F00202DA64DB6C03F002030293C1
:10397800029B4FF400530024039303A9094B0493BB
:103988000594FDF7D9FF224621462820FDF744FB80
:103998002820FDF775FB08B010BD00BF00100240DD
:1039A800000800480000211010B5B8B04FF480722C
:1039B800089210220992012211920A2202231292DD
:1039C80005A8072205930F93109313921493159348
:1039D800FEF770F900B1FEE70F220323029003906F
:1039E8000490042168468DE80C00FEF789FB00B1BD
:1039F800FEE7114B2590369016A81693FEF748FD62
:103A080000B1FEE74FF40070FEF788F8044600B1F5
:103A1800FEE7FEF707FC4FF47A73B0FBF3F0FDF70F
:103A28003BFB0420FDF74EFB224621464FF0FF30BA
:103A3800FDF7F2FA38B010BD020001002DE9F74396
:103A4800FDF7A6FA6E4CFFF7AFFFFFF773FFFFF71E
:103A58008FFC00F0DDF9FFF795FBFFF7FBFA00F0AC
:103A680099F9684B684A1B68D268B3FBF2F3226A7B
:103A7800B3FBF2F3626AB3FBF2F300EE103A634B66
:103A8800B8EE400A002583ED000AFFF7E9FCDFEDF8
:103A9800600A0321B0EE600A0020FFF711FD5D48BF
:103AA800FEF7DEFE00215C48FDF730FB4FF40063B3
:103AB8005A4A009529465848FDF752FB10215648A6
:103AC800FDF724FB564A009510214FF40063524835
:103AD800FDF746FB0120FDF77FFA4FF400625149DC
:103AE8002046FDF7C7FD002840F088804E4EDFF8DD
:103AF800348137463378002B39D04C4C002221468C
:103B080058F822305B1207EE903A0132F8EEE77A65
:103B1800B2F5806FE1EC017AF2D1454943483F4D57
:103B280000F00CFA42494148FFF78EFE40493C48F4
:103B38000022F4EC017AFDEEE77A17EE903AF1EC08
:103B4800017A1B1103F50063FDEEE77A9BB225F8B5
:103B5800123017EE903A1B1103F500639BB220F860
:103B680012300132B2F5806FE3D100233B70314D42
:103B78002B78002BBED02D4C4FF0000922464FEA7F
:103B8800890303F5805309F1010958F803305B12E2
:103B980007EE903AF8EEE77AB9F5806FE2EC017A31
:103BA800EDD14A462249214800F0C8F920491F486A
:103BB800FFF74AFE1E49DFF864E019484A46F4EC6C
:103BC800017AFDEEE77A17EE903AF1EC017A1B11D3
:103BD80003F50063FDEEE77A9BB22EF8123017EE7C
:103BE800903A1B1103F500639BB220F812300132A2
:103BF800B2F5006FE3D100232B707BE7FEE700BF2F
:103C0800D82201200000002074230120AC230120C9
:103C180000000000B02301203422012020C200202F
:103C280020D2002020E200202002012024020120CE
:103C38002412012021020120044B1A7822B9044AD7
:103C4800904204BF01221A70704700BF2002012071
:103C5800D8220120044B1A7822B9044A904204BFA2
:103C680001221A70704700BF21020120D8220120CA
:103C7800FEE70000214B07B51A6E42F001021A66F2
:103C88001A6E02F001020092009A9A6D42F0805278
:103C98009A659B6D03F0805301930320019BFDF708
:103CA800A9F9002211466FF00B00FDF7B5F90022C3
:103CB80011466FF00A00FDF7AFF9002211466FF0C8
:103CC8000900FDF7A9F9002211466FF00400FDF77D
:103CD800A3F9002211466FF00300FDF79DF90022B9
:103CE80011466FF00100FDF797F9002211464FF0D9
:103CF800FF30FDF791F903B05DF804FB00100240B6
:103D08007047704708B5FDF759F9BDE80840FDF759
:103D1800E6B900000148FDF7C5BD00BF48220120F3
:103D28000148FDF7BFBD00BF2C2301200148FEF765
:103D38006FBE00BFF02301204FF40050FDF7DABE3C
:103D48000148FDF7AFBD00BF902201200F49D1F80F
:103D5800883043F47003C1F888300D4B1A6800208E
:103D680042F001021A6098601A6822F0A85222F400
:103D780010221A604FF48052DA601A6822F4802206
:103D88001A6098614FF000638B60704700ED00E0A7
:103D9800001002401FB51148114B03600023436017
:103DA800836040F27F63C36080238361FEF7D8FDA0
:103DB80018B13D210B48FFF75BFF2023019301A9B0
:103DC800002306480393FEF7E5FD18B14421054892
:103DD800FFF74EFF05B05DF804FB00BFB0230120DC
:103DE80000100040086C00080268084B9A4282B034
:103DF8000AD103F500339A6D42F010029A659B6D63
:103E080003F010030193019B02B0704700100040BB
:103E180008B50D480D4B4FF4E13E80E808400C22F0
:103E280000238360C360036142618361C3610362ED
:103E38004362FFF7DCF828B144210548BDE8084093
:103E4800FFF716BF08BD00BFF02301200044004063
:103E5800156C000810B50268134B9A4286B021D140
:103E680003F5E63300249A6D42F400329A659B6D9F
:103E7800039403F400330093009B0C230193022363
:103E880002930323049301A907234FF0904005935D
:103E9800FDF752FD262022462146FDF7BDF82620D3
:103EA800FDF7EEF806B010BD00440040DFF834D04E
:103EB800002103E00C4B5B58435004310B480C4B7A
:103EC80042189A42F6D30B4A02E0002342F8043B18
:103ED800094B9A42F9D3FFF739FF01F0D9F8FFF7F8
:103EE800ADFDFEE70080012030D40008000000206E
:103EF800D4010020D40100206C240120FEE700003A
:103F080010B48C0810D000F110032246013A03EDDA
:103F1800040A03ED030A03ED020A03ED010A03F1A3
:103F28001003F3D100EB041011F0030103D00139A1
:103F3800A0EC010AFBD15DF8044B70472DE9F04174
:103F48005FEA92081ED000F1100401F11003454603
:103F580054F810CC54F80CEC54F8087C54F8046C61
:103F680043F8046C013D43F810CC43F80CEC43F8DB
:103F7800087C04F1100403F11003E9D14FEA081892
:103F88004044414412F0030205D050F8043B41F884
:103F9800043B013AF9D1BDE8F08100BF2DE9F041B9
:103FA8002DED088B07460846B7F800E07A684FEA17
:103FB8005E0100EB8E085FEADE0E00F0B0808B0039
:103FC8001033C6181032434400F1100508F11004EC
:103FD80054ED041A54ED036A13ED044A53ED033A01
:103FE80053ED025A13ED015A14ED020A54ED017A09
:103FF80016ED042A56ED032A15ED036A15ED017A2C
:1040080015ED043A56ED020A16ED011A55ED024A6D
:1040180073EE21BA36EE26BA37EE27AA72EE049A64
:1040280032EEA39A31EE058A74EE80AA70EEA58A64
:1040380045ED04BA05ED03BA45ED02AA05ED01AA5E
:1040480006ED018A46ED049A06ED039A46ED028ACA
:1040580076EE666A73EEE23A12ED036A52ED042ACE
:1040680033EE613A34EE424A26EE868A24EE062A78
:1040780063EE221A24EE224A23EE063A66EEA26A7C
:1040880023EE866A63EEA23A36EE046A76EEC36AD7
:1040980072EE633A71EE882A44ED036A44ED042A0D
:1040A80043ED043A03ED036A77EE677A75EEE06A4A
:1040B80012ED017A52ED025A35EE416A74EEC04AA9
:1040C80067EE873A26EE875A24EEA54A67EEA57A68
:1040D80064EE874A66EEA56A26EE077A26EE256A1A
:1040E80077EEE47A74EE235A35EE466A37EE267A8E
:1040F800BEF1010E44ED025A05F1100544ED017AB6
:1041080006F1100603ED026A03ED017A02F11002CE
:1041180004F1100403F110037FF45AAF7A688CB2EB
:104128002146022300F0C2FCBDEC088B21467A68C8
:1041380040460223BDE8F04100F0B8BC2DE9F04F3D
:104148002DED0A8B028891ED006A8FB00F46520858
:1041580041680C9093003846184406460990184464
:10416800D0ED006A96ED004AD6ED012AD0ED017A2D
:104178000A9076EE265A044625461C44D4ED004A99
:1041880097ED017A94ED013A019435EE845A304660
:1041980035EE245A3E4615EE10EA76EE666A46F883
:1041A80008EB37EE276A90ED015A059677EE677AA5
:1041B800019E079776EEA23A96ED012A36EE057A29
:1041C80075EEC45A37EEC45A77EE847A33EEC34A92
:1041D8000446A34637EE027A35EE245A14EE108AC6
:1041E800A44675EEE45A87ED017A4BF8088BACF1DA
:1041F80004078CED015A01F1080C2C46CDF810C0CB
:1042080015EE90CA36EE626A44F808CB76EEE26A9A
:1042180036EE436A069476EE836A01F1100452087A
:10422800029485ED016A2C4601F118050B92B246FD
:10423800039577EEE47A023A16EE905AB64630467F
:1042480052084AF8085BA0F10406CEED017A0892FC
:1042580000F030819146079ADDF80880CDF834A047
:10426800083B02F1100501F1200CA4F10C0201F148
:10427800300E334410345046594655ED023A14ED89
:10428800025A91ED007AD0ED007A54ED015A15EDFD
:10429800014AD0ED016A91ED016A33EE858A34EE68
:1042A800250A78EE074A74EE655A74EEA74A33EE8B
:1042B800C55A45ED024AD1ED014A90ED014A70EE2A
:1042C800244A75EE06AA74EE844A35EEC7AA45ED6F
:1042D800014AD6ED001AD7ED000A92ED024AD3ED55
:1042E800023A93ED012A16ED011AD2ED012A57ED93
:1042F800019A70EEA14A39EE813A74EE848A70EE22
:10430800E11A78EEA38A7AEEE6AA18EE90AA47F8A0
:1043180008A9D2ED018A93ED019A73EE288A3AEE44
:1043280027AA78EE898A74EE630AC7ED018A18ED28
:1043380002BA58ED018A39EEC11A6AEE28BA2AEE95
:104348008BCA71EEE29A31EE209A79EE829A3CEEAF
:104358002BCA6AEEA8AA69EEA8BA2AEE0BAA69EED9
:104368008B9A69EE288A29EE0BBA1CEE10AA78EE11
:10437800A98A41F808AB3AEE6AAA3BEECBBA34EE0A
:10438800C44A33EE623A01ED01AAC2ED018A82ED18
:1043980002BA5CED044A74EE633A38EE478A1CEDC3
:1043A800034A30EE460A33EE423A38EE678A30EE78
:1043B800660A23EEE49A63EE048A28EE24AA60EEE5
:1043C800049A28EE048A20EE240A63EE843A39EE31
:1043D800684A7AEE299A14EE10AA30EE480A63EE7B
:1043E800244A44ED029A73EEE43A04ED010A46F8D1
:1043F80008A935EE466A35EE877AC6ED013A76EEBB
:10440800266A77EE677A1EED056A1EED067A67EE74
:10441800865A26EE875A72EE622A30EEC11A72EE7A
:10442800E12A75EE255A62EE860A66EE866A67EE1E
:10443800877A21EE066A62EE872A21EE071A15EEC0
:1044480090AA77EEE67A40F808AB30EEC11A76EE1D
:10445800222AB9F1010940ED017A05F1080583ED39
:10446800021AC3ED012A08F10808A2F108020CF1AA
:10447800100C04F108040EF1180EA3F108037FF4E0
:10448800FCAE08990298DDF834A0CB0001EB41029C
:1044980000EB0111029105991944059104991944F9
:1044A800049106999B4419449A44039B069103EB93
:1044B800C2030393059A069892ED004A90ED007A9C
:1044C8009BED003ADAED003AD2ED014AD0ED016AEF
:1044D8009AED012ADBED017ABDF82C400C9E34EEF2
:1044E800076A74EEA65A36EE035A74EEE66A35EE9B
:1044F800235A34EE477A82ED005A9BED015ADAEDE1
:10450800014A35EE855A37EE274A35EE245A76EEBB
:10451800C34A82ED015A049A34EEA35AD2ED001A26
:10452800D2ED012A029A34EE424A36EE436A64EE2C
:10453800214A24EE224A65EE222A25EE215A74EEFB
:10454800A22A35EE445A75EEE75ACBED002A8BEDD8
:10455800015A92ED014A92ED005A039A36EE636AC7
:1045680075EEC25A66EE054A25EE855A26EE046AAD
:1045780065EE845A35EE466A74EEA55A76EE836A7D
:1045880037EE677A80ED016AC0ED005AD2ED015A24
:10459800079877EE027A36EEE37AD2ED006A27EED4
:1045A800A66A67EE266A67EEA57A27EE257A76EE82
:1045B800E77A36EE077ACAED017A8AED007A7268F0
:1045C8002146042300F072FA0998726821460423F0
:1045D80000F06CFA0A9872682146042300F066FA23
:1045E80072680198214604230FB0BDEC0A8BBDE820
:1045F800F04F00F05BBA00BF2DE9F041012A0646F2
:1046080017460C469846058854D0B5F5807F4CD09F
:1046180016D9B5F5806F1AD05CD9B5F5006F44D0BE
:10462800B5F5805F05D1012372682946204600F060
:104638003DFAB8F1000F11D1012F16D0BDE8F08175
:10464800202D32D04AD9402DEDD0802DF1D12146F0
:104658003046FFF7A3FCB8F1000FEDD0B268B1897E
:104668002046FBF7ADFD012FE8D107EE905AF8EE92
:10467800677AB7EE007AC7EE276A002DDED004F11C
:104688000801002301339D4201F1080111ED047A6C
:1046980051ED037A27EE267A67EEE67A01ED047A81
:1046A80041ED037AEED1BDE8F08121463046FFF7AF
:1046B80045FDBEE7ADB101F10C03002253ED027ACE
:1046C8000132F1EE677A954243ED027A03F108036D
:1046D800F4D19AE7B5F5007FA5D0AAE7102DB6D09A
:1046E800A7E7B5F5807F94D8AAE700BFF0B55FEAE1
:1046F800930E4CD000F1200501F1100602F12004C0
:10470800774656ED043A16ED037A56ED027A16ED21
:10471800013A15ED074A55ED064A15ED052A55EDFE
:10472800025A15ED045A15ED016A55ED032A55EDA7
:10473800086A67EE244A27EE855A23EE844A27EE54
:10474800027A67EEA27A65EE835A26EE036A66EE6F
:10475800A36A013F04ED074A44ED064A04ED057AD1
:1047680004ED045A44ED037A44ED025A04ED016A5B
:1047780044ED086A06F1100605F1200504F120044D
:10478800BFD14FEA4E1401EB0E112044224413F01E
:10479800030315D008320830F1EC016A10ED027AF3
:1047A80027EE267A013B02ED027A50ED017A67EE98
:1047B800A67A00F1080042ED017A02F10802EBD175
:1047C800F0BD00BFF0B55FEA930E73D000F120068C
:1047D80001F1200502F12004774616ED087A15ED5F
:1047E800085A16ED072A55ED072A16ED053A16ED73
:1047F800066A55ED067A55ED055A56ED046A55EDEB
:10480800043A67EE054A22EE224A25EE025A27EEBE
:10481800227A34EEC44A66EE274A26EE256A67EE07
:10482800837A65EE835A37EE057A04ED084A74EE0A
:10483800E55A77EE867A16ED035A04ED077A15EDF8
:10484800037A44ED065A44ED057A56ED027A15EDE1
:10485800026A56ED015A15ED014A67EE864A23EEC3
:10486800853A26EE256A25EE075A65EE845A26EE25
:10487800877A67EE847A66EEA36A37EE037A76EE75
:10488800C56A74EEE55A77EE867A013F44ED046A0C
:1048980004ED037A44ED025A44ED017A06F120064C
:1048A80005F1200504F1200497D14FEA4E14204465
:1048B8002144224413F0030322D00830083108327F
:1048C80050ED027A11ED027A50ED016A51ED015A6C
:1048D80027EE876A26EE877A67EEA57A66EEA56ADE
:1048E80077EE877A76EE666A013B42ED026A42ED20
:1048F800017A00F1080001F1080102F10802DFD194
:10490800F0BD00BFB5EEC00AF1EE10FA2CD4DFED11
:10491800207A20EE270AFDEEC07A32D4F8EEE77A44
:10492800DFED1C6A1C4A30EE670AB7EE007A20EE0B
:10493800260AFCEEC07A17EE903AC3F3080307EE96
:10494800903AF8EE677A02EB830170EE677AD1ED60
:10495800016A91ED000A37EE677A67EEA67A27EECC
:10496800000A30EE270A7047DFED0C7AB4EEE70A4A
:10497800F1EE10FA0BDADFED067A20EE270AFDEEEB
:10498800C07A17EE903A013B07EE903AC6E77047B7
:1049980083F9223E0000004434AC0008CD024CB438
:1049A800DFED1C7A20EE270AF5EE007A30EE270AB2
:1049B800B5EEC00AF1EE10FAFDEEC07A04D517EE96
:1049C800903A013B07EE903AF8EEE77ADFED126A8B
:1049D800124A30EE670AB7EE007A20EE260AFCEE9D
:1049E800C07A17EE903AC3F3080307EE903AF8EE50
:1049F800677A02EB830170EE677AD1ED016A91ED77
:104A0800000A37EE677A67EEA67A27EE000A30EEDC
:104A1800270A704783F9223E0000004434AC00089E
:104A2800F0B55FEA930E33D000F1100601F11005DE
:104A380002F11004774616ED036A15ED034A56EDA8
:104A4800026A55ED024A16ED017A15ED015A56ED46
:104A5800047A55ED045A36EE046A76EEA46A37EE07
:104A6800057A77EEA57A013F04ED036A44ED026A00
:104A780004ED017A44ED047A06F1100605F11005FB
:104A880004F11004D7D14FEA0E14204421442244E3
:104A980013F0030309D0F0EC017AB1EC017A77EE58
:104AA800877A013BE2EC017AF5D1F0BD2DE9F04FB0
:104AB8002DED108B1C469DB0034604339FEDC4BA00
:104AC80019901A928B461B938A46A14607464FEACD
:104AD800DB034FEA430803EB08055C19DE001A19EB
:104AE800009698181946009E1193014407EBC202DC
:104AF80007EBC101BE1907EBC50507EBC40407EBBB
:104B0800C000009F1B0106EB070E1B9F0293043297
:104B180004314FEACB034FF0000CDEED007AD6EDFE
:104B2800006A95ED002A17ED01AAD4ED004A90ED30
:104B3800005A12ED017A51ED010A77EE858A76EE78
:104B4800873A32EE204A3AEE243A33EE846A73EE1C
:104B5800285A36EEC77A75EE866A75EEC65A47ED5C
:104B6800016AC4ED005A92ED009A95ED011AD6ED4E
:104B7800015A91ED006AD7ED002AD4ED011ADEED55
:104B8800016AD0ED019A72EE600A71EE46AA35EE1E
:104B9800C92A37EE600A32EE2A8A37EE207A32EED8
:104BA8006A2A37EEC55A75EE895A60EE0B0A7AEE14
:104BB800644A31EE066A36EEA99A32EEA11A76EE0A
:104BC800E96A72EEE11A28EE0B8A62EE0B2A67EEAA
:104BD8000B7A33EE683A36EE880A75EE868A36EE38
:104BE800C87A33EEC44A74EEE06A74EEA03A35EE41
:104BF800C66A75EE274A71EE495A31EE092A75EEF2
:104C0800677A31EEA21A71EEE22A73EE060A75EEA1
:104C1800C41A36EE875A32EE288A33EE466A34EEE4
:104C2800254A33EE803A36EEC77A71EE645A72EE50
:104C3800E76A32EE682A73EEC03A74EE814A77EE7C
:104C4800A27ADC44E24587ED008A84ED012A1F44FC
:104C5800CEED000A1C4480ED006ACEED011A80ED0D
:104C6800014A9E4486ED003A184441ED013A02EDAE
:104C7800015A85ED007AC6ED015AC1ED004A1E447D
:104C8800C2ED006A1944C5ED017A1A441D443FF685
:104C980044AF119A072A40F2F58108F101018F18F3
:104CA80009EB4908D61908EB090C94190CEB090E05
:104CB8001046019720440EEB0907151807EB090267
:104CC80003921A9A4FEAC90117910A4400990831C8
:104CD80000910299083102911999FF00159701EB8B
:104CE800C40401EBC50501EBC000179F0399D71950
:104CF800C900149110971999009FCF190D97029F19
:104D0800CF194FEACE0E0C97019FCDF858E0043525
:104D1800043001EBC70E08950990169D1A98CDF836
:104D28002CE04FEAC80801EBC60E149ECDF838E017
:104D380045194FEACC0C0F46043441464118CDF8CA
:104D480048C00A9400EB060CCDF84C80159E0695D9
:104D5800129C0591394605190831109C07950F9149
:104D68004FEA0915012100EB060E189504940391EA
:104D780020468946069E90ED00FAD6ED017AD0EDE0
:104D880001BACDED007A0DA8DEED017A059C079DEC
:104D9800D2ED00FA92ED01CACDED017A07C8DCED3B
:104DA800017AD4ED00EA95ED00EAD6ED00DAD4ED0B
:104DB80001AA95ED01AA9EED00DADCED00CADDF846
:104DC8002080099F0A9E0B9D0C9CCDED027A01E084
:104DD800F304353F16ED016A91ED005A57ED019A3B
:104DE800D5ED007A18ED017AD2ED003A94ED003A4B
:104DF80090ED002A92ED010A33EE858A32EE061A0A
:104E080033EE294A77EE874A78EE041A71EE246A5F
:104E180032EE462A31EEA66A77EEC77A82ED006A4C
:104E2800D5ED018A90ED019AD6ED002A98ED007A29
:104E3800D4ED010A91ED016AD7ED005A73EEC53A37
:104E480033EE693A39EE625A78EEC79A38EE444A38
:104E580038EE877A30EEA58A79EE222A75EE698ACD
:104E680032EE279A35EE295A72EE677A30EE062A24
:104E780069EE0B9A70EEE55A32EE089A68EE8B8A64
:104E880032EE482A71EE644A25EE0B5A32EE871A42
:104E980067EE8B7A72EEC72A30EE466A73EE290AFD
:104EA80036EE280A33EE693A32EE647A73EEA79A40
:104EB80036EE686A73EEE77A75EE858A74EE223A02
:104EC80035EEC55A71EEE66A79EE411A39EEA88ACE
:104ED80076EE435A74EE622A74EE824A30EE604AE5
:104EE80079EEE88A30EE800A77EE859A33EE066A24
:104EF80077EEC57A2EEE212A2EEE265A6FEE230A79
:104F08002AEE213A39EE011A6AEE266A2BEE879AC2
:104F18006BEEA33A2FEE077A6FEE841A35EE033A5A
:104F280072EE666A2CEE045A2FEE882A9DED024A2C
:104F380082ED011A77EE633A2CEE088A9DED017A2C
:104F480081ED003A30EE899A32EE052A6DEE220A9A
:104F580031EEC88A67EE222A64EE001A27EE247A18
:104F68002CEEA85A6DEE244A64EE288A9DED004A7C
:104F7800C1ED016A74EEE22A6DEEA94A64EE299A3F
:104F880024EE254A30EE877A74EE844A6EEEA70A3C
:104F98002AEE864A2CEE800A6DEEA55A6AEEA77AAA
:104FA8002EEE866A75EE211A30EE680A75EEE99AD9
:104FB80070EE840A36EE676AD944CA4584ED009AD1
:104FC800C4ED013A1A4407ED017AC7ED002A1944E5
:104FD80080ED002A80ED018A1C4448ED011A88ED15
:104FE800000A1F4446ED014A1844C6ED009A984449
:104FF800C5ED000A85ED016A1E441D443FF6EAAE80
:10500800039A1898013211460392049A02440492B2
:105018001398059A024405921298079A0244079237
:105028001698069A02440692159A9644149A94443D
:105038000F9A08320F920E9A08320E920D9A083281
:105048000D920C9A08320C920B9A08320B920A9A1B
:1050580008320A92099A08320992089A0832089284
:10506800109C11988842224607D01798DDF80C90BA
:1050780021460144109104987CE68346BDF85C9073
:10508800199F24E51DB0BDEC108BBDE8F08F00BF63
:1050980070B50D4E0D4CA41BA4100025A54209D1D6
:1050A8000B4E0C4C01F064FDA41BA4100025A54276
:1050B80005D170BD56F8253098470135EEE756F80A
:1050C800253098470135F2E728D4000828D400088D
:1050D80028D400082CD4000802440346934200D187
:1050E800704703F8011BF9E72DE9FF4755EC104B12
:1050F8000D9FDDF830A0002D0E4691461946B8BF29
:1051080022462B4627F02007BBBF05F100431D466A
:1051180000232D23B8BF1446462F0B7004D0452F0B
:1051280000D10136022100E0032103AB019302AB59
:1051380000933246534645EC104B00F0ADFB472F29
:10514800804602D119F0010F26D0462F08EB060938
:1051580011D198F80030302B0AD1002200232046C4
:105168002946FBF7B5FC18B9C6F10106CAF8006074
:10517800DAF8003099440022002320462946FBF73C
:10518800A7FC38B93022039B994505D9591C0391CE
:105198001A70F8E7CDF80C90039B0E9AA3EB08035E
:1051A8004046136004B0BDE8F087F7B50346002910
:1051B800B8BF494203F8022BB4BF2D222B2209297C
:1051C800427020DD0DF1070217460A2691FBF6F51D
:1051D80006FB15113031092D02F8011C02F1FF34CC
:1051E800294609DC3031023A04F8011CBA421C464F
:1051F80004D3201A03B0F0BD2246E7E712F8011BDA
:1052080003F8011BF2E730221C46114404F8022B74
:105218005970EEE72DE9F04F8DB00C46DDF8588057
:1052280016461F46054601F005F90368049318461B
:10523800FBF726F800230A93D8F8003005900733C7
:1052480023F0070303F1080294F818A0D4F800B07B
:10525800C8F80020D3E90023C4E91223D4E912894D
:1052680029F000430793CDF818804FF0FF32A54B83
:10527800DDE90601FBF75EFC002840F0FB814FF0FA
:10528800FF32A04BDDE90601FBF736FC002840F0B1
:10529800F1810022002340464946FBF723FC10B168
:1052A8002D2384F84330984B984ABAF1470F8CBFA6
:1052B8009046984603232BF00402236122604FF0A6
:1052C8000009009733460BAA2146284600F0E2F968
:1052D800013040F093804FF0FF300DB0BDE8F08F03
:1052E80061684B1C4BF480623FD106236360002346
:1052F80003930AAB029309AB009349EC108B0DF1B1
:1053080023032260CDF804A061682846FFF7ECFE6D
:105318000AF0DF03472B804609D1099BD81C02DB22
:105328006268934257DDAAF1020A5FFA8AFABAF173
:10533800650F099934D80139524604F15000099192
:10534800FFF733FF0A9A8318012A8146236102DC9A
:105358002268D10701D5013323619DF82330002B42
:10536800AFD02D2384F84330ABE7BAF1670F02D0F2
:10537800BAF1470FBBD189B1002303930AAB02935B
:1053880009AB009349EC108B2260CDF804A00DF115
:1053980023032846FFF7A8FE8046BEE70123A5E7BA
:1053A800BAF1660F19D1002963680CDD216113B9C0
:1053B8002268D20702D501330B442361099BA365F8
:1053C8004FF00009C9E713B92268D00701D50233A5
:1053D800F3E70123F1E74FF0670A099B0A9A934222
:1053E80005DB22682361D107E8D50133E5E7002B07
:1053F800D4BFC3F1020301231344DEE723685A052F
:1054080007D42369424631462846B84701302BD194
:1054180061E7BAF1650F40F2E28000220023D4E987
:105428001201FBF755FB00283CD00123384A3146CE
:105438002846B84701303FF44EAF0A9B099A9A4272
:1054480002DB2368D8070FD5059B049A3146284606
:10545800B84701303FF43FAF4FF0000804F11A0994
:105468000A9B013B984512DB23689B0709D54FF03F
:10547800000804F11909E3680B9A9B1A9845C0F2D1
:10548800EE80E0680B9B9842B8BF184625E70123D9
:105498004A4631462846B84701303FF41CAF08F168
:1054A8000108DDE7099B002B34DC0123184A31464B
:1054B8002846B84701303FF40EAF099B23B90A9B31
:1054C80013B92368D907CFD5059B049A31462846D6
:1054D800B84701303FF4FFAE4FF0000904F11A0A53
:1054E800099B5B42994501DB0A9B8BE701235246E6
:1054F80031462846B84701303FF4EDAE09F10109BD
:10550800EEE700BFFFFFEF7FF8D10008FCD10008ED
:1055180008D200080A9AA36D9A42A8BF1A46002A20
:10552800914638DC04F11A034FF0000B29EAE979B7
:105538000693D4F858A0AAEB09039B4533DB0A9BD2
:10554800099A9A423ADB2368DA0737D40A9B099901
:10555800A3EB0A02A3EB01099145A8BF9146B9F153
:10556800000F33DC4FF0000829EAE97904F11A0A40
:10557800099A0A9B9B1AA3EB09039845BFF674AFD7
:105588000123524631462846B84701303FF4A3AEBE
:1055980008F10108ECE71346314642462846B84769
:1055A8000130BFD197E60123069A31462846B8470D
:1055B80001303FF490AE0BF1010BBAE7059B049A5A
:1055C80031462846B8470130C0D184E64B4608EB3F
:1055D8000A0231462846B8470130C3D17BE60A9A09
:1055E800012A01DCDB0737D501234246314628462C
:1055F800B84701303FF46FAE059B049A3146284600
:10560800B84701303FF467AE00220023D4E9120105
:10561800FBF75EFA58B14FF0000804F11A0A0A9B2A
:10562800013B98450DDB4B4604F15002EBE60A9B23
:1056380008F10102013B31462846B8470130F2D152
:1056480049E60123524631462846B84701303FF41F
:1056580042AE08F10108E2E701234246EBE70123E5
:105668004A4631462846B84701303FF434AE08F17F
:10567800010800E742464B4640464946FBF75AFABE
:1056880000283FF42DAE014B014A0EE600D2000877
:1056980004D200082DE9F04791461F468A680B6935
:1056A800DDF820809342B8BF1346C9F8003091F85E
:1056B800432006460C4612B10133C9F8003023686E
:1056C800990642BFD9F800300233C9F8003025687E
:1056D80015F0060507D104F1190AE368D9F8002086
:1056E8009B1A9D4229DB94F843302268003318BF87
:1056F800012392062ED404F1430239463046C047AE
:10570800013021D02368E568D9F8002003F00603AA
:10571800042B08BFAD1AA36822690CBF25EAE575FA
:1057280000259342C4BF9B1AED184FF000091A34A4
:105738004D451BD10020BDE8F0870123524639466C
:105748003046C047013003D14FF0FF30BDE8F08745
:105758000135C2E7E1185A1C302081F84300224481
:1057680094F8451082F843100233C4E70123224617
:1057780039463046C0470130E6D009F10109D7E77C
:105788002DE9F74F03690C699C42804600F382803B
:10579800013C01F114074FEA840E00F1140657F892
:1057A800245056F8240006EB0E03013507EB0E09CA
:1057B8000193B0FBF5F595B34FF0000A3846B446AF
:1057C800D34650F8042B93B205FB03A34FEA134AC0
:1057D8009BB2ABEB0303120CBCF800B005FB02A2B2
:1057E80013FA8BF34FEA124A1FFA82FBDCF8002007
:1057F800CBEB124202EB23429BB243EA02438145C0
:105808004FEA224B4CF8043BDBD256F80E3033B942
:10581800019B043B9E421A4630D3C8F810404046CC
:1058280001F033F8002825DB013530464FF0000E33
:1058380057F8042BD0F800C093B2AEEB0303120C58
:1058480013FA8CF3C2EB1C4202EB23429BB243EAED
:105858000243B9454FEA224E40F8043BE8D256F8D5
:10586800242006EB84032AB9043B9E421A460BD334
:10587800C8F81040284603B0BDE8F08F1268043B12
:10588800002ACAD1013CC5E71268043B002AEFD1BF
:10589800013CEAE70020EEE72DE9F04F57EC106BEA
:1058A80097B0CDE90067466A079104460A920F93BC
:1058B800209D3EB9102000F0CBFD606246608660F6
:1058C8000660C660636A196851B15A684A60012364
:1058D80093408B60204600F002FE636A00221A6043
:1058E800019B002BBFBF01232B60019B23F00043CA
:1058F800B2BF019300232B60DDF80480A84B33EA84
:1059080008031BD10F9A42F20F731360009B23B94F
:10591800C8F31300002800F07885219B53B9A14BE8
:1059280021E0A14B02930833219A1360029817B023
:10593800BDE8F08F9B4B02930333F5E7DDE9006781
:105948000022002330463946FBF7C2F8814660B191
:105958000F9A01231360219B002B00F05385934B72
:10596800219A1360013B0293E0E714AA15A947ECBA
:10597800106B204601F001F8C8F30A558246002D45
:105988007ED0C7F3130343F07F51304641F44011F2
:10599800A5F2FF35CDF848900022854BFAF77CFC3C
:1059A80079A3D3E90023FAF72BFE79A3D3E90023DF
:1059B800FAF774FC064628460F46FAF7BBFD76A3AD
:1059C800D3E90023FAF71CFE02460B463046394657
:1059D800FAF764FC06460F46FBF7C2F80022834636
:1059E800002330463946FBF77DF858B15846FAF798
:1059F800A1FD02460B4630463946FBF769F808B95F
:105A08000BF1FF3BBBF1160F59D86A4901EBCB01EB
:105A1800DDE90023D1E90001FBF782F8002850D026
:105A28000BF1FF3B00230E93149B5D1B6B1E06932B
:105A380045BFC5F101030593002300234CBF06931E
:105A48000593BBF1000F3EDB069BCDF82CB05B4401
:105A5800069300230893079B092B00F2AF80052BC0
:105A6800C4BF043B0793079BA3F10203CCBF0026E6
:105A78000126032B00F2AE80DFE803F082842F7743
:105A8800159B149D1D4405F23243202B11DD009A0D
:105A980005F21240C3F1400322FA00F008FA03F3BA
:105AA8001843FAF737FD0123A1F1F871013D12936C
:105AB80072E7C3F12000009B03FA00F0F1E701232D
:105AC800B1E70E90B0E7059BA3EB0B030593CBF171
