:020000040800F2
:100000000080012035770008857700088577000893
:1000100085770008857700088577000800000000D4
:100020000000000000000000000000004175000812
:10003000857700080000000043750008457500083A
:1000400085770008857700088577000885770008A0
:100050008577000885770008857700088577000890
:100060008577000885770008857700088577000880
:100070008577000849750008557500086175000806
:10008000857700086D75000885770008857700087A
:100090008577000885770008857700088577000850
:1000A0008577000885770008857700088577000840
:1000B0008577000885770008857700088577000830
:1000C0008577000885770008857700088577000820
:1000D000857700088577000879750008857700081E
:1000E0008575000885770008857700088577000802
:1000F00085770008857700088577000885770008F0
:1001000085770008857700088577000885770008DF
:1001100085770008857700088577000885770008CF
:1001200085770008857700088577000885770008BF
:100130008D750008857700088577000885770008A9
:10014000857700088577000885770008857700089F
:10015000857700088577000885770008857700088F
:10016000857700088577000885770008857700087F
:100170008577000885770008857700080000000073
:0801800085770008857700086F
:1001900010B5054C237833B9044B13B10448AFF3C1
:1001A00000800123237010BD4007002000000000E4
:1001B0004CE4000808B5034B1BB103490348AFF3F7
:1001C000008008BD00000000440700204CE4000847
:1001D0004B1C012B98BF70472DE9F003911C9B0825
:1001E000B1F80480B1F802900A8831F802CC80445A
:1001F000814402448444D9F80070D8F8006015683E
:10020000DCF80040C9F80060C8F80070CCF8005075
:100210001460D9F80470D8F804605568DCF804401C
:10022000C9F80460C8F80470CCF804505460083170
:10023000013BD5D1BDE8F00370474B1C012B98BFA3
:1002400070472DE9F003911C9B08B1F80480B1F8C8
:1002500002900A8831F802CC00EB580800EB5909EB
:1002600000EB520200EB5C0CD9F80070D8F800608B
:100270001568DCF80040C9F80060C8F80070CCF8D8
:10028000005014600831013BDFD1BDE8F003704736
:1002900009B900207047C0F3C613C0F38232D318E7
:1002A0005943C91DC908420DC90002F00302430C9D
:1002B000D14003F00F03042B0BD0082B01BFC0F378
:1002C000C612C0F38230821801EB0221C91DC80892
:1002D0007047C0F3C612C0F38230821801EB0211DE
:1002E000C91DC808704710B5044608F0A9FF20468C
:1002F00010BDDFF8140401684908490001600120BD
:10030000DFF80814886088680028FCD1DFF8002432
:100310000A600868DFF8FC13884200D0FEE7A1A05D
:100320007047DFF8E40301684908490001600120D3
:10033000DFF8D813886088680028FCD1DFF8D02364
:100340000A600868DFF8CC13884200D0FEE70FF29D
:10035000DC3210687047DFF8B003016849084900D3
:1003600001600120DFF8A413886088680028FCD1B0
:10037000DFF89C230A600868DFF89813884200D0F1
:10038000FEE70FF2AC3210687047DFF87C030168BB
:100390004908490001600120DFF87013886088680F
:1003A0000028FCD1DFF868230A600868DFF86413CE
:1003B000884200D0FEE70FF27C321068704720B10F
:1003C0000168DFF85423914200D00020DFF8381391
:1003D0000A68520852000A600121DFF83023916058
:1003E00091680029FCD1DFF8283313601168DFF829
:1003F0002423914200D0FEE77047DFF81C13016010
:10040000704708467047704720B10168DFF808233D
:10041000914200D00020BC490A68520852000A608C
:100420000121BA4A916091680029FCD1B84B136050
:100430001168B84A914200D0FEE700281CBF0C307A
:1004400000F08AB90FF200300068704700281CBF26
:100450000C3000F086B9704770B5049D04460598CD
:10046000DBB22D0445EA036545EA00250FF2DC20E6
:100470000668A54801684908490001600120A349B0
:10048000886088680028FCD1A14B0B600868A149EE
:10049000884200D0FEE71CB90FF2B420006870BD9E
:1004A0009D491160226000F055F910B90FF28820C3
:1004B0000BE09A498D4228BF0FF2802005D20FF23F
:1004C000802000F063F918B99EA006680021216021
:1004D000304670BD28B101688F4A914208BF02467C
:1004E00000D0002288490B685B085B000B6001218B
:1004F000864B996099680029FCD1DFF814C2C3F8D3
:1005000000C01968834B994200D0FEE702B1002079
:1005100070472DE9F04381B00A4618B101687E4B5F
:10052000994200D0002078490B685B085B000B60A3
:100530000121764B996099680029FCD1744C1C60AC
:100540001968744B994200D0FEE740B30AB91122F2
:1005500006E0D16909B9132202E0D16841B912223B
:1005600010210C3000F0FDF8002001B0BDE8F08350
:1005700078CA00F1140100F1240781E8780092E8BC
:10058000005387E8005303218160C26B3AB1916840
:1005900050608A4218BF002918BF0A46F7D101B03F
:1005A000BDE8F083000000002DE9F04F83B028B1D2
:1005B0000368594CA34208BF054600D000255248A5
:1005C00003685B085B0003600120504B98609868EB
:1005D0000028FCD14E4C1C6018684E4B984200D04D
:1005E000FEE7002D48D0AB6803F00300032802D0DB
:1005F000302211213CE00F001CBFF868002835D0E4
:10060000788808B9212232E014000BD0E16851B398
:10061000618811B9212213212AE0884202D02122C7
:10062000022125E0D8054CBF02200020590A01F024
:10063000010141EA0008686BA96B06680868009030
:1006400071683068FFF724FE0190009841680068E7
:10065000FFF71EFEF968002C024614BFD4F80CB058
:100660004FF0000B0CE01722132101E0172212219A
:1006700005F10C0000F075F8002003B0BDE8F08F24
:1006800018F0020014BFDFF89890DFF898905FEA46
:10069000C8734CBFDFF888A0DFF88CA07B882B8262
:1006A00000276F8208B9B160F16044B15FEAC87099
:1006B00005D4009BC3F808B00098C0F80CB0688A55
:1006C0002B8A98421CD22C463546019E17468846F6
:1006D000A86832464146C847A860B044204600F0AA
:1006E000D7F8009881683A465846D04700EB070B88
:1006F000608A218A401C608280B28842E8D3254605
:10070000688A03B0BDE8F08F002000E000300240AE
:10071000C2A507F4CDB5E8B50001C0A101000101F3
:10072000E7020008030400080704000803030000B0
:100730000100000001010000301000000110000065
:100740000384048402100000101000000000000068
:1007500010100000012070470146002208680A605E
:10076000704703785FEA036C04D141EA022101601B
:10077000012070470020704710B50446E1688847A3
:10078000A068A04208BF002010BD000000B581B0E5
:1007900060B10178032909D15FF0040263A108F078
:1007A0007DFD401E8041C00F01B000BD002001B0A2
:1007B00000BD000042F21172811A012984BFC91ED6
:1007C0000D2901D90F3945D1801A21D0401E21D0E1
:1007D000801E21D0401E21D0401E21D0401E21D09D
:1007E000401E21D0401E21D0401E21D0401E21D0CD
:1007F000401E21D0401E21D0401E21D0401E21D0BD
:10080000401E21D0401E21D0801E21D012A0704752
:1008100012A0704712A0704727A0704728A0704709
:1008200010A0704710A0704727A070470FA0704716
:1008300027A0704728A070472CA070472DA07047B4
:100840000BA070472DA070472EA0704730A07047B6
:1008500034A0704700A070470000000041444400ED
:10086000424E0000475255004C524E004E4C000084
:10087000534D000042F21171401A012884BFC01E7E
:100880000D2801D90F3801D1012070470020704791
:1008900030B5044681B0E06B58B12064256CE9683E
:1008A00028468847A868A84208BF0020002820647E
:1008B000F4D101B030BD0000434F4E563244000029
:1008C00044454E53450000004C53544D0000000079
:1008D0004E4F524D000000004F5054494D495A456B
:1008E000445F434F4E563244000000005045524D85
:1008F00055544500504F4F4C0000000053504C4998
:100900005400000054494D455F44454C4159000096
:1009100054494D455F444953545249425554454406
:1009200000000000434F4E43415400000384048400
:100930002DE9F04F81B00D9D139CDDF82C900E9E9B
:100940000A98DDF83CB0DDF840C0DDF844E0DDF8A1
:1009500048802F1B09FB07FA371B07FB09F7009795
:1009600088420CBF9FED860AB7EE000A05FB0CF526
:1009700006FB09F706FB0C8606FB09F603EB86036C
:100980000C9EABEB0E0B04FB09F409FB05F5002EE6
:100990000BFB07FB02EB85094ED00D46194632468C
:1009A0004FEA0003D3ED000ABEF1010F60EE800AAA
:1009B0004E4639DBDDF800C07046012C2CDB14F00C
:1009C00003080AD091ED001AD6ED001A361D091D54
:1009D000B8F1010841EE210AF4D1A70800F01C800B
:1009E00091ED002A96ED001AD1ED011AD6ED012AFB
:1009F00042EE010A41EEA20A91ED022A96ED021A98
:100A0000D1ED031AD6ED032A1036103142EE010A59
:100A10007F1E41EEA20AE3D1401E06EB8A0601EBDF
:100A20008C01CAD1CDF800C0C5ED000A2D1D1B1DDB
:100A3000521E01EB8B01B5D101B0BDE8F08F000073
:100A40002DE9F24F84B0149FDDF858B0119D139832
:100A5000159CDDF85CC0DDF83CA0109EDDF84890E8
:100A600009FB07BB114603EB8B0B0E9A049BA5EB0E
:100A70000C0E001B9A420CBF9FED410AB7EE000A14
:100A80007D430AFB05F501EB8501002501EB8A0793
:100A9000B942B6FBFAF60AFB0EFEA9EB0C0800FB06
:100AA00009F0009768D20E920396039A002A5FD04D
:100AB000049B0E9A029003EB8507039BCDF804106C
:100AC00002EB8506D6ED000ADDF80490012C60EEFD
:100AD000800A41DB4FEA0402BCF1010F36DB1CF057
:100AE00003010BD09BED001AD9ED001A491E41EE0F
:100AF000210A0BF1040B09EB8A09F3D15FEA9C0090
:100B000000F024809BED001AD9ED001A09EB8A0150
:100B100041EE210ADBED011A91ED001A01EB8A0189
:100B200041EE810A9BED021AD1ED001A01EB8A0118
:100B300041EE210ADBED031A91ED001A401E41EE51
:100B4000810A0BF1100B01EB8A09DBD1521E09EB74
:100B50008E090BEB880BBFD10298C7ED000A6D1C04
:100B60003F1D361D5B1E0BEB800BABD1029801992C
:100B7000009A091D914298D305B0BDE8F08F00009E
:100B8000000000002DE9F24F84B0DDF84CE0DDF804
:100B900058C018981099129C159D0F9FAEEB0C0E23
:100BA0009246149AB1FBF2F91199CDF80C90091AFA
:100BB00079431E46B7FBF2F304FB03FB0EFB0BFE6F
:100BC000DDF85CB0A7EB0309A4EB000804FB05B457
:100BD0005C4306EB84040E9EDDF810B05E45119E6A
:100BE0000CBF9FED3F0AB7EE000A75436F430AEB57
:100BF0008705002A08FB03F84FF0000A6CD000922A
:100C0000039A002A62D00E9A049FCDF858C002EBD6
:100C10008A06039ACDF808E007EB8A07CDF804505E
:100C2000DDF858E0D6ED000A019DBEF1010F60EE3F
:100C3000800A3BDB012832DB4FEA000C05EB830B1B
:100C40005D4527D294ED001AD5ED001A2D1D241D07
:100C50005D4541EE210A1DD294ED001AD5ED001A32
:100C60002D1D241D5D4541EE210A13D294ED001A7D
:100C7000D5ED001A2D1D241D5D4541EE210A09D236
:100C800094ED001AD5ED001A2D1D241D5D4541EE91
:100C9000210AD7D3BCF1010C05EB8905CED1BEF1F9
:100CA000010E05EB810504EB8804C3D1029DC7ED5D
:100CB000000A3F1D361D521E04EB85040AF1010A8D
:100CC000AED1DDF858C0DDF808E0019D009A521E53
:100CD00005EB8305009293D105B0BDE8F08F0000CD
:100CE000000000002DE9F04F8DB0169C04B90C46B1
:100CF0001E9F1D9EDDF87080DDF880E01F9DDDF8F1
:100D000060C0DDF86490DDF868A0DDF86CB00B9091
:100D1000BF1B1798B8F1010FAEEB050E14D1CDF83B
:100D200024E0089507970190CDF808C00696CDF805
:100D300014B0CDF810A0CDF80C9000940B98FFF7EC
:100D4000F7FD0DB0BDE8F08F804514D1CDF824E05B
:100D5000089507970190CDF808C00696CDF814B015
:100D6000CDF810A0CDF80C9000940B98FFF768FE1A
:100D70000DB0BDE8F08FCDF828E0099508970190F7
:100D8000CDF808C00796CDF81880CDF814B0CDF88E
:100D900010A0CDF80C9000940B98FFF7F3FE0DB067
:100DA000BDE8F08F70470000F0B4049C03EB8405AD
:100DB000203D082C9FEDB40A30D205F12004A34257
:100DC00024D20D7893ED001A02EB85061B1DD6ED9B
:100DD000000AA34200EE810A18D24D7893ED001A62
:100DE00002EB85061B1DD6ED000AA34200EE810A28
:100DF0000CD28D7893ED001A02EB85061B1DC91CE1
:100E0000D6ED000AA34200EE810ADAD3D0ED000A43
:100E100030EE800A80ED000AF0BC704701F0030458
:100E2000032CF3D8DFE804F00337434FEEE79D428D
:100E300080F0DA8005F12004A342E7D20D7893ED2B
:100E4000001A02EB85061B1DD6ED000AA34200EE38
:100E5000810ADBD24D7893ED001A02EB85061B1D4B
:100E6000D6ED000AA34200EE810ACFD28D7893ED31
:100E7000001A02EB85061B1DC91CD6ED000AA34211
:100E800000EE810ADAD3D0ED000A30EE800A80ED60
:100E9000000AF0BC704711F8014B93ED001A02EB09
:100EA00084061B1DD6ED000A00EE810A2D1F11F8E5
:100EB000014B93ED001A02EB84061B1DD6ED000AD0
:100EC00000EE810A2D1F11F8014B93ED001A02EB81
:100ED00084061C1D2D1FD6ED000AA54200EE810AD6
:100EE0004ED3CF7894ED004A94ED013A94ED022A66
:100EF00094ED031A02EB87068F78D6ED000A02EB19
:100F000087064F78D6ED001A02EB87060F78D6EDEC
:100F1000002A02EB870604F11003D6ED003A0C79A3
:100F200003EE840A02EE830A01EE820A02EB8407D2
:100F300000EE810A4C79D7ED000A93ED004AD3ED1B
:100F4000013A93ED023AD3ED032A02EB84078C7940
:100F500097ED001A02EB8407CC79D7ED001A02EB6B
:100F6000840700EE840A083103F1100401EE230A1D
:100F700097ED002A01EE830AA54202EE220AB0D2C2
:100F800005F120039C42BFF441AF0D7894ED001AA7
:100F900002EB8506241DD6ED000A9C4200EE810A74
:100FA000BFF434AF4D7894ED001A02EB8506241D92
:100FB000D6ED000A9C4200EE810ABFF427AF8D787F
:100FC00094ED001A02EB8506241DC91CD6ED000A1B
:100FD0009C4200EE810AD8D3D0ED000A30EE800AA0
:100FE00080ED000AF0BC7047CF7893ED004A93ED96
:100FF000013A93ED022A93ED031A02EB87068F78EC
:10100000D6ED000A02EB87064F78D6ED001A02EB08
:1010100087060F78D6ED002A02EB870603F110044D
:10102000D6ED003A0B7903EE840A02EE830A01EE54
:10103000820A02EB830700EE810A4B79D7ED000AA2
:1010400094ED004AD4ED013A94ED023AD4ED032A2E
:1010500002EB83078B7997ED001A02EB8307CB79BC
:10106000D7ED001A02EB830700EE840A083104F181
:10107000100301EE230A97ED002A01EE830A9D4238
:1010800002EE220AB0D2D5E600000000F0B4049CC3
:1010900065086D0003EB8505AB429FED7C0A2FD2FE
:1010A00011F8016B93ED002A93ED011A06F00F077A
:1010B000360902EB860602EB8707D6ED001AD7ED5C
:1010C000000A083301EE820AAB4200EE810A17D211
:1010D00011F8016B93ED002A93ED011A06F00F074A
:1010E000360902EB860602EB8707D6ED001AD7ED2C
:1010F000000A083301EE820AAB4200EE810ACFD328
:10110000E40709D5097893ED001A090902EB810279
:10111000D2ED000A00EE810AD0ED001A31EE800A0D
:1011200080ED000AF0BC70472DE9F04F05469BB0FA
:10113000686900680168426880680F68D2F800A09A
:10114000D0F800E04068BA680D920028DAF808305C
:101150000193DAF81010DAF80C903C69D7F80C809B
:101160002B8C0C93AE8C0F96EA6A2E8DDEF80C3029
:101170000E9392B2DEF8083000933F68D7F808C0AB
:10118000DEF80070D7F808E0AB691ABF006887681E
:101190000027DAF80000D0F808A0E869002814BF9A
:1011A0000546DFF81457524200290B926BD0764265
:1011B0001996CDF8589015941091DDF838B00B9829
:1011C00015990B9A169C199E4042D8BF0020891A87
:1011D000594528BF5946002C08FB02624BD00294A7
:1011E000CDF838B0019CDDF800901493CDF84CC0D8
:1011F000CDF848E01197189017919346029F7042DE
:10120000D8BF0020A8EB0601494528BF49460A91EE
:101210000990CDF81090CDF80C800294584417999D
:10122000189A129B0891079214990E9A06910592AA
:101230000D99119A019100920D9A1399504301EB67
:10124000800251460020FFF74DFD22465146504690
:10125000A8470C9886197F1E0AEB840A8344CED1D6
:101260000194CDF80090DDF838B0149BDDF84CC047
:10127000DDF848E0119F0B990F9A109C5118641EDD
:101280000B9110949BD11BB0BDE8F08F00000000C3
:101290002DE9F04F0346B5B058690068016842680F
:1012A000D1F800B017688068D0F800A044680BF14E
:1012B000140191E864102DA880E86410DBF80800A0
:1012C0000490B96803913869FA681B92DBF81050F2
:1012D0000D95DBF80C2002921D8C11959A8C198DBE
:1012E0001091B3F82CC0D3F830E05D6BADF804502A
:1012F0009E690C96DAF8081000919D6BDAF80C10D4
:101300000F95DD6B1A951D6C19955D6C1D953E6AE8
:10131000D3F84880DD6C46430596002CFE6918968C
:10132000DBF80060B6681796DAF80060B6680B96CE
:101330001ABF2468D4F808B04FF0000BDC69002C09
:1013400012BF0E94DFF870450E941E6D009C169629
:101350006D42029B3F68BDF80460A3EB0409109B3B
:10136000119C994419FA8EF3D7F808E0059FB3FB56
:10137000F4F40D9B5B1A63449E19B6FBF2F3641CF4
:101380005B1C77440028159700F01881C8F100080D
:10139000CDF8D0802A9314952490149B149D1A9E06
:1013A0002A98002BD8BF00237519A84232BF0746E0
:1013B000149FF7191B98349D002800F0F680DE1B5F
:1013C0003396CDF8ACC0259423932897139522909B
:1013D0001398139B0F9C0028CCBF06460026259827
:1013E000E318984232BF0346139BE3183398F41A6C
:1013F00004FB00FA2398289CA042F0464FF0000915
:1014000080F2C5802B9C239D2C925043041B28986E
:101410002196451B1198279312941F95129A0D9BA4
:10142000129C279E5242D8BF00221B1B8B423ABF00
:101430000D9B1D1B0D46219C109B4443E31A219CD0
:10144000B44280F29980AD1A3295A6EB040C129D3D
:10145000309E049C009FCDF898B075433195CDF82F
:1014600080A0039D029E11901C91CDF8A4E01E92D5
:101470009A46E346319ADDF8BCE0DAF10001D8BFC4
:10148000002101EB0A0C0EFB0C22A6EB0A00B8426D
:1014900017980244269834BFA6EB0A033B4608B9C6
:1014A0004FEA0800DDF830E0DDF8C8C05B1ABEF195
:1014B000010F12D108910993CDF81CC01E99069115
:1014C0001C9905910090049703960295019441465A
:1014D0000B9B0020FFF72CFA28E0A64512D10993B8
:1014E00008910090CDF81CC00497039602950194D2
:1014F00000201C9B1E990593069141460B9BFFF70C
:101500009FFA13E009910A930090CDF820C0049748
:1015100003960295019400201E990C9B0791069357
:101520001C990B9B05914146FFF72CFB0E9B2A460D
:101530004146404698472098DDF858C009F1010916
:10154000484518BF002000902B4629982A4641465E
:10155000E0471198DDF85480BBF1010B824489D13A
:1015600011981C99DDF898B0DDF8A4E0DDF880A0B2
:101570000494039502960097129A2C9B9A18129243
:101580001F9A521E1F927FF449AF11902C9A139804
:10159000199B18181390229B18985B1E864422935F
:1015A0007FF416AFDDF8ACC0259C149B1D9D249ED6
:1015B000EB18761E149324967FF4EFAE35B0BDE899
:1015C000F08F00002DE9F04F89B040690068016894
:1015D00042688068D0F8008044680E68D2F800E065
:1015E000DEF80C00DEF81020B568DEF80810504375
:1015F000D8F8002013684FEA535AC3F3C6190AF00B
:10160000030A5B0C002729FA0AF903F00F03CDF84F
:101610000490042B366814BF082BD768DEF800202E
:10162000D8F81830D2F80890B268002809EB810683
:1016300066D0CDF81C80059406910497009603901F
:10164000079801688868059909B10C68A168049C2D
:10165000002C009C10D1A14547D2A2462E464F46F1
:101660001C46904681460D46002D19BF55F8040BC7
:1016700002900021029128E0A14536D2049C009FEF
:101680009846164682468B46BBF1000F19BF5BF8A1
:10169000040B029000200290019900950429334622
:1016A0002246514602A803D1FFF7F0FC02E000BF3A
:1016B000FFF77AFB029849F8040BB945C244E3D31B
:1016C00004944346324600970FE03346424649466B
:1016D00002A800F0F5FF029847F8040B5745A14413
:1016E000C2D335462346B94642460098069900EBD8
:1016F000810403980094401E02EB850203909FD161
:1017000009B0BDE8F08F00002DE9F04F8AB0154612
:101710008B469A46149BD0F804C0696800915C68B7
:101720000294B3F8009004885E884088BBF80010EB
:10173000BBF80220B5F800E06F88DBF804300593B1
:10174000049300254FFA8AF3002B0CBFA046804675
:10175000012F0CBF00230423BEF1010F04D1012F80
:1017600007D0C6F1000E05E0012F08BF4FF0010EB3
:1017700000D0AE460FFA8EF701974FFA8AF7002F86
:101780000CBFA3468346CB4515D19DF94CE0BEF175
:10179000000F0CBF91468946B1450CD14FFA8AF62D
:1017A000002E0CBF8346A346BEF1000F0CBF0E46B1
:1017B0001646B3456CD06FF002000AB0BDE8F08F5A
:1017C000059D9700089786000796CDF818C0ADF8DC
:1017D00002404446DDF810C04FFA8AF6DDF8188062
:1017E000002E9FED341A0CBF0646BDF80260B6B15C
:1017F0004FFA8AF7002F0CBF0427079FBEF1000F96
:10180000D8ED001A95ED002AB8440CBF089F0427B4
:10181000ED19761EB7B2002F01EE821AE8D120EE44
:10182000011ADBED001A641E00EEA11AA4B2BEF18B
:10183000000F89ED001A0EBF151B0D1B5543002C20
:1018400009F104099B440CEB8505C5D1DDF80C902A
:10185000069DBDF80240CDF810C0099E4E44039687
:101860004FFA8AF6002E0CBF4FEA800C4FF0040CA2
:10187000AC44019D0BEB850BBDF800506E1EADF81E
:101880000060BDF8005055B900200AB0BDE8F08FE7
:10189000DDF800B00395ADF80080CDF8249003AEDC
:1018A000029D3688BEF1000F05EB86090CBF9046FD
:1018B000884685E700000000A50D0008F0B58BB054
:1018C000416909680A68496809680D6814685368BD
:1018D0009268AD68CE680F690995ADF82070ADF8D3
:1018E00022602568E668AD682469ADF81840ADF857
:1018F0001A6007951C68DD68A4681B69ADF8103094
:10190000ADF8125005941368D4689B681269ADF85D
:101910000820ADF80A4008AA0393019202AA90F9A0
:101920002110009104A990F92030D0ED070A90ED24
:10193000060A06A8FFF7E8FE0BB0F0BD2DE9F0415E
:101940000F4614462DED028B022C064697ED008AB9
:10195000DFEDC38A3DD3611E3A1D11F003000CD0A8
:1019600092ED000AB4EE480AF1EE10FA58BFB0EE5C
:10197000408A401E02F10402F2D1890800F02B8057
:1019800092ED000AB4EE480AF1EE10FA58BFB0EE3C
:10199000408A92ED010AB4EE480AF1EE10FA58BFFF
:1019A000B0EE408A92ED020AB4EE480AF1EE10FA67
:1019B00058BFB0EE408A92ED030AB4EE480AF1EE49
:1019C00010FA58BFB0EE408A491E02F11002D7D17A
:1019D00001E0002C40D0B0464FEA040597ED000A24
:1019E00030EE480A0AF0CCFB3F1D88ED000A6D1E60
:1019F00078EE808A08F10408F0D1B7EE000A14F0FE
:101A0000030080EE280A09D0D6ED000A60EE800AB5
:101A1000C6ED000A401E06F10406F5D1A4081BD04D
:101A2000D6ED000A60EE800AC6ED000A641E96ED4F
:101A3000011AD6ED020A21EE001A86ED011A60EEB7
:101A4000800A96ED031AC6ED020A21EE001A86ED11
:101A5000031A06F11006E3D1BDEC028BBDE8F0815C
:101A60002DE9F04381B00C4604EB8209089E099FE2
:101A70004C4580461D460AD22A4621464046FFF77D
:101A80005DFF04EB86044C4508EB8708F4D301B0F6
:101A9000BDE8F08370B50D4605EB8206B5420446FD
:101AA00080F00A8095ED000A0AF0C6F884ED000A7D
:101AB000241D2D1DB542F5D370BD000070B50D4637
:101AC00005EB8206B542044680F0148095ED000ACD
:101AD000B1EE400A0AF054FBF7EE000A70EE200A5D
:101AE000B7EE000A80EE200A84ED000A241D2D1DA9
:101AF000B542EBD370BD000001EB8202914216D2D9
:101B00004FF0FF3391ED000AB5EE400AF1EE10FA06
:101B1000CCBF9FEDC60A00EE103A091D8446B8EE10
:101B2000C00A91420CF104008CED000AEAD3704720
:101B300001EB8202914216D2034691ED001A181D64
:101B4000B4EE410AF1EE10FA58BFB0EE401AB4EE0E
:101B5000601AF1EE10FA58BFB0EE601A091D9142FA
:101B600083ED001AE8D3704701EB820291420FD255
:101B7000034691ED000A181DB5EE400AF1EE10FA89
:101B8000D8BF9FED370A091D914283ED000AEFD3BC
:101B90007047000001EB820291421AD2B1EE080AAE
:101BA0000346D1ED000A181DF5EE400AF1EE10FAD9
:101BB00008DDF4EE400AF1EE10FA58BFF0EE400AEC
:101BC00002E000BFDFED260A091D9142C3ED000AC5
:101BD000E6D37047F0B581B00D4605EB82062DEDDA
:101BE000048BB5420446F0EE408AB0EE608A32D2F1
:101BF000274695ED009A3C1DB5EE409AF1EE10FA9D
:101C00004CBFDFED179AF0EE499AB0EE490A0AF0A0
:101C1000B7FAFFEE000A30EE200A20EE280AB5EEF1
:101C2000400AF1EE10FA05DD9FED0D1A79EE819A6A
:101C30000AE000BFB0EE490A0AF0A2FAFFEE000A7D
:101C400030EE200A40EE289A2D1D28EE290AB542D2
:101C500087ED000ACCD3BDEC048B01B0F0BD0000D1
:101C60000000000001EB8303994220D291ED000AAD
:101C700092ED001AB5EE400AF1EE10FA4CBFDFED1E
:101C8000A50AF0EE400AB1EE400AB5EE400AF1EEC8
:101C900010FA48BF9FED9F0A091D121D844641EEB0
:101CA000400A99420CF10400CCED000ADED37047E3
:101CB000406903681968D1F800C0DCF80420DCF83A
:101CC0000800DCF80C104243DCF81000DCF800C01F
:101CD0004A4359680B684243DCF80800D3F800C057
:101CE000DCF8081000EB820290420FD20B4690ED18
:101CF000000A191DB5EE400AF1EE10FAD8BF9FEDAB
:101D0000850A001D904283ED000AEFD37047000062
:101D1000406903681968D1F800C0DCF80420DCF8D9
:101D20000800DCF80C104243DCF81000DCF800C0BE
:101D30004A4359680B684243DCF80800D3F800C0F6
:101D4000DCF8081000EB820290421AD2B1EE080AC9
:101D50000B46D0ED000A191DF5EE400AF1EE10FA1F
:101D600008DDF4EE400AF1EE10FA58BFF0EE400A3A
:101D700002E000BFDFED670A001D9042C3ED000ADC
:101D8000E6D37047F0B581B02DED048B416990ED3D
:101D9000078A0D68D0ED068A2A681468206863688F
:101DA000A168E2684B4321698468686853434B43E8
:101DB00001680A68956804EB8306B44231D22F4665
:101DC00094ED009A3D1DB5EE409AF1EE10FA4CBF2D
:101DD000DFED509AF0EE499AB0EE490A0AF0D0F9D8
:101DE000FFEE000A30EE200A20EE280AB5EE400A87
:101DF000F1EE10FA04DD9FED471A79EE819A09E0C1
:101E0000B0EE490A0AF0BCF9FFEE000A30EE200AF3
:101E100040EE289A241D28EE290AB44287ED000AD4
:101E2000CDD3BDEC048B01B0F0BD0000010000007B
:101E300030B441690C68226815686B68A968EA6863
:101E400080694B4329692D685343626814684B438A
:101E5000A96825680468AA68A06801EB8303994211
:101E60001FD2144691ED000A221DB5EE400AF1EE94
:101E700010FA4CBFDFED270AF0EE400AB1EE400A3F
:101E8000B5EE400AF1EE10FA48BF9FED220A90ED40
:101E9000001A091D001D41EE400A9942C4ED000AD6
:101EA000DFD330BC70470000406903681968D1F87F
:101EB00000C0DCF80420DCF80800DCF80C10424319
:101EC000DCF81000DCF800C04A4359680B68424354
:101ED000DCF80800D3F800C0DCF8081000EB820240
:101EE000904216D24FF0FF3390ED000AB5EE400A53
:101EF000F1EE10FACCBF9FED080A00EE103A001D7B
:101F00008C46B8EEC00A90420CF104018CED000A38
:101F1000EAD37047000000000100000030B44169BE
:101F200090ED070A0C68D0ED060A226815686B6808
:101F3000A968EA68286880684B43296953434B4382
:101F400061680A681468A16800EB8302904216D2A7
:101F50000B4690ED001A191DF4EE410AF1EE10FA4D
:101F600058BFB0EE601AB4EE401AF1EE10FA58BF46
:101F7000B0EE401A001D904283ED001AE8D330BC49
:101F80007047000070B54069036819680C686268A2
:101F9000A068E168424320692468A4684A43424338
:101FA000586801680B689D6804EB8206B44213D23E
:101FB00094ED000AB1EE400A0AF0E2F8F7EE000AEA
:101FC00070EE200AB7EE000A80EE200A85ED000AC6
:101FD0002D1D241DB442EBD370BD000070B54069C7
:101FE000036819680C686268A068E1684243206968
:101FF0002468A4684A434243586801680B689D6896
:1020000004EB8206B44209D294ED000A09F014FEF2
:1020100085ED000A2D1D241DB442F5D370BD30B5E9
:1020200083B04069046821680D68AA680192009233
:1020300013466868E968424328692D684A43424369
:1020400060680468A9682568A868FFF709FD03B0FF
:1020500030BD000070B401EB8204A14257D2002BC6
:1020600051D013F003020D46064611D096ED000A3A
:10207000D5ED000AF4EE400AF1EE10FA58BFB0EECA
:10208000600A86ED000A521E361D2D1D002AEDD174
:102090009A0838D0D5ED000AD6ED001AF4EE610AA0
:1020A000F1EE10FA48BFF0EE610AC6ED000AD5ED78
:1020B000010AD6ED011A96ED020AF4EE610AF1EE7C
:1020C00010FA48BFF0EE610AC6ED010A95ED021A5A
:1020D000D6ED031AB4EE401AF1EE10FA48BFB0EE96
:1020E000401A86ED021AD5ED030AF4EE610AF1EE0C
:1020F00010FA58BFF0EE601AC6ED031A521E1036E1
:102100001035002AC6D101EB8301A142A7D370BCD0
:102110007047000070B401EB8204A1424FD2002B43
:1021200049D013F003020D4606460ED095ED000A85
:1021300088421CBFD6ED000A30EE800A86ED000A08
:10214000521E361D2D1D002AF0D19A0833D0884228
:10215000D5ED001A0CD1C6ED001A95ED010A86EDF9
:10216000010AD5ED021AC6ED021AD5ED031A1BE0DD
:10217000D6ED000A30EEA10A86ED000A96ED011AAE
:1021800095ED010AD6ED021A31EE000A86ED010A3C
:10219000D5ED020A31EEA00A86ED020A96ED030A99
:1021A00095ED031A70EE011AC6ED031A521E103691
:1021B0001035002ACBD101EB8301A142AFD30399A3
:1021C000A1B300EE101AB8EE400AF7EE000A80EE56
:1021D000800A5BB313F0030100F00A80D0ED000A1F
:1021E00060EE800AC0ED000A491E00F10400F5D13E
:1021F0009B081BD0D0ED000A60EE800AC0ED000AFB
:102200005B1E90ED011AD0ED020A21EE001A80ED5E
:10221000011A60EE800A90ED031AC0ED020A21EE69
:10222000001A80ED031A00F11000E3D170BC704772
:102230002DE9F04F03468EB0586900680168406888
:102240000C68076821693D690991FA680892D4F819
:102250000C80A1689A69D86907905E6A186A0D9621
:102260003F682468D7F808E0DF6A9E6AA4687F4266
:10227000002D009700F0D980019576420C9601FB65
:1022800008F50B95009D009B009F6D42099DCCBFFA
:102290000026009EEB1A079DAB4288BF2B46DF1934
:1022A000089B0C9D002B00F0B78008FB06FACDF8C8
:1022B00028A0CDF80C8002920690059604976842FB
:1022C000039F029ADDF82C80CCBF002028467F1B9C
:1022D000974288BF17460A9A7F193F1A80184843C9
:1022E0004F4304EB800C11B311F0030072466646B5
:1022F00000F0068056F8049B42F8049B401EF9D17A
:10230000880814D096ED000A82ED000A401ED6ED32
:10231000010AC2ED010A96ED020A82ED020AD6ED2B
:10232000030AC2ED030A103210360028EAD10598DC
:10233000049A904266DA1046059A821AE2460AEB3F
:10234000870BDA455AD2002954D011F003005646C3
:10235000F14612D099ED000AD6ED000AF4EE400ADB
:10236000F1EE10FA58BFB0EE600A401E361D89ED3E
:10237000000A002809F10409ECD1880800F03A802D
:10238000D6ED000AD9ED001AF4EE610AF1EE10FA6A
:1023900048BFF0EE610AC9ED000AD6ED010AD9ED99
:1023A000011A99ED020AF4EE610AF1EE10FA48BF43
:1023B000F0EE610AC9ED010A96ED021AD9ED031A91
:1023C000B4EE401AF1EE10FA48BFB0EE401A89EDB3
:1023D000021AD6ED030AF4EE610AF1EE10FA58BFC4
:1023E000F0EE601A401E1036C9ED031A002809F1FC
:1023F0001009C5D10AEB810ADA45A4D3521E0CEBB1
:10240000880C9BD1069845195B1E0EEB810E7FF45C
:1024100056AFDDF80C80029A009D0D9B5D1900956A
:10242000019D6D1E01957FF42DAF0EB0BDE8F08FBC
:102430002DE9F04F94B0416909680A684968156848
:102440000E682A6933690C92F4680B94EA68A968EB
:10245000D0F81880C4690A94D0F820C0476A13974E
:102460002D68876A3468C06AD5F808E0D4F8089007
:102470004042002B019000F020817F4201FB02F4DA
:1024800003931297119401980C9B019E129C404259
:102490000198CCBF0027019F181A0A9B984288BF59
:1024A000184686190B98002800F0FE80054602FBAE
:1024B00007F010900592B81B0F90CDF81080CDF862
:1024C00024C0CDF820E00797069600940295009866
:1024D000059ADDF800E0119C40420098CCBF4FF017
:1024E000000CDDF800C0101A049A904288BF104614
:1024F00086440F98109AACEB0E0545430898624449
:102500004A43AEEB0C0600EB82074E43002289B132
:1025100011F003004B4603D0401E43F8042BFBD1BF
:10252000880807D01A605A609A60DA60401E03F18A
:102530001003F7D10798069B984280F2A3801B1ADC
:10254000AEEB0C000D900E9494460D9884446545B6
:10255000BE460CBF2C4600240EEB8608C6454ED264
:102560000022002947D011F00300F246CB4610D0DC
:102570009AED000AF1451CBFDBED000A30EE800A3F
:10258000521C8BED000A401E0BF1040B0AF1040AE9
:10259000EED1880800F02F800EEB820A09EB820250
:1025A000DAED001AF1451CBF92ED000A70EE211A17
:1025B000C2ED001ADAED011A1CBFD2ED010A70EE6D
:1025C000A11AC2ED011A9AED021A1CBF92ED020A7D
:1025D00030EE011A82ED021ADAED031A1CBFD2EDB9
:1025E000030A70EEA11AC2ED031A401E1032002831
:1025F0000AF1100AD4D10EEB810EC645B0D3002CDF
:102600003AD000EE104AB8EE400AF7EE000A80EE2B
:10261000800A002281B311F003004C4600F00B80C9
:10262000D4ED000A60EE800A521CC4ED000A401E80
:1026300004F10404F4D1880800F01E8009EB820242
:10264000D2ED000A60EE800AC2ED000A401E92ED53
:10265000011AD2ED020A21EE001A82ED011A60EE93
:10266000800A92ED031AC2ED020A21EE001A82EDF1
:10267000031A02F11002E3D10E985B1E07EB8007EC
:102680007FF463AF0098099A1018009009EB810954
:102690000298401E02907FF41AAF059ADDF8108070
:1026A000DDF824C0DDF820E0019C139B1C19019487
:1026B000039C641E03947FF4E6AE14B0BDE8F08F73
:1026C00030B50446084681B011461A4600250095EB
:1026D0006B4600F02DFF94ED000ADDED000A70EE70
:1026E000200AC4ED000A01B030BD0000F0EE400A3F
:1026F000F5EE400AF1EE10FA9FED280A01DBB1EE8B
:10270000E00A704709F03CBD09F0B4BD09F094BA85
:10271000B5EE400AF1EE10FAD8BF9FED200A7047DF
:10272000B5EE400AF1EE10FAD8BF20EE200A70474D
:1027300000B581B0B1EE400A09F022FDF7EE000AC3
:1027400030EE200AB7EE001A81EE000A01B000BD9B
:10275000F0EE400A9FED121AB6EE000A00EE810A72
:10276000DFED100AB4EE600AF1EE10FA07DAB5EE0A
:10277000400AF1EE10FA04D59FED080A7047B7EE53
:10278000000A7047B5EE400AF1EE10FACCBF9FED9B
:10279000060A9FED060AB8EEC00A70470000000066
:1027A000CDCC4C3E0100803F01000000FFFFFFFF49
:1027B000034613F8012B002AFBD1181A0138704781
:1027C00001F0FF01102A2BDB10F0070F08D010F8E2
:1027D000013B013A8B422DD010F0070F42B3F6D1E6
:1027E000F0B441EA012141EA014122F007047FF0FF
:1027F00000070023F0E80256083C85EA010586EA56
:10280000010685FA47F5A3FA87F586FA47F6A5FA91
:1028100087F68EB9EED1F0BC01F0FF0102F007029D
:1028200032B110F8013B013A83EA010313B1F8D148
:102830000020704701387047002D06BF3546033829
:10284000073815F0010F07D1013015F4807F02BF62
:10285000013015F4C03F0130F0BC0138704700BFB3
:1028600081F0004102E000BF83F0004330B54FEA41
:1028700041044FEA430594EA050F08BF90EA020FAE
:102880001FBF54EA000C55EA020C7FEA645C7FEA41
:10289000655C00F0E2804FEA5454D4EB5555B8BF64
:1028A0006D420CDD2C4480EA020281EA030382EAD5
:1028B000000083EA010180EA020281EA0303362D67
:1028C00088BF30BD11F0004F4FEA01314FF4801C3A
:1028D0004CEA113102D0404261EB410113F0004F4C
:1028E0004FEA03334CEA133302D0524263EB430303
:1028F00094EA050F00F0A780A4F10104D5F1200EA1
:102900000DDB02FA0EFC22FA05F2801841F10001FB
:1029100003FA0EF2801843FA05F359410EE0A5F1CF
:1029200020050EF1200E012A03FA0EFC28BF4CF000
:10293000020C43FA05F3C01851EBE37101F00045B6
:1029400007D54FF0000EDCF1000C7EEB00006EEBC3
:102950000101B1F5801F1BD3B1F5001F0CD349084D
:102960005FEA30004FEA3C0C04F101044FEA4452A4
:1029700012F5800F80F09A80BCF1004F08BF5FEA2B
:10298000500C50F1000041EB045141EA050130BD0B
:102990005FEA4C0C404141EB010111F4801FA4F1AE
:1029A0000104E9D191F0000F04BF01460020B1FA03
:1029B00081F308BF2033A3F10B03B3F120020CDA3B
:1029C0000C3208DD02F1140CC2F10C0201FA0CF019
:1029D00021FA02F10CE002F11402D8BFC2F1200C7E
:1029E00001FA02F120FA0CFCDCBF41EA0C01904034
:1029F000E41AA2BF01EB0451294330BD6FEA04047D
:102A00001F3C1CDA0C340EDC04F11404C4F1200267
:102A100020FA04F001FA02F340EA030021FA04F379
:102A200045EA030130BDC4F10C04C4F1200220FAD0
:102A300002F001FA04F340EA0300294630BD21FA0E
:102A400004F0294630BD94F0000F83F4801306BFD4
:102A500081F480110134013D4EE77FEA645C18BFC8
:102A60007FEA655C29D094EA050F08BF90EA020F5F
:102A700005D054EA000C04BF1946104630BD91EA57
:102A8000030F1EBF0021002030BD5FEA545C05D15A
:102A90004000494128BF41F0004130BD14F5800499
:102AA0003CBF01F5801130BD01F0004545F0FE410D
:102AB00041F470014FF0000030BD7FEA645C1ABF42
:102AC000194610467FEA655C1CBF0B46024650EA79
:102AD000013406BF52EA033591EA030F41F40021A5
:102AE00030BD00BF90F0000F04BF0021704730B52B
:102AF0004FF4806404F132044FF000054FF0000100
:102B000050E700BF90F0000F04BF0021704730B5C0
:102B10004FF4806404F1320410F0004548BF404295
:102B20004FF000013EE700BF42004FEAE2014FEAEA
:102B300031014FEA02701FBF12F07F4393F07F4FC5
:102B400081F06051704792F0000F14BF93F07F4FF7
:102B5000704730B54FF4607401F0004521F000413A
:102B600020E700BF50EA010208BF704730B54FF0C0
:102B700000050AE050EA010208BF704730B511F0C5
:102B8000004502D5404261EB41014FF4806404F1FD
:102B900032045FEA915C3FF4DCAE4FF003025FEA7F
:102BA000DC0C18BF03325FEADC0C18BF033202EB07
:102BB000DC02C2F1200300FA03FC20FA02F001FA61
:102BC00003FE40EA0E0021FA02F11444C1E600BF00
:102BD00070B54FF0FF0C4CF4E06C1CEA11541DBFB3
:102BE0001CEA135594EA0C0F95EA0C0F00F0DEF87E
:102BF0002C4481EA030621EA4C5123EA4C5350EA63
:102C0000013518BF52EA033541F4801143F48013B3
:102C100038D0A0FB02CE4FF00005E1FB02E506F044
:102C20000042E0FB03E54FF00006E1FB03569CF099
:102C3000000F18BF4EF0010EA4F1FF04B6F5007F9F
:102C400064F5407404D25FEA4E0E6D4146EB060611
:102C500042EAC62141EA55514FEAC52040EA5E509A
:102C60004FEACE2EB4F1FD0C88BFBCF5E06F1ED844
:102C7000BEF1004F08BF5FEA500E50F1000041EB7B
:102C8000045170BD06F0004646EA010140EA020028
:102C900081EA0301B4EB5C04C2BFD4EB0C0541EA4A
:102CA000045170BD41F480114FF0000E013C00F35F
:102CB000AB8014F1360FDEBF002001F0004170BD83
:102CC000C4F10004203C35DA0C341BDC04F114049C
:102CD000C4F1200500FA05F320FA04F001FA05F228
:102CE00040EA020001F0004221F0004110EBD370F5
:102CF00021FA04F642EB06015EEA430E08BF20EA21
:102D0000D37070BDC4F10C04C4F1200500FA04F3C3
:102D100020FA05F001FA04F240EA020001F0004155
:102D200010EBD37041F100015EEA430E08BF20EAC8
:102D3000D37070BDC4F1200500FA05F24EEA020E10
:102D400020FA04F301FA05F243EA020321FA04F03F
:102D500001F0004121FA04F220EA020000EBD370F6
:102D60005EEA430E08BF20EAD37070BD94F0000FF6
:102D70000FD101F00046400041EB010111F4801F2A
:102D800008BF013CF7D041EA060195F0000F18BFDB
:102D9000704703F00046520043EB030313F4801F17
:102DA00008BF013DF7D043EA0603704794EA0C0FD1
:102DB0000CEA135518BF95EA0C0F0CD050EA4106E7
:102DC00018BF52EA4306D1D181EA030101F0004164
:102DD0004FF0000070BD50EA410606BF104619468C
:102DE00052EA430619D094EA0C0F02D150EA013698
:102DF00013D195EA0C0F05D152EA03361CBF1046D9
:102E000019460AD181EA030101F0004141F0FE4177
:102E100041F470014FF0000070BD41F0FE4141F4FB
:102E2000780170BD70B54FF0FF0C4CF4E06C1CEAFB
:102E300011541DBF1CEA135594EA0C0F95EA0C0FB0
:102E400000F0A7F8A4EB050481EA030E52EA03356B
:102E50004FEA013100F088804FEA03334FF080558C
:102E600045EA131343EA12634FEA022245EA1115B9
:102E700045EA10654FEA00260EF000419D4208BF6A
:102E8000964244F1FD0404F5407402D25B084FEA17
:102E90003202B61A65EB03055B084FEA32024FF4C3
:102EA00080104FF4002CB6EB020E75EB030E22BF20
:102EB000B61A754640EA0C005B084FEA3202B6EBE0
:102EC000020E75EB030E22BFB61A754640EA5C008F
:102ED0005B084FEA3202B6EB020E75EB030E22BF1F
:102EE000B61A754640EA9C005B084FEA3202B6EB20
:102EF000020E75EB030E22BFB61A754640EADC00DF
:102F000055EA060E18D04FEA051545EA16754FEA40
:102F100006164FEAC30343EA52734FEAC2025FEA5E
:102F20001C1CC0D111F4801F0BD141EA00014FF0ED
:102F300000004FF0004CB6E711F4801F04BF0143BE
:102F40000020B4F1FD0C88BFBCF5E06F3FF6AFAEDA
:102F5000B5EB030C04BFB6EB020C5FEA500C50F16A
:102F6000000041EB045170BD0EF0004E4EEA1131ED
:102F700014EB5C04C2BFD4EB0C0541EA045170BDF4
:102F800041F480114FF0000E013C90E645EA060E38
:102F90008DE60CEA135594EA0C0F08BF95EA0C0F66
:102FA0003FF43BAF94EA0C0F0AD150EA01347FF4AE
:102FB00034AF95EA0C0F7FF425AF104619462CE785
:102FC00095EA0C0F06D152EA03353FF4FDAE1046E8
:102FD000194622E750EA410618BF52EA43067FF439
:102FE000C5AE50EA41047FF40DAF52EA43057FF4C9
:102FF000EBAE12E74FF0FF3C06E000BF4FF0010CD4
:1030000002E000BF4FF0010C4DF804CD4FEA410C37
:103010007FEA6C5C4FEA430C18BF7FEA6C5C1BD004
:1030200001B050EA410C0CBF52EA430C91EA030F85
:1030300002BF90EA020F0020704710F1000F91EAE2
:10304000030F58BF994208BF90422CBFD8176FEAB0
:10305000E37040F0010070474FEA410C7FEA6C5C7E
:1030600002D150EA013C07D14FEA430C7FEA6C5C85
:10307000D6D152EA033CD3D05DF8040B704700BFB1
:103080008446104662468C461946634600E000BFFF
:1030900001B5FFF7B7FF002848BF10F1000F01BDD1
:1030A0004DF808EDFFF7F4FF0CBF012000205DF89C
:1030B00008FB00BF4DF808EDFFF7EAFF34BF012021
:1030C00000205DF808FB00BF4DF808EDFFF7E0FFBA
:1030D00094BF012000205DF808FB00BF4DF808ED0B
:1030E000FFF7CEFF94BF012000205DF808FB00BF72
:1030F0004DF808EDFFF7C4FF34BF012000205DF854
:1031000008FB00BF4FEA410C7FEA6C5C02D150EA39
:10311000013C0AD14FEA430C7FEA6C5C02D152EACF
:10312000033C02D14FF0000070474FF001007047A0
:103130004FEA410212F5001215D211D56FF47873DF
:10314000B3EB625212D94FEAC12343F0004343EA82
:10315000505311F0004F23FA02F018BF404270475D
:103160004FF00000704750EA013005D111F00040E7
:1031700008BF6FF0004070474FF00000704700BF7D
:103180004FEA4102B2F1E04324BFB3F5001CDCF189
:10319000FE5C0DD901F0004C4FEAC0024CEA5070C1
:1031A000B2F1004F40EB830008BF20F001007047F0
:1031B00011F0804F21D113F13872BCBF01F00040F3
:1031C000704741F480114FEA5252C2F11802C2F125
:1031D000200C10FA0CF320FA02F018BF40F00100A6
:1031E0004FEAC1234FEAD32303FA0CFC40EA0C0058
:1031F00023FA02F34FEA4303CCE77FEA625307D195
:1032000050EA01331EBF4FF0FE4040F440007047CB
:1032100001F0004040F0FE4040F40000704700BF65
:1032200053B94AB9002908BF00281CBF4FF0FF312D
:103230004FF0FF3000F07AB9ADF1080C6DE904CE23
:1032400000F006F8DDF804E0DDE9022304B0704781
:103250002DE9F0478C460D460446089E002B51D1BF
:103260008A4217466DD9B2FA82FEBEF1000F0BD02A
:10327000CEF1200C01FA0EF520FA0CFC02FA0EF742
:103280004CEA050C00FA0EF44FEA174A250CBCFB79
:10329000FAF81FFA87F90AFB18CC45EA0C4508FB37
:1032A00009F3AB420AD9ED1908F1FF3280F023810E
:1032B000AB4240F22081A8F102083D44ED1AA4B2CD
:1032C000B5FBFAF00AFB105544EA054400FB09F986
:1032D000A14509D9E41900F1FF3380F00A81A14525
:1032E00040F2078102383C44A4EB090440EA08405C
:1032F0000021002E61D024FA0EF4002334607360A4
:10330000BDE8F0878B4207D9002E54D0002186E813
:1033100021000846BDE8F087B3FA83F1002940F0A8
:103320008E80AB4202D3824200F2FA80841A65EBAF
:1033300003050120AC46002E3FD086E81010BDE802
:10334000F08712B90127B7FBF2F7B7FA87FEBEF193
:10335000000F34D1EB1B3A0C1FFA87FC0121B3FBA1
:10336000F2F8250C02FB183345EA03450CFB08F381
:10337000AB4207D9ED1908F1FF3002D2AB4200F29F
:10338000D1808046ED1AA3B2B5FBF2F002FB1055D6
:1033900043EA05440CFB00FCA44507D9E41900F1FD
:1033A000FF3302D2A44500F2B8801846A4EB0C0407
:1033B00040EA08409DE731463046BDE8F087CEF14F
:1033C000200405FA0EF307FA0EF720FA04F83A0C77
:1033D00025FA04F448EA0308B4FBF2F14FEA184571
:1033E00002FB11441FFA87FC45EA044501FB0CF37C
:1033F000AB4200FA0EF409D9ED1901F1FF3080F06B
:103400008A80AB4240F2878002393D44EB1A1FFAB2
:1034100088F5B3FBF2F002FB103345EA034500FBED
:103420000CF3AB4207D9ED1900F1FF386FD2AB4274
:103430006DD902383D44EB1A40EA01418FE7C1F1F2
:10344000200722FA07F88B4005FA01F448EA030343
:1034500020FA07FE4FEA134CFD404EEA040EB5FB7E
:10346000FCF94FEA1E440CFB19551FFA83F844EA95
:10347000054509FB08F4AC4202FA01F200FA01FA30
:1034800008D9ED1809F1FF3043D2AC4241D9A9F176
:1034900002091D442D1B1FFA8EFEB5FBFCF00CFB30
:1034A00010554EEA054400FB08F8A04507D9E4187A
:1034B00000F1FF3529D2A04527D902381C4440EA43
:1034C0000940A4EB0804A0FB02894C45C6464D46C2
:1034D00015D312D056B1BAEB0E0364EB050404FA0F
:1034E00007F7CB401F43CC40376074600021BDE834
:1034F000F0871846F8E69046E0E6C245EAD2B8EB17
:10350000020E69EB03050138E4E72846D7E7404699
:1035100091E78146BEE7014678E702383C4445E73B
:10352000084608E7A8F102083D442BE7704700BFB2
:10353000F0B5DFED1B7A960805460C463746103588
:1035400010345FB93401214402F00302204401EB3E
:10355000820291421CD1C3ED007AF0BD55ED046AA0
:1035600014ED047AE6EE877A013F55ED036A14ED17
:10357000037AE6EE877A55ED026A14ED027AE6EEFA
:10358000877A55ED016A14ED017AE6EE877AD6E77F
:10359000F0EC016AB1EC017AE6EE877AD9E700BF78
:1035A0000000000038B50A4B054618684FF47A73DE
:1035B000B0FBF3F000F092F8044638B90246294611
:1035C0004FF0FF3000F04AF8204638BD012038BDEA
:1035D00068050020094A136843F4807310B503207E
:1035E000136000F029F80020FFF7DCFF044618B94B
:1035F00003F08EFF204610BD0124FBE700200240AF
:10360000024A136801331360704700BF94EE002034
:10361000014B1868704700BF94EE002038B504468F
:10362000FFF7F6FF631C054618BF0134FFF7F0FFF4
:10363000401B8442FAD838BD074AD36823F4E063BC
:103640001B041B0C43F0BF63000243F4003300F47F
:10365000E0600343D360704700ED00E0174B30B5E6
:10366000DC68C4F30224C4F10703251D042B28BF22
:103670000423062D4FF0010505FA03F303F1FF3390
:103680008CBF033C00241940A14005FA04F4013C1E
:103690002240002842EA01024FEA0212AFBF00F1C5
:1036A000604000F00F00064BD2B2A5BF00F56140AC
:1036B000D2B21A5480F8002330BD00BF00ED00E004
:1036C00014ED00E04209012300F01F0003FA00F0AE
:1036D000014B43F82200704700E100E00138B0F1EF
:1036E000807F0AD2064B074A5860F02182F82310E7
:1036F0000020072298601A6070470120704700BFC1
:1037000010E000E000ED00E010B5044608B901202B
:1037100010BD437F03F0FF0213B9027702F0B4FC3F
:10372000022363772379E3B92368134A5A619A68BD
:1037300022F018029A6062792368D2B94FF0FF3202
:103740001A619A68616922F060020A439A609A6875
:10375000A16922F080020A439A6001236377002066
:1037600010BDE268A168204600F008F80028E2D009
:10377000CDE72269E4E700BFB71DC10410B51F23E0
:1037800013F1FF3306D321FA03F4E407F8D5082A2E
:1037900014D009D872B900684161836823F0180316
:1037A0001A438260002010BD102A05D0182A01D1CA
:1037B000062BF0D9012010BD072BFAE70F2BF8E7F5
:1037C00010B5044668B1037903F0FF0213B94271E2
:1037D00002F09CFC0223237100200123206123714D
:1037E00010BD012010BD4379012B30B54FF002030D
:1037F00017D00371036801221C68427101F01005A3
:10380000AA4022431A601A6869B902F03C02042AED
:1038100003D15A6842F001025A6001230371002368
:103820004371184630BD02F47012B2F5802FF4D106
:103830005A6842F00202EFE7F8B5054640790128E0
:103840000E464FF002001146069A54D001246C71C6
:1038500028712C68E6B9A868274FC762274F07630D
:10386000274F47632768042A47F48057276009D009
:10387000082A0AD0002A3CD104F10802276847F43C
:1038800000571AE004F10C02F8E704F11002F5E722
:10389000E8681C4FC7621C4F07631C4F47632768CB
:1038A000042A47F08057276016D0082A17D0F2B9AB
:1038B00004F11402276847F00057276000F0F8FA77
:1038C00000236B7170B92B6806F010011A6801268D
:1038D0008E4016431E60F8BD04F11802EAE704F1B9
:1038E0001C02E7E72B6943F004032B61F8BD0022BB
:1038F000E0E73246C2E7F8BD133900082539000871
:1039000031390008613A0008713A00087B3A000832
:10391000704710B5846A2046FFF7FAFF0123237130
:1039200010BD704708B5806AFFF7FBFF08BD704700
:1039300010B5846A236943F0040323612046FFF72E
:10394000F6FF0123237110BDF8B54379012B04461E
:103950000D4616464FF0020063D00B68207101221D
:10396000042B627125D1002E6CD1FFF751FE074662
:1039700023685B6B1B0455D40120FFF74FFE2368BF
:10398000AA691A64216806F010008A6C40F2FF33BD
:10399000834022EA0302EB6983401A438A64CB6CBA
:1039A000FF22824023EA02032A6A02FA00F003435C
:1039B000CB642B69012B06F01002236808D1996BA8
:1039C0001F20904021EA00006969914001439963FA
:1039D000D96BAE680720904021EA00002968314386
:1039E000EE68314391400143D96319684FF4804038
:1039F000904021EA00011960196840F6FC7090407F
:103A000021EA000069689140014319601968C020EB
:103A100000FA02F221EA02021A6000200123237157
:103A20006071F8BDFFF7F4FDC01B0128A0D9236920
:103A3000032043F0080323612071F8BDFFF7E8FD80
:103A40000128F4D823685B6B002BF7DB0120FFF71C
:103A5000E5FD2368AA695A6494E770477047704788
:103A600010B5846A2046FFF7F8FF0123237110BDCB
:103A700008B5806AFFF7F2FF08BD10B5846A2369B4
:103A800043F0040323612046FFF7E9FF012323717C
:103A900010BD426B036890F84C103AB91A6842F4B2
:103AA00000321A6001291CD102231BE01A6822F09F
:103AB00001021A601A6842F400221A601A68032987
:103AC00042F001021A60EDD1826B1AB91A6842F015
:103AD00002021A6090F84030012B0CBF436C0123A6
:103AE0008364042380F84C3070470000144B9842E4
:103AF00017D02033984216D02033984215D0203367
:103B0000984214D02033984213D02033984212D0D8
:103B10002033984211D0203398420CBF0720002058
:103B20007047002070470120704702207047032033
:103B3000704704207047052070470620704700BF7B
:103B40000060014038B50446002867D00068344D55
:103B5000FFF7CCFF55F82030002B5FD1204602F054
:103B600033FD304B1A6801321A601B68012B19D1E2
:103B70002D4B1A6822F080421A601A68A1680A4325
:103B80001A601A6822F47F021A602279012A05D18C
:103B9000E1681A68013942EA01421A601A6842F083
:103BA00000421A6020686169036823F4714303606E
:103BB000236902680B43A1690B4313430360036845
:103BC000216A23F00F030360E36902680B43134388
:103BD00003608368616AA26A23F45F038360836879
:103BE000013A0B4343EA024383604368226B03F0CC
:103BF00007034360436843EAC203E26A43EA0223DD
:103C00004360036843F080030360012384F8343089
:103C1000FFF76CFF45F82040002038BD012038BD7B
:103C20005C0700207C0700200060014038B5044696
:103C3000002869D00268354B9A4205D140680128B6
:103C400063D0E068012860D000230122236362640E
:103C5000A2642365204602F031FC2368207C1A68A8
:103C600022F400221A60227A012A1A680CBF42F05C
:103C7000005222F000521A60627A012A1A680CBFC0
:103C800042F4001222F400121A601A68E56822F465
:103C9000CE4222F008021A60022D01BF1A68616943
:103CA0000A431A601A6801280CBF42F0100222F081
:103CB00010021A60627C012A1A680CBF42F02002CE
:103CC00022F020021A605A6922F0634202F0FF22B9
:103CD0005A61626A5969013A0A43E1690A43216AF1
:103CE000013942EA01425A6162686263A269A563CE
:103CF000E2631A6884F8400042F001021A6001236E
:103D000084F84C30002038BD012038BD00610140EE
:103D100090F84C30013BDBB2FD2B10B513D8036893
:103D20001C6824F0E06424F480241C6009021C68F0
:103D3000012A01F07F4108BF41F48021214319602D
:103D40000263002010BD012010BD0000F8B513462D
:103D500005460A4651B34BB307683968890225D531
:103D6000416B49B9016B39B9816AC86908B9012B3E
:103D70001CD1C969202919D095F84C6006F0FD06C0
:103D8000012E13D1A86A0D49C1620D494163C16971
:103D90000C4C202918BF0024046307F11C0100F01B
:103DA00087F8044620B1FF2385F84C30012402E057
:103DB0002846FFF76EFE2046F8BD00BFC93D00084B
:103DC000DF3D0008D33D000808B5806A03F026FBFC
:103DD00008BD08B5806A03F00FFB08BD704708B541
:103DE000806A03230365FFF7F9FF08BD30B500289B
:103DF0004ED00168274B99424FF0140440D8264A10
:103E00000A44B2FBF4F292004264A3F20743036453
:103E1000022380F825308468C36805690A68234353
:103E20002B4345692B4385692B43C5692B43056AA1
:103E300022F4FF4222F070022B431343B4F5804F6B
:103E40000B6014D0026C154B9A420CBF14491549F3
:103E5000436C0A6803F01C030F249C4022EA04020E
:103E60000A6042680C6802FA03F323430B600023E4
:103E70000122C36380F8243080F82520184630BD25
:103E8000094B0B44B3FBF4F39B004364074BBEE7C1
:103E9000012030BD07040240F8FFFDBF00000240D2
:103EA000A8000240A8040240F8FBFDBF0004024045
:103EB000F0B590F82440012C38D090F8255001241A
:103EC000EDB2A54280F824404FF000064FF0020406
:103ED0002AD180F825400468C6632668076C26F05E
:103EE00001062660466C06F01C06B5407D606360E6
:103EF00083680568102B036B0BBFA260A160E160B3
:103F0000E2604BB1236843F00E0323602B6843F05B
:103F100001032B600020F0BD236823F0040323601D
:103F2000236843F00A03F0E780F824600220F0BD24
:103F300090F82520022A10B503D00422C263012084
:103F400010BD0268046C1168836B21F00E011160D2
:103F5000116821F001011160426C012102F01C0284
:103F600001FA02F26260002480F8251080F82440F3
:103F700013B19847204610BD184610BD016C426C25
:103F8000036870B402F01C020E681D68042494409B
:103F900026420ED015F0040F0BD01A6892065EBFB1
:103FA0001A6822F004021A60036B4C6073B370BC91
:103FB000184702249440264212D015F0020F0FD069
:103FC0001A68950606D41A6822F00A021A600123BC
:103FD00080F8253000234C6080F82430C36AE5E780
:103FE00008249440344211D02C070FD51C6824F0CB
:103FF0000E041C60012303FA02F24A60C36380F8D6
:104000002530002380F82430436BCFE770BC704725
:104010002DE9F04F85B00B68DFF8A881674C01935C
:104020000023019ADA4002D105B0BDE8F08F0126E5
:10403000019A9E4012EA060E00F0B1804A6822F012
:104040001007022F16D14FEAD30900EB890903F0BC
:10405000070AD9F820504FEA8A0A4FF00F0C0CFAE1
:104060000AFC25EA0C0C0D6905FA0AF545EA0C056F
:10407000C9F820504FEA430C0325D0F800B005FAE8
:104080000CF5ED4302F0030A0BEA050B0AFA0CF9F2
:10409000013F49EA0B09012FC0F8009011D8876849
:1040A00005EA0709CF6807FA0CF747EA09078760AE
:1040B000476827EA0609C2F300179F4047EA090745
:1040C0004760BAF1030F07D1C76A27EA0606C2F3B1
:1040D000C0079F403E43C662C66835408E6806FAF8
:1040E0000CF63543C560D50059D5D8F8605045F079
:1040F0000105C8F86050D8F8605023F0030606F1B7
:10410000804605F0010506F58036039503F0030CA3
:10411000039DB5684FEA8C0C0F2707FA0CF7B0F136
:10412000904F25EA07073CD0254DA8423BD005F526
:104130008065A84239D005F58065A84237D005F5DD
:104140008065A84235D005F58065A84233D005F5D5
:104150008065A84214BF0725062505FA0CF53D43E6
:10416000B56025686FEA0E06D70354BF35404EEAA6
:10417000050525606568970354BF35404EEA05057F
:104180006560A568D70254BF35404EEA0505A560B5
:10419000E568920254BF35404EEA0505E5600133FB
:1041A0003FE70025D9E70125D7E70225D5E7032515
:1041B000D3E70425D1E70525CFE700BF0004014080
:1041C000000400480010024008B5044B5969014240
:1041D00002D0586103F040F908BD00BF000401405F
:1041E000024B186800F4C060704700BF00700040C8
:1041F000174B1A68B0F5007F02F4C0621CD1B2F50B
:10420000007F15D01A6822F4C06242F400721A606E
:10421000104A116832224A430F49B2FBF1F21946A3
:1042200001325869400500D522B94B695B050DD4B0
:1042300000207047013AF4E7B2F5806F1FBF1A689B
:1042400022F4C06242F480621A60F1E703207047F2
:10425000007000406805002040420F0037B51E4D39
:10426000AB6DDA00044618D5FFF7BAFFB0F5007F52
:1042700023D1802C29D9A02C8CBF02200120174AE1
:10428000136823F0070303431360136803F0070365
:10429000181A18BF012003B030BDAB6D43F0805336
:1042A000AB65AB6D03F080530193019BFFF798FF63
:1042B000AB6D23F08053AB65D8E7802C07D808D0CE
:1042C000A4F1700358425841D9E70020D7E70320F2
:1042D000D5E70220D3E700BF0010024000200240D3
:1042E000254B9A68D96812F00C0205D00C2A15D11A
:1042F00001F00301012918D119682048090755BFA9
:10430000D3F894101968C1F30321C1F3031150F8D5
:10431000210082B30C2A09D000207047042A29D03A
:10432000082A174818BF002070470020D968DA68AB
:1043300001F00301C2F30212022902F1010205D0C9
:10434000032912D0D968C1F3062103E0D9680D48CA
:10435000C1F30621DB68B0FBF2F0C3F34163013324
:1043600048435B00B0FBF3F07047D9680448C1F3E1
:104370000621EFE70348704700100240E4080108F7
:1043800000127A000024F4002DE9F743054618B91D
:10439000012003B0BDE8F083A54C0368A668E76878
:1043A000DB0606F00C0607F003073CD51EB10C2E09
:1043B00063D1012F61D12368980702D5AB69002B27
:1043C000E6D02368286A190756BFD4F894302368CA
:1043D0001B0903F0F00383423AD2FFF73FFF0028A6
:1043E000D6D1236843F00803236023682A6A23F0A8
:1043F000F003134323606368EA6923F47F4343EACD
:1044000002236360FFF76CFFA3688A4AC3F30313B8
:10441000D35C03F01F03D840874B18600020FFF7E0
:10442000C1F80028B5D12B68D8075DD42B6899074F
:1044300000F19C802B68180700F1D0802B68590789
:1044400000F1FC80AB6A002B40F065810020A0E702
:10445000236843F008032360236823F0F003034339
:1044600023606368EA6923F47F4343EA02236360BD
:10447000FFF7F4FE0028C5D08AE7AB691BB32368B9
:1044800043F001032360FFF7C3F8804623689A07CF
:1044900011D5236843F00803236023682A6A23F0B8
:1044A000F003134323606368EA6923F47F4343EA1C
:1044B00002236360B7E7FFF7ABF8A0EB0800022820
:1044C000E4D9032065E7236823F001032360FFF7A5
:1044D0009FF8804623689B07A5D5FFF799F8A0EBC6
:1044E00008000228F6D9ECE7082E03D00C2E08D1DC
:1044F000032F06D123689A0398D56B68002B95D1BA
:1045000046E76B68B3F5803F10D1236843F48033EE
:104510002360FFF77DF8804623689B0386D4FFF76E
:1045200077F8A0EB08006428F6D9CAE7B3F5A02F06
:1045300004D1236843F480232360E6E7226822F451
:1045400080322260226822F480222260002BE0D197
:10455000FFF75EF88046236898037FF567AFFFF7A3
:1045600057F8A0EB08006428F5D9AAE7042E03D079
:104570000C2E10D1022F0ED12368590503D5EB68FC
:10458000002B3FF405AF63682A6923F0F85343EA30
:10459000026363604EE7EB687BB1236843F480738A
:1045A0002360FFF735F8074623685A05EBD4FFF779
:1045B0002FF8C01B0228F7D983E7236823F4807300
:1045C0002360FFF725F8074623685B057FF532AFC8
:1045D000FFF71EF8C01B0228F6D972E76B699BB182
:1045E000D4F8943043F00103C4F89430FFF710F886
:1045F0000746D4F894309A073FF520AFFFF708F844
:10460000C01B0228F5D95CE7D4F8943023F00103ED
:10461000C4F89430FEF7FCFF0746D4F894309B07AB
:104620007FF50CAFFEF7F4FFC01B0228F5D948E771
:1046300000100240CC08010868050020A36DD800D6
:1046400029D4A36D43F08053A365A36D03F0805379
:104650000193019B4FF001085D4F3B68D9051DD5C3
:10466000AB68012B2BD1D4F8903043F00103C4F890
:104670009030FEF7CDFF41F288390746D4F89030EC
:104680009B0742D5B8F1000F3FF4DCAEA36D23F0D9
:104690008053A365D6E64FF00008DDE73B6843F49E
:1046A00080733B60FEF7B4FF81463B68DA05D7D4E0
:1046B000FEF7AEFFA0EB09000228F6D901E7052BB3
:1046C00006D1D4F8903043F00403C4F89030CAE720
:1046D000D4F8902022F00102C4F89020D4F8902061
:1046E00022F00402C4F89020002BC2D1FEF790FF04
:1046F00041F288390746D4F890309807C2D5FEF7C2
:1047000087FFC01B4845F6D9DBE6FEF781FFC01BDB
:104710004845B3D9D5E60C2E3FF43AAE022B2368B8
:1047200023F08073236037D1FEF772FF06462368BB
:1047300099012BD46A6BEB6A43EA02232A6B013A94
:1047400043EA0213AA6B120943EA4243EA6B520896
:10475000013A43EA42532A6C5208013A43EA42635F
:10476000E360236843F080732360E36843F0807361
:10477000E360FEF74DFF054623689A013FF566AEFC
:10478000FEF746FF401B0228F6D99AE6FEF740FFE7
:10479000801B0228CBD994E6236813F0205F02BF68
:1047A000E36823F00303E360E36823F0887323F4F2
:1047B0008033E360FEF72CFF054623689B017FF5FD
:1047C00045AEFEF725FF401B0228F6D979E600BF6B
:1047D000007000402DE9F0410E46044610B901205A
:1047E000BDE8F081404A136803F007038B4229D3E8
:1047F0002368D90731D421688A075BD43A4A136801
:1048000003F007039E425DD311F0040F374D64D1CE
:104810000B0706D5AB68226923F4605343EAC20351
:10482000AB60FFF75DFDAB68314AC3F30313BDE82E
:10483000F041D35C03F01F03D8402E4B18600020DA
:10484000FEF7B0BE136823F007030B431360136831
:1048500003F007039942C2D1CAE76268234D032AD5
:104860002B681BD113F0007FB9D0AB6823F0030392
:104870001343AB60FEF7CCFE41F288380746AB68C5
:10488000626803F00C03B3EB820FB4D0FEF7C0FEF6
:10489000C01B4045F3D90320BDE8F081022A02D1B4
:1048A00013F4003FE0E712B913F0020FDCE713F452
:1048B000806FD9E70D4AA068936823F0F0030343A3
:1048C00093609BE7136823F0070333431360136877
:1048D00003F007039E4282D196E7AB68E26823F4B7
:1048E000E0631343AB6093E70020024000100240F6
:1048F000CC08010868050020054B064A9B68C3F3F5
:104900000223D35C044A106803F01F03D8407047A9
:1049100000100240DC08010868050020054B064A2B
:104920009B68C3F3C223D35C044A106803F01F03DF
:10493000D840704700100240DC08010868050020DC
:10494000F8B5454BDA6812F0030F05460E461C46D3
:1049500000682AD0DA6802F0030282423CD1002AC1
:104960003AD0DB686A68C3F302130133934233D150
:10497000236823F080632360FEF74AFE074623681E
:104980001A0132D4AF68002E36D0012E50D12269E0
:10499000286922F4C002400822F4FE42013842EAAB
:1049A000072242EA4052226132E0022810D0032856
:1049B00014D0012810D11B689F0738D5E3686A68B6
:1049C00023F07303013A184340EA0210E060CFE796
:1049D0001B6813F4806FF1D10120F8BD1A689103B0
:1049E000ECD41B6813F4802FF5E7FEF711FEC01B13
:1049F0000228C4D90320F8BD2169EB6821F41F31D6
:104A000021F4407141EA07211B0941EA4341216138
:104A1000236843F080632360FEF7FAFD06462368AF
:104A20001B0113D52369AA69134323610020F8BD34
:104A30002369686923F0C063400823F4FE4301380A
:104A400043EA072343EA40632361E1E7FEF7E0FD21
:104A5000801B0228E3D9CDE700100240F8B53D4B9A
:104A6000DA6812F0030F05460E461C46006828D08F
:104A7000DA6802F0030282423AD1002A38D0DB68B9
:104A80006A68C3F302130133934231D1236823F0E0
:104A900080532360FEF7BCFD074623689A0030D49C
:104AA000A868002E34D06369296923F0C0634908DF
:104AB00023F4FE43013943EA002343EA416363617F
:104AC00032E0022810D0032814D0012810D11B682E
:104AD0009F0738D5E3686A6823F07303013A1843E7
:104AE00040EA0210E060D1E71B6813F4806FF1D157
:104AF0000120F8BD1A689103ECD41B6813F4802FD1
:104B0000F5E7FEF785FDC01B0228C6D90320F8BDD6
:104B10006269EB6822F41F3222F4407242EA0022FA
:104B20001B0942EA43426261236843F080532360D9
:104B3000FEF76EFD064623689B0005D563696A692A
:104B4000134363610020F8BDFEF762FD801B02285D
:104B5000F1D9DBE7001002402DE9F347066816F4AF
:104B60000066044624D0416EB1F5800F2CD002D8E7
:104B7000C1B101261CE0B1F5000F0DD0B1F5400F19
:104B8000F7D14D4A616ED2F8883023F440030B43CD
:104B9000C2F8883000260BE0474AD36843F48033DC
:104BA000D360EEE70430FFF7CBFE06460028E8D0DE
:104BB0002368D80406D5A16EB1F1807F74D008D8DF
:104BC000A9B10126354621E000212030FFF746FF3C
:104BD000EBE7B1F1007F04D0B1F1407FF1D1354670
:104BE00009E0354AD36843F48033D360F7E7201DEA
:104BF000FFF7A6FE0546002D5CD12F4AA16ED2F824
:104C0000883023F040730B43C2F88830236899033F
:104C100040F14F81284FBB6DDA0040F176814FF0B3
:104C20000008DFF89890D9F8003043F48073C9F891
:104C30000030FEF7EDFC8246D9F80030DB053FD5A9
:104C4000002D44D1D7F8903013F4407315D0D4F828
:104C50008420934211D0D7F89030D7F8902042F4B6
:104C60008032C7F89020D7F8902023F4407322F4C4
:104C70008032C7F89020C7F89030D80709D5FEF7E2
:104C8000C7FC41F288390546D7F89030990740F1C2
:104C90000981D7F89030D4F8842023F4407313436B
:104CA000C7F89030354612E0002104F12000FFF7EC
:104CB000D5FE9FE72E46A9E7001002400070004095
:104CC000FEF7A6FCA0EB0A000228B5D90325B8F12F
:104CD000000F03D0BB6D23F08053BB652368DA0758
:104CE00008D59049A06BD1F8882022F00302024336
:104CF000C1F888209F0708D58A49E06BD1F8882041
:104D000022F00C020243C1F888205E0708D58549CD
:104D1000206CD1F8882022F030020243C1F88820AC
:104D2000180708D57F49606CD1F8882022F0C002AE
:104D30000243C1F88820D90608D57A49A06CD1F879
:104D4000882022F440720243C1F888209A0608D5D0
:104D50007449E06CD1F8882022F440620243C1F823
:104D600088209F0508D56F49E06DD1F8882022F48E
:104D700040220243C1F888205E0508D56949206EAB
:104D8000D1F8882022F440120243C1F88820580646
:104D900008D56449206DD1F8882022F4405202439E
:104DA000C1F88820190608D55E49606DD1F88820C1
:104DB00022F440420243C1F88820DA0508D5594957
:104DC000A06DD1F8882022F440320243C1F8882037
:104DD0009B040FD5534AE16ED2F8883023F040632C
:104DE0000B43B1F1006FC2F8883064D1D36843F44B
:104DF0008013D36023681F030FD54A4A216FD2F86E
:104E0000883023F040630B43B1F1006FC2F8883063
:104E10005CD1D36843F48013D36023685E030FD55D
:104E2000404A616FD2F8883023F040630B43B1F100
:104E3000006FC2F8883054D1D36843F48013D36034
:104E40002368580412D53749A26FD1F8883023F06F
:104E500040531343B2F1805FC1F888304CD1022136
:104E6000201DFFF76DFD002818BF054622681104BC
:104E700008D52C49E06FD1F8883023F080430343F4
:104E8000C1F88830D30309D5264AD4F88010D2F867
:104E9000883023F000430B43C2F88830284602B024
:104EA000BDE8F087FEF7B4FB401B48457FF6ECAE4B
:104EB0000CE7354612E7B1F1806F9BD10121201D2F
:104EC000FFF73EFD002818BF054693E7B1F1806F5C
:104ED000A3D10121201DFFF733FD002818BF05468F
:104EE0009BE7B1F1806FABD10121201DFFF728FDB9
:104EF000002818BF0546A3E7B2F1005FB6D1022132
:104F000004F12000FFF7AAFDADE7BB6D43F080532D
:104F1000BB65BB6D03F080530193019B4FF001080B
:104F20007FE600BF00100240022310B580F83D303C
:104F30000368094C99682140062908D09A682240E4
:104F4000B2F5803F1EBF1A6842F001021A600123C9
:104F500080F83D30002010BD07000100304A036892
:104F6000904212D0B0F1804F0FD0A2F5943290420F
:104F70000BD002F58062904207D002F58062904229
:104F800003D002F59432904219D14A6823F070039D
:104F90001343234A90421DD0B0F1804F1AD0A2F59E
:104FA0009432904216D002F58062904212D002F5FF
:104FB000806290420ED002F5943290420AD0194A93
:104FC000904207D002F58062904203D002F58062E1
:104FD000904203D1CA6823F4407313434A6923F013
:104FE0008003134303608B68C3620B6883620C4BBE
:104FF00098420FD003F5006398420BD003F540634D
:10500000984207D003F58063984203D003F580638C
:10501000984201D10B69036301234361704700BFCC
:10502000002C01400040014010B50446A0B190F8AA
:105030003D3003F0FF021BB980F83C2002F0F4FA87
:10504000022384F83D302068211DFFF787FF0123EC
:1050500084F83D30002010BD012010BD90F83C3098
:10506000012B30B54FF002031FD00268104D80F8BD
:105070003D30AA425368946803D005F50065AA4202
:1050800003D14D6823F470032B430D68896823F026
:1050900070032B4324F0800453602143012391606B
:1050A00080F83D30002380F83C30184630BD00BF0A
:1050B000002C014003681A6822F490721A609A6802
:1050C00022F001029A60202380F8723000230366E8
:1050D0007047000090F87230202B49D1002945D04C
:1050E000002A43D090F87030012B41D0012380F882
:1050F00070300023036683684165B3F5805FA0F8D4
:105100005820A0F85A2021D10269EAB940F2FF12D2
:10511000A0F85C2000224267222280F872200268F8
:105120009168B3F5805F41F0010191601CD1036982
:10513000D3B9104B1168036641F49071002380F8D5
:105140007030116018467047FF22E1E723B9026909
:10515000002AF9D07F22DBE7B3F1805FDAD1026960
:10516000002AF7D03F22D3E7034BE3E70120704743
:1051700002207047875200083152000838B50446B3
:10518000134694F87120202A2BD141B33BB394F8F5
:105190007020012A25D0012284F87020A06EA4F886
:1051A000523000252122656784F871200E4AA4F848
:1051B0005030E164C2620D4A02630D4A42632268C4
:1051C00085632832FEF774FE236840221A629A68CB
:1051D00084F8705042F080029A60284638BD012061
:1051E00038BD022038BD00BFF75100082752000823
:1051F000DD520008704708B50368826A1B6813F027
:1052000020030BD1A2F8523013689A6822F0800272
:105210009A601A6842F040021A6008BD1046FFF713
:10522000E9FF08BD704708B5806AFFF7FBFF08BDBE
:1052300090F87220222A38B502681ED1928C446DF3
:10524000B0F85C10651C0A4045652270B0F85A2021
:10525000013A92B2A0F85A20A2B901680C6824F46D
:1052600090740C608C6824F001048C60202180F81C
:105270007210026602F0F2F838BD138B9BB243F055
:105280000803138338BD90F87220222A10B50268F3
:105290001DD1948CB0F85C100C40416D21F8024B8C
:1052A0004165B0F85A10013989B2A0F85A1099B97D
:1052B000146824F490741460946824F001049460D9
:1052C000202280F87220016602F0C8F810BD138B0E
:1052D0009BB243F00803138310BD7047816A08B581
:1052E00091F87130212B0DD10B689A68120609D5FF
:1052F0000022A1F852201A6822F0C0021A6020236E
:1053000081F8713091F87230222B09D10B689B68BB
:105310005B0605D50023A1F85A300846FFF7CAFE00
:105320004B6F43F010034B670846FFF7D6FF08BDED
:105330000368DA69196870B5160704469D680AD1D2
:10534000960664D58E0662D5036E002B00F083802E
:10535000BDE87040184715F0010002D111F4907FAC
:1053600055D0D50707D5CE0505D501251D62656F3A
:1053700045F001056567950706D528B102251D6230
:10538000656F45F004056567560706D528B1042505
:105390001D62656F45F002056567150707D58E0626
:1053A00000D420B108201862636F03436367636F02
:1053B000002B50D0950605D5880603D5236E0BB17A
:1053C00020469847636F1907204604D423689D68D8
:1053D00015F0400517D0FFF76DFE23689A68520656
:1053E0000DD59A68E06E22F040029A6038B11A4BEF
:1053F0008363FEF79DFD70B3E06E836BA8E72046E4
:10540000FFF76BFF70BDFFF768FF656770BDD602E1
:1054100009D5680207D54FF4801220461A62BDE80C
:10542000704000F0FDBA160605D50D0603D5636E73
:105430008BB120468CE750060DD54A060BD51A686D
:1054400022F040021A60202384F871300023636642
:105450002046FFF7CFFE70BD5D54000808B5806A96
:105460000023A0F85A30A0F85230FFF736FF08BDED
:105470000268C169F8B5044683680069156803438A
:1054800060690343BA480B432840034313605368E1
:10549000E06823F4405303435360B64BA0699A423B
:1054A0001CBF236A1843936823F43063034393605B
:1054B000B14B9A4219D103F55843B04AD3F888301A
:1054C00003F00303B1F5004FD35C40F03881082BA3
:1054D00000F28F80DFE813F01A01CA00F9008D0096
:1054E00014018D008D008D003600A54B9A4207D126
:1054F00003F5E633A34AD3F8883003F00C03E1E761
:10550000A14B9A4223D103F5E433D3F8883003F05A
:105510003003102B00F0F1800BD8002B00F0F3804B
:10552000B1F5004F4FF001024FF0000300F0F8809A
:10553000A8E0202B00F0C680302BF1D1B1F5004F50
:1055400040F0B8806068430803F58033C3E08F4BB8
:105550009A421ED103F5E233D3F8883003F0C0033A
:10556000402B00F0BB800AD87BB9824B9A4240F0B6
:10557000CA80FFF7C1F90023B0BB02463AE0802B96
:1055800000F09D80C02B00F0B0807A4B9A42C7D1CA
:105590002FE07F4B9A4211D103F5E033D3F88830E6
:1055A00003F44073B3F5807F00F09880DCD9B3F545
:1055B000007F00F08480B3F5407FE4E76D4B9A42B2
:1055C000AED103F5C833D3F8883003F44063B3F5A4
:1055D000806F00F08380C7D9B3F5006F6FD0B3F54B
:1055E000406FD0E76B480223626802EB42018142C0
:1055F00005D901220023236663661046F8BDB0EB8F
:10560000023FF6D8082B2ED8DFE803F0052D1C2D1D
:10561000242D2D2D2700FFF76FF962684FF480715C
:1056200056080027E1FB0067002330463946FDF7A6
:10563000F7FD0022584BA0F540719942D9D8236854
:10564000D860D7E75548550800230021401941F19B
:105650000001ECE7FEF744FEDFE7500800210023DD
:1056600010F50000F3E701220020E3E7FFF756F909
:105670004EE0FFF741F9626800EB5203B3FBF2F32F
:105680009BB20022A3F110004FF6EF718842B0D810
:105690002168CB60AEE7FFF741F9ECE760684308AB
:1056A00003F5740303F51053B3FBF0F3E8E7FEF7DB
:1056B00017FEE0E76068430803F50043F4E72D4B6D
:1056C0009A428FD0B1F5004FE8D16068430803F1EA
:1056D000F47303F59043B3FBF0F31FE0254B9A42BC
:1056E0000BD1FEF7FDFD042346E7224B9A427FF4DF
:1056F00025AF4FF40040082376E7B1F5004FD6D12F
:10570000FEF7EEFD04E0B1F5004FB2D1FFF7F4F87B
:1057100061684A0802EB4003B3FBF1F39BB200223D
:10572000A3F110004FF6EF7188423FF662AF23F00D
:105730000F012068C3F342030B43C3605AE7082BF1
:105740003FF657AF01A252F823F000BF735600088E
:10575000975600089D560008F3550008AF560008FC
:10576000F3550008F3550008F3550008B556000836
:10577000F369FFEF008000400038014000E50008B9
:105780000044004004E5000800480040004C004090
:10579000005000400024F400FFFC0F00000024F43F
:1057A000436ADA0710B506D50168846A4A6822F4AC
:1057B000003222434A609C0706D50168C46A4A68E1
:1057C00022F4803222434A60590706D50168046BEF
:1057D0004A6822F4802222434A601A0706D50168EB
:1057E000446B4A6822F4004222434A60DC0606D534
:1057F0000168846B8A6822F4805222438A60990689
:1058000006D50168C46B8A6822F4005222438A607C
:105810005A060FD50168046C4A6822F480122243AC
:10582000B4F5801F4A6005D14A68446C22F4C00276
:1058300022434A601B0606D50268816C536823F434
:1058400000230B43536010BD2DE9F041069D044633
:105850000F46164698462168CA6937EA02030CBF0C
:1058600001220022B24202D00020BDE8F0816B1C70
:10587000F2D09DB923681A6822F4D0721A609A682F
:1058800022F001029A60202384F8713084F872308B
:10589000002384F870300320BDE8F081FDF7B8FEE6
:1058A000A0EB08008542D6D2E4E72DE9F3411F467C
:1058B00090F87130202B04460D4690464AD10029BD
:1058C00046D0002A44D090F87030012B42D00123FA
:1058D00080F8703000234367212380F87130FDF792
:1058E00097FEA4F850800646A4F85280B4F85220DF
:1058F000009792B2334652B940212046FFF7A4FFE9
:1059000058B9202384F8713084F8700006E0002232
:1059100080212046FFF798FF18B1032002B0BDE8B0
:10592000F081A3682268B3F5805F0DD123695BB96C
:1059300035F8023BC3F308031385B4F85230013B3A
:105940009BB2A4F85230D1E72B7813850135F4E7E8
:105950000120E3E70220E1E773B50446002646672D
:10596000FDF756FE23681B681A07054617D42368FF
:105970001B685B070AD56FF07E43009300222B461D
:105980004FF480012046FFF75FFFA0B920230020DD
:1059900084F8713084F8700084F872300CE06FF095
:1059A0007E430093324603464FF400112046FFF732
:1059B0004BFF0028DBD0032002B070BD10B50446B9
:1059C00060B390F8713003F0FF021BB980F87020CB
:1059D00001F05CFE2268242384F87130136823F000
:1059E000010313602046FFF743FD012816D0636AC8
:1059F00013B12046FFF7D4FE23685A6822F4904280
:105A00005A609A6822F02A029A601A6842F00102EB
:105A100020461A60BDE81040FFF79EBF012010BD70
:105A2000704700000048704714E500082DE9F04178
:105A3000A0B00F46FAF7C3FC0446002F6DD0002833
:105A40006DD0FAF756FC8046FAF76BFC0690FAF731
:105A500082FC0A90FAF799FC04F124030B900FCB17
:105A600016AE86E80F0004F114030FCB1AAE86E8D9
:105A70000F006168E26B0025002A47D1284B019393
:105A8000284B0293284B0393284B04932848294B17
:105A900007930C90032340208DF820308DF821309F
:105AA000ADF83C00012328208DF822208DF823201A
:105AB0008DF824308DF825308DF826208DF827209C
:105AC000ADF83430ADF83630ADF83830ADF83A30A6
:105AD000ADF83E0010931192ADF84830ADF84A3061
