:020000040800F2
:100000000080012069480008B9480008B948000884
:10001000B9480008B9480008B948000800000000C5
:10002000000000000000000000000000754600080D
:10003000B94800080000000077460008794600082B
:10004000B9480008B9480008B9480008B94800088C
:10005000B9480008B9480008B9480008B94800087C
:10006000B9480008B9480008B9480008B94800086C
:10007000B94800088946000895460008B9480008B4
:10008000B9480008A1460008B9480008B948000866
:10009000B9480008B9480008B9480008B94800083C
:1000A000B9480008B9480008B9480008B94800082C
:1000B000B9480008B9480008B9480008B94800081C
:1000C000B9480008B9480008B9480008B94800080C
:1000D000B9480008B9480008AD460008B94800080A
:1000E000B9460008B9480008B9480008B9480008EE
:1000F000B9480008B9480008B9480008B9480008DC
:10010000B9480008B9480008B9480008B9480008CB
:10011000B9480008B9480008B9480008B9480008BB
:10012000B9480008B9480008B9480008B9480008AB
:10013000C1460008B9480008B9480008B948000895
:10014000B9480008B9480008B9480008B94800088B
:10015000B9480008B9480008B9480008B94800087B
:10016000B9480008B9480008B9480008B94800086B
:10017000B9480008B9480008B94800080000000064
:08018000B9480008B948000865
:1001900010B5054C237833B9044B13B10448AFF3C1
:1001A00000800123237010BDE40100200000000046
:1001B0005CA8000808B5034B1BB103490348AFF323
:1001C000008008BD00000000E80100205CA80008D5
:1001D0004B1C012B98BF70472DE9F003911C9B0825
:1001E000B1F80480B1F802900A8831F802CC80445A
:1001F000814402448444D9F80070D8F8006015683E
:10020000DCF80040C9F80060C8F80070CCF8005075
:100210001460D9F80470D8F804605568DCF804401C
:10022000C9F80460C8F80470CCF804505460083170
:10023000013BD5D1BDE8F00370474B1C012B98BFA3
:1002400070472DE9F003911C9B08B1F80480B1F8C8
:1002500002900A8831F802CC00EB580800EB5909EB
:1002600000EB520200EB5C0CD9F80070D8F800608B
:100270001568DCF80040C9F80060C8F80070CCF8D8
:10028000005014600831013BDFD1BDE8F003704736
:10029000034613F8012B002AFBD1181A01387047C6
:1002A00001F0FF01102A2BDB10F0070F08D010F827
:1002B000013B013A8B422DD010F0070F42B3F6D12B
:1002C000F0B441EA012141EA014122F007047FF044
:1002D00000070023F0E80256083C85EA010586EA9B
:1002E000010685FA47F5A3FA87F586FA47F6A5FAD7
:1002F00087F68EB9EED1F0BC01F0FF0102F00702E3
:1003000032B110F8013B013A83EA010313B1F8D18D
:100310000020704701387047002D06BF354603386E
:10032000073815F0010F07D1013015F4807F02BFA7
:10033000013015F4C03F0130F0BC0138704700BFF8
:1003400081F0004102E000BF83F0004330B54FEA86
:1003500041044FEA430594EA050F08BF90EA020FF3
:100360001FBF54EA000C55EA020C7FEA645C7FEA86
:10037000655C00F0E2804FEA5454D4EB5555B8BFA9
:100380006D420CDD2C4480EA020281EA030382EA1A
:10039000000083EA010180EA020281EA0303362DAC
:1003A00088BF30BD11F0004F4FEA01314FF4801C7F
:1003B0004CEA113102D0404261EB410113F0004F91
:1003C0004FEA03334CEA133302D0524263EB430348
:1003D00094EA050F00F0A780A4F10104D5F1200EE6
:1003E0000DDB02FA0EFC22FA05F2801841F1000141
:1003F00003FA0EF2801843FA05F359410EE0A5F115
:1004000020050EF1200E012A03FA0EFC28BF4CF045
:10041000020C43FA05F3C01851EBE37101F00045FB
:1004200007D54FF0000EDCF1000C7EEB00006EEB08
:100430000101B1F5801F1BD3B1F5001F0CD3490892
:100440005FEA30004FEA3C0C04F101044FEA4452E9
:1004500012F5800F80F09A80BCF1004F08BF5FEA70
:10046000500C50F1000041EB045141EA050130BD50
:100470005FEA4C0C404141EB010111F4801FA4F1F3
:100480000104E9D191F0000F04BF01460020B1FA48
:1004900081F308BF2033A3F10B03B3F120020CDA80
:1004A0000C3208DD02F1140CC2F10C0201FA0CF05E
:1004B00021FA02F10CE002F11402D8BFC2F1200CC3
:1004C00001FA02F120FA0CFCDCBF41EA0C01904079
:1004D000E41AA2BF01EB0451294330BD6FEA0404C2
:1004E0001F3C1CDA0C340EDC04F11404C4F12002AD
:1004F00020FA04F001FA02F340EA030021FA04F3BF
:1005000045EA030130BDC4F10C04C4F1200220FA15
:1005100002F001FA04F340EA0300294630BD21FA53
:1005200004F0294630BD94F0000F83F4801306BF19
:1005300081F480110134013D4EE77FEA645C18BF0D
:100540007FEA655C29D094EA050F08BF90EA020FA4
:1005500005D054EA000C04BF1946104630BD91EA9C
:10056000030F1EBF0021002030BD5FEA545C05D19F
:100570004000494128BF41F0004130BD14F58004DE
:100580003CBF01F5801130BD01F0004545F0FE4152
:1005900041F470014FF0000030BD7FEA645C1ABF87
:1005A000194610467FEA655C1CBF0B46024650EABE
:1005B000013406BF52EA033591EA030F41F40021EA
:1005C00030BD00BF90F0000F04BF0021704730B570
:1005D0004FF4806404F132044FF000054FF0000145
:1005E00050E700BF90F0000F04BF0021704730B506
:1005F0004FF4806404F1320410F0004548BF4042DB
:100600004FF000013EE700BF42004FEAE2014FEA2F
:1006100031014FEA02701FBF12F07F4393F07F4F0A
:1006200081F06051704792F0000F14BF93F07F4F3C
:10063000704730B54FF4607401F0004521F000417F
:1006400020E700BF50EA010208BF704730B54FF005
:1006500000050AE050EA010208BF704730B511F00A
:10066000004502D5404261EB41014FF4806404F142
:1006700032045FEA915C3FF4DCAE4FF003025FEAC4
:10068000DC0C18BF03325FEADC0C18BF033202EB4C
:10069000DC02C2F1200300FA03FC20FA02F001FAA6
:1006A00003FE40EA0E0021FA02F11444C1E600BF45
:1006B00070B54FF0FF0C4CF4E06C1CEA11541DBFF8
:1006C0001CEA135594EA0C0F95EA0C0F00F0DEF8C3
:1006D0002C4481EA030621EA4C5123EA4C5350EAA8
:1006E000013518BF52EA033541F4801143F48013F9
:1006F00038D0A0FB02CE4FF00005E1FB02E506F08A
:100700000042E0FB03E54FF00006E1FB03569CF0DE
:10071000000F18BF4EF0010EA4F1FF04B6F5007FE4
:1007200064F5407404D25FEA4E0E6D4146EB060656
:1007300042EAC62141EA55514FEAC52040EA5E50DF
:100740004FEACE2EB4F1FD0C88BFBCF5E06F1ED889
:10075000BEF1004F08BF5FEA500E50F1000041EBC0
:10076000045170BD06F0004646EA010140EA02006D
:1007700081EA0301B4EB5C04C2BFD4EB0C0541EA8F
:10078000045170BD41F480114FF0000E013C00F3A4
:10079000AB8014F1360FDEBF002001F0004170BDC8
:1007A000C4F10004203C35DA0C341BDC04F11404E1
:1007B000C4F1200500FA05F320FA04F001FA05F26D
:1007C00040EA020001F0004221F0004110EBD3703A
:1007D00021FA04F642EB06015EEA430E08BF20EA66
:1007E000D37070BDC4F10C04C4F1200500FA04F309
:1007F00020FA05F001FA04F240EA020001F000419B
:1008000010EBD37041F100015EEA430E08BF20EA0D
:10081000D37070BDC4F1200500FA05F24EEA020E55
:1008200020FA04F301FA05F243EA020321FA04F084
:1008300001F0004121FA04F220EA020000EBD3703B
:100840005EEA430E08BF20EAD37070BD94F0000F3B
:100850000FD101F00046400041EB010111F4801F6F
:1008600008BF013CF7D041EA060195F0000F18BF20
:10087000704703F00046520043EB030313F4801F5C
:1008800008BF013DF7D043EA0603704794EA0C0F16
:100890000CEA135518BF95EA0C0F0CD050EA41062C
:1008A00018BF52EA4306D1D181EA030101F00041A9
:1008B0004FF0000070BD50EA410606BF10461946D1
:1008C00052EA430619D094EA0C0F02D150EA0136DD
:1008D00013D195EA0C0F05D152EA03361CBF10461E
:1008E00019460AD181EA030101F0004141F0FE41BD
:1008F00041F470014FF0000070BD41F0FE4141F441
:10090000780170BD70B54FF0FF0C4CF4E06C1CEA40
:1009100011541DBF1CEA135594EA0C0F95EA0C0FF5
:1009200000F0A7F8A4EB050481EA030E52EA0335B0
:100930004FEA013100F088804FEA03334FF08055D1
:1009400045EA131343EA12634FEA022245EA1115FE
:1009500045EA10654FEA00260EF000419D4208BFAF
:10096000964244F1FD0404F5407402D25B084FEA5C
:100970003202B61A65EB03055B084FEA32024FF408
:1009800080104FF4002CB6EB020E75EB030E22BF65
:10099000B61A754640EA0C005B084FEA3202B6EB25
:1009A000020E75EB030E22BFB61A754640EA5C00D4
:1009B0005B084FEA3202B6EB020E75EB030E22BF64
:1009C000B61A754640EA9C005B084FEA3202B6EB65
:1009D000020E75EB030E22BFB61A754640EADC0024
:1009E00055EA060E18D04FEA051545EA16754FEA86
:1009F00006164FEAC30343EA52734FEAC2025FEAA4
:100A00001C1CC0D111F4801F0BD141EA00014FF032
:100A100000004FF0004CB6E711F4801F04BF014303
:100A20000020B4F1FD0C88BFBCF5E06F3FF6AFAE1F
:100A3000B5EB030C04BFB6EB020C5FEA500C50F1AF
:100A4000000041EB045170BD0EF0004E4EEA113132
:100A500014EB5C04C2BFD4EB0C0541EA045170BD39
:100A600041F480114FF0000E013C90E645EA060E7D
:100A70008DE60CEA135594EA0C0F08BF95EA0C0FAB
:100A80003FF43BAF94EA0C0F0AD150EA01347FF4F3
:100A900034AF95EA0C0F7FF425AF104619462CE7CA
:100AA00095EA0C0F06D152EA03353FF4FDAE10462D
:100AB000194622E750EA410618BF52EA43067FF47E
:100AC000C5AE50EA41047FF40DAF52EA43057FF40E
:100AD000EBAE12E74FF0FF3C06E000BF4FF0010C19
:100AE00002E000BF4FF0010C4DF804CD4FEA410C7D
:100AF0007FEA6C5C4FEA430C18BF7FEA6C5C1BD04A
:100B000001B050EA410C0CBF52EA430C91EA030FCA
:100B100002BF90EA020F0020704710F1000F91EA27
:100B2000030F58BF994208BF90422CBFD8176FEAF5
:100B3000E37040F0010070474FEA410C7FEA6C5CC3
:100B400002D150EA013C07D14FEA430C7FEA6C5CCA
:100B5000D6D152EA033CD3D05DF8040B704700BFF6
:100B60008446104662468C461946634600E000BF44
:100B700001B5FFF7B7FF002848BF10F1000F01BD16
:100B80004DF808EDFFF7F4FF0CBF012000205DF8E1
:100B900008FB00BF4DF808EDFFF7EAFF34BF012066
:100BA00000205DF808FB00BF4DF808EDFFF7E0FFFF
:100BB00094BF012000205DF808FB00BF4DF808ED50
:100BC000FFF7CEFF94BF012000205DF808FB00BFB7
:100BD0004DF808EDFFF7C4FF34BF012000205DF899
:100BE00008FB00BF4FEA410C7FEA6C5C02D150EA7F
:100BF000013C0AD14FEA430C7FEA6C5C02D152EA15
:100C0000033C02D14FF0000070474FF001007047E5
:100C10004FEA410212F5001215D211D56FF4787324
:100C2000B3EB625212D94FEAC12343F0004343EAC7
:100C3000505311F0004F23FA02F018BF40427047A2
:100C40004FF00000704750EA013005D111F000402C
:100C500008BF6FF0004070474FF00000704700BFC2
:100C60004A0011D212F5001211D20DD56FF478732B
:100C7000B3EB62520ED44FEAC12343F0004343EA80
:100C8000505323FA02F070474FF00000704750EACB
:100C9000013002D14FF0FF3070474FF00000704735
:100CA0004FEA4102B2F1E04324BFB3F5001CDCF18E
:100CB000FE5C0DD901F0004C4FEAC0024CEA5070C6
:100CC000B2F1004F40EB830008BF20F001007047F5
:100CD00011F0804F21D113F13872BCBF01F00040F8
:100CE000704741F480114FEA5252C2F11802C2F12A
:100CF000200C10FA0CF320FA02F018BF40F00100AB
:100D00004FEAC1234FEAD32303FA0CFC40EA0C005C
:100D100023FA02F34FEA4303CCE77FEA625307D199
:100D200050EA01331EBF4FF0FE4040F440007047D0
:100D300001F0004040F0FE4040F40000704700BF6A
:100D400053B94AB9002908BF00281CBF4FF0FF3132
:100D50004FF0FF3000F07AB9ADF1080C6DE904CE28
:100D600000F006F8DDF804E0DDE9022304B0704786
:100D70002DE9F0478C460D460446089E002B51D1C4
:100D80008A4217466DD9B2FA82FEBEF1000F0BD02F
:100D9000CEF1200C01FA0EF520FA0CFC02FA0EF747
:100DA0004CEA050C00FA0EF44FEA174A250CBCFB7E
:100DB000FAF81FFA87F90AFB18CC45EA0C4508FB3C
:100DC00009F3AB420AD9ED1908F1FF3280F0238113
:100DD000AB4240F22081A8F102083D44ED1AA4B2D2
:100DE000B5FBFAF00AFB105544EA054400FB09F98B
:100DF000A14509D9E41900F1FF3380F00A81A1452A
:100E000040F2078102383C44A4EB090440EA084060
:100E10000021002E61D024FA0EF4002334607360A8
:100E2000BDE8F0878B4207D9002E54D0002186E818
:100E300021000846BDE8F087B3FA83F1002940F0AD
:100E40008E80AB4202D3824200F2FA80841A65EBB4
:100E500003050120AC46002E3FD086E81010BDE807
:100E6000F08712B90127B7FBF2F7B7FA87FEBEF198
:100E7000000F34D1EB1B3A0C1FFA87FC0121B3FBA6
:100E8000F2F8250C02FB183345EA03450CFB08F386
:100E9000AB4207D9ED1908F1FF3002D2AB4200F2A4
:100EA000D1808046ED1AA3B2B5FBF2F002FB1055DB
:100EB00043EA05440CFB00FCA44507D9E41900F102
:100EC000FF3302D2A44500F2B8801846A4EB0C040C
:100ED00040EA08409DE731463046BDE8F087CEF154
:100EE000200405FA0EF307FA0EF720FA04F83A0C7C
:100EF00025FA04F448EA0308B4FBF2F14FEA184576
:100F000002FB11441FFA87FC45EA044501FB0CF380
:100F1000AB4200FA0EF409D9ED1901F1FF3080F06F
:100F20008A80AB4240F2878002393D44EB1A1FFAB7
:100F300088F5B3FBF2F002FB103345EA034500FBF2
:100F40000CF3AB4207D9ED1900F1FF386FD2AB4279
:100F50006DD902383D44EB1A40EA01418FE7C1F1F7
:100F6000200722FA07F88B4005FA01F448EA030348
:100F700020FA07FE4FEA134CFD404EEA040EB5FB83
:100F8000FCF94FEA1E440CFB19551FFA83F844EA9A
:100F9000054509FB08F4AC4202FA01F200FA01FA35
:100FA00008D9ED1809F1FF3043D2AC4241D9A9F17B
:100FB00002091D442D1B1FFA8EFEB5FBFCF00CFB35
:100FC00010554EEA054400FB08F8A04507D9E4187F
:100FD00000F1FF3529D2A04527D902381C4440EA48
:100FE0000940A4EB0804A0FB02894C45C6464D46C7
:100FF00015D312D056B1BAEB0E0364EB050404FA14
:1010000007F7CB401F43CC40376074600021BDE838
:10101000F0871846F8E69046E0E6C245EAD2B8EB1B
:10102000020E69EB03050138E4E72846D7E740469E
:1010300091E78146BEE7014678E702383C4445E740
:10104000084608E7A8F102083D442BE7704700BFB7
:1010500038B50A4B054618684FF47A73B0FBF3F0C5
:1010600000F092F8044638B9024629464FF0FF30A6
:1010700000F04AF8204638BD012038BD0C000020A1
:10108000094A136843F4807310B50320136000F01D
:1010900029F80020FFF7DCFF044618B903F0A4FA92
:1010A000204610BD0124FBE700200240024A1368DD
:1010B00001331360704700BF9C340120014B186856
:1010C000704700BF9C34012038B50446FFF7F6FF97
:1010D000631C054618BF0134FFF7F0FF401B844234
:1010E000FAD838BD074AD36823F4E0631B041B0C0D
:1010F00043F0BF63000243F4003300F4E0600343B5
:10110000D360704700ED00E0174B30B5DC68C4F3E6
:101110000224C4F10703251D042B28BF0423062D38
:101120004FF0010505FA03F303F1FF338CBF033CD5
:1011300000241940A14005FA04F4013C2240002893
:1011400042EA01024FEA0212AFBF00F1604000F034
:101150000F00064BD2B2A5BF00F56140D2B21A54BF
:1011600080F8002330BD00BF00ED00E014ED00E08A
:101170004209012300F01F0003FA00F0014B43F87D
:101180002200704700E100E00138B0F1807F0AD210
:10119000064B074A5860F02182F8231000200722EE
:1011A00098601A6070470120704700BF10E000E0AF
:1011B00000ED00E0044B1A6804280CBF42F0040262
:1011C00022F004021A60704710E000E0704708B592
:1011D000FFF7FCFF08BD10B5044668B1037903F0C2
:1011E000FF0213B9427102F061F90223237100205A
:1011F00001232061237110BD012010BD4379012B13
:1012000030B54FF0020317D00371036801221C6848
:10121000427101F01005AA4022431A601A6869B9A8
:1012200002F03C02042A03D15A6842F001025A60DB
:101230000123037100234371184630BD02F470127C
:10124000B2F5802FF4D15A6842F00202EFE70000B5
:10125000F8B50546407901280E464FF002001146C8
:10126000069A54D001246C7128712C68E6B9A868DC
:10127000274FC762274F0763274F47632768042A12
:1012800047F48057276009D0082A0AD0002A3CD1A9
:1012900004F10802276847F400571AE004F10C0231
:1012A000F8E704F11002F5E7E8681C4FC7621C4F2D
:1012B00007631C4F47632768042A47F0805727605D
:1012C00016D0082A17D0F2B904F11402276847F0A3
:1012D0000057276000F0F8FA00236B7170B92B6893
:1012E00006F010011A6801268E4016431E60F8BDF4
:1012F00004F11802EAE704F11C02E7E72B6943F066
:1013000004032B61F8BD0022E0E73246C2E7F8BDD6
:101310002B1300083D130008491300087914000836
:101320008914000893140008704710B5846A204699
:10133000FFF7FAFF0123237110BD704708B5806ADB
:10134000FFF7FBFF08BD704710B5846A236943F0BF
:10135000040323612046FFF7F6FF0123237110BD2C
:10136000F8B54379012B04460D4616464FF00200AE
:1013700063D00B6820710122042B627125D1002EED
:101380006CD1FFF79BFE074623685B6B1B0455D4AB
:101390000120FFF799FE2368AA691A64216806F004
:1013A00010008A6C40F2FF33834022EA0302EB69AB
:1013B00083401A438A64CB6CFF22824023EA0203F3
:1013C0002A6A02FA00F00343CB642B69012B06F072
:1013D0001002236808D1996B1F20904021EA000079
:1013E0006969914001439963D96BAE6807209040C9
:1013F00021EA000029683143EE68314391400143FE
:10140000D96319684FF48040904021EA00011960C7
:10141000196840F6FC70904021EA0000696891402C
:10142000014319601968C02000FA02F221EA0202A1
:101430001A600020012323716071F8BDFFF73EFEA2
:10144000C01B0128A0D92369032043F008032361AE
:101450002071F8BDFFF732FE0128F4D823685B6BDA
:10146000002BF7DB0120FFF72FFE2368AA695A64DF
:1014700094E770477047704710B5846A2046FFF7BD
:10148000F8FF0123237110BD08B5806AFFF7F2FF52
:1014900008BD10B5846A236943F004032361204624
:1014A000FFF7E9FF0123237110BD426B036890F839
:1014B0004C103AB91A6842F400321A6001291CD162
:1014C00002231BE01A6822F001021A601A6842F433
:1014D00000221A601A68032942F001021A60EDD155
:1014E000826B1AB91A6842F002021A6090F8403012
:1014F000012B0CBF436C01238364042380F84C3020
:1015000070470000144B984217D02033984216D0F1
:101510002033984215D02033984214D0203398427B
:1015200013D02033984212D02033984211D0203368
:1015300098420CBF07200020704700207047012010
:101540007047022070470320704704207047052031
:1015500070470620704700BF0060014038B5044660
:10156000002867D00068344DFFF7CCFF55F82030D5
:10157000002B5FD1204602F0B9F8304B1A680132D7
:101580001A601B68012B19D12D4B1A6822F080427A
:101590001A601A68A1680A431A601A6822F47F0266
:1015A0001A602279012A05D1E1681A68013942EAF4
:1015B00001421A601A6842F000421A6020686169AC
:1015C000036823F471430360236902680B43A16934
:1015D0000B43134303600368216A23F00F03036086
:1015E000E36902680B43134303608368616AA26A7C
:1015F00023F45F0383608368013A0B4343EA0243A9
:1016000083604368226B03F007034360436843EA47
:10161000C203E26A43EA02234360036843F08003A3
:101620000360012384F83430FFF76CFF45F8204055
:10163000002038BD012038BD00020020200200201B
:101640000060014038B50446002869D00268354B77
:101650009A4205D14068012863D0E068012860D033
:101660000023012223636264A2642365204601F003
:10167000CFFF2368207C1A6822F400221A60227AA5
:10168000012A1A680CBF42F0005222F000521A6080
:10169000627A012A1A680CBF42F4001222F4001286
:1016A0001A601A68E56822F4CE4222F008021A6035
:1016B000022D01BF1A6861690A431A601A6801287D
:1016C0000CBF42F0100222F010021A60627C012A64
:1016D0001A680CBF42F0200222F020021A605A69F8
:1016E00022F0634202F0FF225A61626A5969013AAC
:1016F0000A43E1690A43216A013942EA01425A6117
:1017000062686263A269A563E2631A6884F84000B4
:1017100042F001021A60012384F84C30002038BDE9
:10172000012038BD0061014090F84C30013BDBB234
:10173000FD2B10B513D803681C6824F0E06424F472
:1017400080241C6009021C68012A01F07F4108BF47
:1017500041F48021214319600263002010BD012063
:1017600010BD0000F8B5134605460A4651B34BB309
:1017700007683968890225D5416B49B9016B39B9C8
:10178000816AC86908B9012B1CD1C969202919D0FF
:1017900095F84C6006F0FD06012E13D1A86A0D499C
:1017A000C1620D494163C1690C4C202918BF002456
:1017B000046307F11C0100F087F8044620B1FF2301
:1017C00085F84C30012402E02846FFF76EFE2046E3
:1017D000F8BD00BFE1170008F7170008EB17000875
:1017E00008B5806A02F0B8FE08BD08B5806A02F04C
:1017F000A5FE08BD704708B5806A03230365FFF79F
:10180000F9FF08BD30B500284ED00168274B99423A
:101810004FF0140440D8264A0A44B2FBF4F2920076
:101820004264A3F207430364022380F825308468EE
:10183000C36805690A6823432B4345692B438569BF
:101840002B43C5692B43056A22F4FF4222F0700244
:101850002B431343B4F5804F0B6014D0026C154B2F
:101860009A420CBF14491549436C0A6803F01C03E3
:101870000F249C4022EA04020A6042680C6802FAC3
:1018800003F323430B6000230122C36380F8243059
:1018900080F82520184630BD094B0B44B3FBF4F308
:1018A0009B004364074BBEE7012030BD07040240A4
:1018B000F8FFFDBF00000240A8000240A80402405B
:1018C000F8FBFDBF00040240F0B590F82440012C65
:1018D00038D090F825500124EDB2A54280F824407C
:1018E0004FF000064FF002042AD180F8254004682A
:1018F000C6632668076C26F001062660466C06F073
:101900001C06B5407D60636083680568102B036B1F
:101910000BBFA260A160E160E2604BB1236843F0BD
:101920000E0323602B6843F001032B600020F0BD01
:10193000236823F004032360236843F00A03F0E7DD
:1019400080F824600220F0BD90F82520022A10B50E
:1019500003D00422C263012010BD0268046C116828
:10196000836B21F00E011160116821F001011160FB
:10197000426C012102F01C0201FA02F262600024B2
:1019800080F8251080F8244013B19847204610BDF8
:10199000184610BD016C426C036870B402F01C0262
:1019A0000E681D680424944026420ED015F0040FE2
:1019B0000BD01A6892065EBF1A6822F004021A6001
:1019C000036B4C6073B370BC1847022494402642EA
:1019D00012D015F0020F0FD01A68950606D41A68B7
:1019E00022F00A021A60012380F8253000234C609F
:1019F00080F82430C36AE5E708249440344211D0CB
:101A00002C070FD51C6824F00E041C60012303FA78
:101A100002F24A60C36380F82530002380F8243046
:101A2000436BCFE770BC70472DE9F04F85B00B6872
:101A3000DFF8A881674C01930023019ADA4002D1B4
:101A400005B0BDE8F08F0126019A9E4012EA060E0D
:101A500000F0B1804A6822F01007022F16D14FEA39
:101A6000D30900EB890903F0070AD9F820504FEA9F
:101A70008A0A4FF00F0C0CFA0AFC25EA0C0C0D69CF
:101A800005FA0AF545EA0C05C9F820504FEA430C5F
:101A90000325D0F800B005FA0CF5ED4302F0030A77
:101AA0000BEA050B0AFA0CF9013F49EA0B09012F71
:101AB000C0F8009011D8876805EA0709CF6807FACF
:101AC0000CF747EA09078760476827EA0609C2F367
:101AD00000179F4047EA09074760BAF1030F07D193
:101AE000C76A27EA0606C2F3C0079F403E43C662A4
:101AF000C66835408E6806FA0CF63543C560D500D9
:101B000059D5D8F8605045F00105C8F86050D8F8AC
:101B1000605023F0030606F1804605F0010506F546
:101B20008036039503F0030C039DB5684FEA8C0CD7
:101B30000F2707FA0CF7B0F1904F25EA07073CD0C2
:101B4000254DA8423BD005F58065A84239D005F562
:101B50008065A84237D005F58065A84235D005F5E7
:101B60008065A84233D005F58065A84214BF0725DB
:101B7000062505FA0CF53D43B56025686FEA0E06AB
:101B8000D70354BF35404EEA0505256065689703C5
:101B900054BF35404EEA05056560A568D70254BFBD
:101BA00035404EEA0505A560E568920254BF354010
:101BB0004EEA0505E56001333FE70025D9E7012539
:101BC000D7E70225D5E70325D3E70425D1E7052587
:101BD000CFE700BF000401400004004800100240AD
:101BE00008B5044B5969014202D0586102F0CEFC9D
:101BF00008BD00BF00040140024B186800F4C0603B
:101C0000704700BF00700040174B1A68B0F5007FA6
:101C100002F4C0621CD1B2F5007F15D01A6822F41C
:101C2000C06242F400721A60104A116832224A43BC
:101C30000F49B2FBF1F2194601325869400500D54F
:101C400022B94B695B050DD400207047013AF4E7D7
:101C5000B2F5806F1FBF1A6822F4C06242F480623E
:101C60001A60F1E703207047007000400C0000206C
:101C700040420F0037B51E4DAB6DDA00044618D553
:101C8000FFF7BAFFB0F5007F23D1802C29D9A02C13
:101C90008CBF02200120174A136823F00703034377
:101CA0001360136803F00703181A18BF012003B06C
:101CB00030BDAB6D43F08053AB65AB6D03F080532B
:101CC0000193019BFFF798FFAB6D23F08053AB6549
:101CD000D8E7802C07D808D0A4F1700358425841A7
:101CE000D9E70020D7E70320D5E70220D3E700BFDC
:101CF0000010024000200240254B9A68D96812F07B
:101D00000C0205D00C2A15D101F00301012918D1CC
:101D100019682048090755BFD3F894101968C1F312
:101D20000321C1F3031150F8210082B30C2A09D01A
:101D300000207047042A29D0082A174818BF00201D
:101D400070470020D968DA6801F00301C2F302127B
:101D5000022902F1010205D0032912D0D968C1F38A
:101D6000062103E0D9680D48C1F30621DB68B0FB0A
:101D7000F2F0C3F34163013348435B00B0FBF3F07F
:101D80007047D9680448C1F30621EFE7034870475C
:101D900000100240D8A8000800127A000024F400C5
:101DA0002DE9F743054618B9012003B0BDE8F083DB
:101DB000A54C0368A668E768DB0606F00C0607F08A
:101DC00003073CD51EB10C2E63D1012F61D12368CE
:101DD000980702D5AB69002BE6D02368286A19075B
:101DE00056BFD4F8943023681B0903F0F0038342F4
:101DF0003AD2FFF73FFF0028D6D1236843F008030B
:101E0000236023682A6A23F0F00313432360636886
:101E1000EA6923F47F4343EA02236360FFF76CFF20
:101E2000A3688A4AC3F30313D35C03F01F03D840AB
:101E3000874B18600020FFF70BF90028B5D12B68FD
:101E4000D8075DD42B68990700F19C802B68180790
:101E500000F1D0802B68590700F1FC80AB6A002BA1
:101E600040F065810020A0E7236843F00803236069
:101E7000236823F0F003034323606368EA6923F4D3
:101E80007F4343EA02236360FFF7F4FE0028C5D0D6
:101E90008AE7AB691BB3236843F001032360FFF7B4
:101EA0000DF9804623689A0711D5236843F008038B
:101EB000236023682A6A23F0F003134323606368D6
:101EC000EA6923F47F4343EA02236360B7E7FFF73D
:101ED000F5F8A0EB08000228E4D9032065E72368A1
:101EE00023F001032360FFF7E9F8804623689B078E
:101EF000A5D5FFF7E3F8A0EB08000228F6D9ECE738
:101F0000082E03D00C2E08D1032F06D123689A0384
:101F100098D56B68002B95D146E76B68B3F5803F89
:101F200010D1236843F480332360FFF7C7F880465D
:101F300023689B0386D4FFF7C1F8A0EB0800642850
:101F4000F6D9CAE7B3F5A02F04D1236843F4802360
:101F50002360E6E7226822F480322260226822F4BD
:101F600080222260002BE0D1FFF7A8F8804623688A
:101F700098037FF567AFFFF7A1F8A0EB080064288E
:101F8000F5D9AAE7042E03D00C2E10D1022F0ED1C2
:101F90002368590503D5EB68002B3FF405AF636850
:101FA0002A6923F0F85343EA026363604EE7EB6863
:101FB0007BB1236843F480732360FFF77FF8074603
:101FC00023685A05EBD4FFF779F8C01B0228F7D92C
:101FD00083E7236823F480732360FFF76FF80746D5
:101FE00023685B057FF532AFFFF768F8C01B022856
:101FF000F6D972E76B699BB1D4F8943043F00103D2
:10200000C4F89430FFF75AF80746D4F894309A078A
:102010003FF520AFFFF752F8C01B0228F5D95CE767
:10202000D4F8943023F00103C4F89430FFF746F855
:102030000746D4F894309B077FF50CAFFFF73EF8C6
:10204000C01B0228F5D948E700100240BFA80008CD
:102050000C000020A36DD80029D4A36D43F0805359
:10206000A365A36D03F080530193019B4FF001081A
:102070005D4F3B68D9051DD5AB68012B2BD1D4F83A
:10208000903043F00103C4F89030FFF717F841F2A5
:1020900088390746D4F890309B0742D5B8F1000F35
:1020A0003FF4DCAEA36D23F08053A365D6E64FF07A
:1020B0000008DDE73B6843F480733B60FEF7FEFFFA
:1020C00081463B68DA05D7D4FEF7F8FFA0EB09009C
:1020D0000228F6D901E7052B06D1D4F8903043F059
:1020E0000403C4F89030CAE7D4F8902022F001022B
:1020F000C4F89020D4F8902022F00402C4F8902074
:10210000002BC2D1FEF7DAFF41F288390746D4F836
:1021100090309807C2D5FEF7D1FFC01B4845F6D9CD
:10212000DBE6FEF7CBFFC01B4845B3D9D5E60C2E46
:102130003FF43AAE022B236823F08073236037D13B
:10214000FEF7BCFF0646236899012BD46A6BEB6A45
:1021500043EA02232A6B013A43EA0213AA6B1209EB
:1021600043EA4243EA6B5208013A43EA42532A6C7B
:102170005208013A43EA4263E360236843F0807304
:102180002360E36843F08073E360FEF797FF054642
:1021900023689A013FF566AEFEF790FF401B0228C8
:1021A000F6D99AE6FEF78AFF801B0228CBD994E67F
:1021B000236813F0205F02BFE36823F00303E360AA
:1021C000E36823F0887323F48033E360FEF776FF3F
:1021D000054623689B017FF545AEFEF76FFF401B68
:1021E0000228F6D979E600BF007000402DE9F041E1
:1021F0000E46044610B90120BDE8F081404A13683C
:1022000003F007038B4229D32368D90731D421680F
:102210008A075BD43A4A136803F007039E425DD3F2
:1022200011F0040F374D64D10B0706D5AB68226956
:1022300023F4605343EAC203AB60FFF75DFDAB6874
:10224000314AC3F30313BDE8F041D35C03F01F032D
:10225000D8402E4B18600020FEF7FABE136823F01A
:1022600007030B431360136803F007039942C2D1BD
:10227000CAE76268234D032A2B681BD113F0007F45
:10228000B9D0AB6823F003031343AB60FEF716FF2E
:1022900041F288380746AB68626803F00C03B3EB81
:1022A000820FB4D0FEF70AFFC01B4045F3D90320CC
:1022B000BDE8F081022A02D113F4003FE0E712B931
:1022C00013F0020FDCE713F4806FD9E70D4AA06822
:1022D000936823F0F003034393609BE7136823F0B4
:1022E000070333431360136803F007039E4282D150
:1022F00096E7AB68E26823F4E0631343AB6093E7CF
:102300000020024000100240BFA800080C0000207E
:10231000014B1868704700BF0C000020054B064AAF
:102320009B68C3F30223D35C044A106803F01F03C5
:10233000D840704700100240CFA800080C000020D1
:10234000054B064A9B68C3F3C223D35C044A10685A
:1023500003F01F03D840704700100240CFA80008C8
:102360000C000020F8B5454BDA6812F0030F054663
:102370000E461C4600682AD0DA6802F00302824248
:102380003CD1002A3AD0DB686A68C3F302130133F8
:10239000934233D1236823F080632360FEF78EFEDF
:1023A000074623681A0132D4AF68002E36D0012EBA
:1023B00050D12269286922F4C002400822F4FE426A
:1023C000013842EA072242EA4052226132E0022802
:1023D00010D0032814D0012810D11B689F0738D5CE
:1023E000E3686A6823F07303013A184340EA021075
:1023F000E060CFE71B6813F4806FF1D10120F8BDD6
:102400001A689103ECD41B6813F4802FF5E7FEF7EC
:1024100055FEC01B0228C4D90320F8BD2169EB6812
:1024200021F41F3121F4407141EA07211B0941EADF
:1024300043412161236843F080632360FEF73EFE41
:10244000064623681B0113D52369AA691343236138
:102450000020F8BD2369686923F0C063400823F4B5
:10246000FE43013843EA072343EA40632361E1E77F
:10247000FEF724FE801B0228E3D9CDE700100240BE
:10248000F8B53D4BDA6812F0030F05460E461C46C0
:10249000006828D0DA6802F0030282423AD1002AAA
:1024A00038D0DB686A68C3F302130133934231D139
:1024B000236823F080532360FEF700FE074623685D
:1024C0009A0030D4A868002E34D06369296923F0BB
:1024D000C063490823F4FE43013943EA002343EA79
:1024E0004163636132E0022810D0032814D0012830
:1024F00010D11B689F0738D5E3686A6823F073031F
:10250000013A184340EA0210E060D1E71B6813F477
:10251000806FF1D10120F8BD1A689103ECD41B68DB
:1025200013F4802FF5E7FEF7C9FDC01B0228C6D9BA
:102530000320F8BD6269EB6822F41F3222F4407276
:1025400042EA00221B0942EA43426261236843F0E7
:1025500080532360FEF7B2FD064623689B0005D535
:1025600063696A69134363610020F8BDFEF7A6FD45
:10257000801B0228F1D9DBE7001002402DE9F34768
:10258000066816F40066044624D0416EB1F5800F4B
:102590002CD002D8C1B101261CE0B1F5000F0DD03E
:1025A000B1F5400FF7D14D4A616ED2F8883023F46F
:1025B00040030B43C2F8883000260BE0474AD3683B
:1025C00043F48033D360EEE70430FFF7CBFE0646DA
:1025D0000028E8D02368D80406D5A16EB1F1807F29
:1025E00074D008D8A9B10126354621E00021203059
:1025F000FFF746FFEBE7B1F1007F04D0B1F1407F78
:10260000F1D1354609E0354AD36843F48033D360CD
:10261000F7E7201DFFF7A6FE0546002D5CD12F4AE7
:10262000A16ED2F8883023F040730B43C2F8883093
:102630002368990340F14F81284FBB6DDA0040F1C8
:1026400076814FF00008DFF89890D9F8003043F415
:102650008073C9F80030FEF731FD8246D9F80030AA
:10266000DB053FD5002D44D1D7F8903013F44073EB
:1026700015D0D4F88420934211D0D7F89030D7F8F1
:10268000902042F48032C7F89020D7F8902023F4AD
:10269000407322F48032C7F89020C7F89030D807F2
:1026A00009D5FEF70BFD41F288390546D7F8903081
:1026B000990740F10981D7F89030D4F8842023F4A9
:1026C00040731343C7F89030354612E0002104F1FF
:1026D0002000FFF7D5FE9FE72E46A9E70010024035
:1026E00000700040FEF7EAFCA0EB0A000228B5D912
:1026F0000325B8F1000F03D0BB6D23F08053BB65F9
:102700002368DA0708D59049A06BD1F8882022F019
:1027100003020243C1F888209F0708D58A49E06B6D
:10272000D1F8882022F00C020243C1F888205E070D
:1027300008D58549206CD1F8882022F03002024368
:10274000C1F88820180708D57F49606CD1F8882027
:1027500022F0C0020243C1F88820D90608D57A4980
:10276000A06CD1F8882022F440720243C1F888207E
:102770009A0608D57449E06CD1F8882022F44062AA
:102780000243C1F888209F0508D56F49E06DD1F854
:10279000882022F440220243C1F888205E0508D533
:1027A0006949206ED1F8882022F440120243C1F812
:1027B0008820580608D56449206DD1F8882022F475
:1027C00040520243C1F88820190608D55E49606D61
:1027D000D1F8882022F440420243C1F88820DA056B
:1027E00008D55949A06DD1F8882022F4403202431F
:1027F000C1F888209B040FD5534AE16ED2F8883087
:1028000023F040630B43B1F1006FC2F8883064D10C
:10281000D36843F48013D36023681F030FD54A4A5B
:10282000216FD2F8883023F040630B43B1F1006F81
:10283000C2F888305CD1D36843F48013D360236836
:102840005E030FD5404A616FD2F8883023F04063B1
:102850000B43B1F1006FC2F8883054D1D36843F410
:102860008013D3602368580412D53749A26FD1F87A
:10287000883023F040531343B2F1805FC1F88830B1
:102880004CD10221201DFFF76DFD002818BF054621
:102890002268110408D52C49E06FD1F8883023F064
:1028A00080430343C1F88830D30309D5264AD4F8BE
:1028B0008010D2F8883023F000430B43C2F88830F0
:1028C000284602B0BDE8F087FEF7F8FB401B4845FC
:1028D0007FF6ECAE0CE7354612E7B1F1806F9BD185
:1028E0000121201DFFF73EFD002818BF054693E794
:1028F000B1F1806FA3D10121201DFFF733FD002826
:1029000018BF05469BE7B1F1806FABD10121201DB7
:10291000FFF728FD002818BF0546A3E7B2F1005FC6
:10292000B6D1022104F12000FFF7AAFDADE7BB6D8F
:1029300043F08053BB65BB6D03F080530193019B53
:102940004FF001087FE600BF00100240022310B5DF
:1029500080F83D300368094C99682140062908D069
:102960009A682240B2F5803F1EBF1A6842F0010209
:102970001A60012380F83D30002010BD07000100DF
:10298000304A0368904212D0B0F1804F0FD0A2F5C8
:10299000943290420BD002F58062904207D002F54B
:1029A0008062904203D002F59432904219D14A6875
:1029B00023F070031343234A90421DD0B0F1804F9F
:1029C0001AD0A2F59432904216D002F5806290425D
:1029D00012D002F5806290420ED002F594329042FD
:1029E0000AD0194A904207D002F58062904203D083
:1029F00002F58062904203D1CA6823F44073134306
:102A00004A6923F08003134303608B68C3620B6839
:102A100083620C4B98420FD003F5006398420BD0B1
:102A200003F54063984207D003F58063984203D0D2
:102A300003F58063984201D10B690363012343616D
:102A4000704700BF002C01400040014010B5044613
:102A5000A0B190F83D3003F0FF021BB980F83C2094
:102A600001F082FE022384F83D302068211DFFF72B
:102A700087FF012384F83D30002010BD012010BDE8
:102A800090F83C30012B30B54FF002031FD00268A4
:102A9000104D80F83D30AA425368946803D005F584
:102AA0000065AA4203D14D6823F470032B430D68DF
:102AB000896823F070032B4324F080045360214382
:102AC0000123916080F83D30002380F83C301846A7
:102AD00030BD00BF002C014003681A6822F49072D8
:102AE0001A609A6822F001029A60202380F87230FE
:102AF000002303667047000090F87230202B49D104
:102B0000002945D0002A43D090F87030012B41D0E5
:102B1000012380F870300023036683684165B3F5B4
:102B2000805FA0F85820A0F85A2021D10269EAB9A4
:102B300040F2FF12A0F85C2000224267222280F8B7
:102B4000722002689168B3F5805F41F001019160E5
:102B50001CD10369D3B9104B1168036641F490711D
:102B6000002380F87030116018467047FF22E1E7BB
:102B700023B90269002AF9D07F22DBE7B3F1805F35
:102B8000DAD10269002AF7D03F22D3E7034BE3E70B
:102B90000120704702207047AB2C0008552C00081C
:102BA00038B50446134694F87120202A2BD141B33E
:102BB0003BB394F87020012A25D0012284F87020BC
:102BC000A06EA4F8523000252122656784F8712098
:102BD0000E4AA4F85030E164C2620D4A02630D4A05
:102BE0004263226885632832FEF76EFE2368402226
:102BF0001A629A6884F8705042F080029A602846FF
:102C000038BD012038BD022038BD00BF1B2C000894
:102C10004B2C0008012D0008704708B50368826A34
:102C20001B6813F020030BD1A2F8523013689A6886
:102C300022F080029A601A6842F040021A6008BDD1
:102C40001046FFF7E9FF08BD704708B5806AFFF737
:102C5000FBFF08BD90F87220222A38B502681ED109
:102C6000928C446DB0F85C10651C0A40456522707A
:102C7000B0F85A20013A92B2A0F85A20A2B90168DD
:102C80000C6824F490740C608C6824F001048C604F
:102C9000202180F87210026601F082FC38BD138B8F
:102CA0009BB243F00803138338BD90F87220222AA8
:102CB00010B502681DD1948CB0F85C100C40416DC9
:102CC00021F8024B4165B0F85A10013989B2A0F8D9
:102CD0005A1099B9146824F490741460946824F01C
:102CE00001049460202280F87220016601F058FCF3
:102CF00010BD138B9BB243F00803138310BD7047C4
:102D0000816A08B591F87130212B0DD10B689A6852
:102D1000120609D50022A1F852201A6822F0C0023A
:102D20001A60202381F8713091F87230222B09D17A
:102D30000B689B685B0605D50023A1F85A3008464E
:102D4000FFF7CAFE4B6F43F010034B670846FFF7CF
:102D5000D6FF08BD0368DA69196870B5160704461E
:102D60009D680AD1960664D58E0662D5036E002B47
:102D700000F08380BDE87040184715F0010002D1D3
:102D800011F4907F55D0D50707D5CE0505D501257F
:102D90001D62656F45F001056567950706D528B189
:102DA00002251D62656F45F004056567560706D567
:102DB00028B104251D62656F45F00205656715079A
:102DC00007D58E0600D420B108201862636F034334
:102DD0006367636F002B50D0950605D5880603D531
:102DE000236E0BB120469847636F1907204604D421
:102DF00023689D6815F0400517D0FFF76DFE236826
:102E00009A6852060DD59A68E06E22F040029A60E8
:102E100038B11A4B8363FEF797FD70B3E06E836B96
:102E2000A8E72046FFF76BFF70BDFFF768FF6567F7
:102E300070BDD60209D5680207D54FF4801220462E
:102E40001A62BDE8704000F0FDBA160605D50D0601
:102E500003D5636E8BB120468CE750060DD54A062C
:102E60000BD51A6822F040021A60202384F87130D2
:102E7000002363662046FFF7CFFE70BD812E000859
:102E800008B5806A0023A0F85A30A0F85230FFF746
:102E900036FF08BD0268C169F8B504468368006959
:102EA0001568034360690343BA480B432840034352
:102EB00013605368E06823F4405303435360B64BF8
:102EC000A0699A421CBF236A1843936823F43063B5
:102ED00003439360B14B9A4219D103F55843B04A6A
:102EE000D3F8883003F00303B1F5004FD35C40F012
:102EF0003881082B00F28F80DFE813F01A01CA0036
:102F0000F9008D0014018D008D008D003600A54B59
:102F10009A4207D103F5E633A34AD3F8883003F089
:102F20000C03E1E7A14B9A4223D103F5E433D3F834
:102F3000883003F03003102B00F0F1800BD8002B09
:102F400000F0F380B1F5004F4FF001024FF00003A5
:102F500000F0F880A8E0202B00F0C680302BF1D1E3
:102F6000B1F5004F40F0B8806068430803F5803346
:102F7000C3E08F4B9A421ED103F5E233D3F8883079
:102F800003F0C003402B00F0BB800AD87BB9824B12
:102F90009A4240F0CA80FFF7C1F90023B0BB024655
:102FA0003AE0802B00F09D80C02B00F0B0807A4B7F
:102FB0009A42C7D12FE07F4B9A4211D103F5E033FB
:102FC000D3F8883003F44073B3F5807F00F0988025
:102FD000DCD9B3F5007F00F08480B3F5407FE4E7EF
:102FE0006D4B9A42AED103F5C833D3F8883003F461
:102FF0004063B3F5806F00F08380C7D9B3F5006FED
:103000006FD0B3F5406FD0E76B480223626802EBE4
:103010004201814205D901220023236663661046DE
:10302000F8BDB0EB023FF6D8082B2ED8DFE803F04E
:10303000052D1C2D242D2D2D2700FFF76FF962681B
:103040004FF4807156080027E1FB006700233046EB
:103050003946FDF775FE0022584BA0F540719942A4
:10306000D9D82368D860D7E75548550800230021F0
:10307000401941F10001ECE7FEF73EFEDFE75008A2
:103080000021002310F50000F3E701220020E3E710
:10309000FFF756F94EE0FFF741F9626800EB520383
:1030A000B3FBF2F39BB20022A3F110004FF6EF71D5
:1030B0008842B0D82168CB60AEE7FFF741F9ECE772
:1030C0006068430803F5740303F51053B3FBF0F392
:1030D000E8E7FEF711FEE0E76068430803F5004308
:1030E000F4E72D4B9A428FD0B1F5004FE8D16068DC
:1030F000430803F1F47303F59043B3FBF0F31FE0CF
:10310000254B9A420BD1FEF7F7FD042346E7224BED
:103110009A427FF425AF4FF40040082376E7B1F5DB
:10312000004FD6D1FEF7E8FD04E0B1F5004FB2D173
:10313000FFF7F4F861684A0802EB4003B3FBF1F3D0
:103140009BB20022A3F110004FF6EF7188423FF6C8
:1031500062AF23F00F012068C3F342030B43C36047
:103160005AE7082B3FF657AF01A252F823F000BFF1
:1031700097300008BB300008C13000081730000845
:10318000D330000817300008173000081730000847
:10319000D9300008F369FFEF00800040003801409B
:1031A00078A80008004400407CA8000800480040BF
:1031B000004C0040005000400024F400FFFC0F00D1
:1031C000000024F4436ADA0710B506D50168846A62
:1031D0004A6822F4003222434A609C0706D50168FF
:1031E000C46A4A6822F4803222434A60590706D5ED
:1031F0000168046B4A6822F4802222434A601A075D
:1032000006D50168446B4A6822F4004222434A60B2
:10321000DC0606D50168846B8A6822F4805222435A
:103220008A60990606D50168C46B8A6822F4005248
:1032300022438A605A060FD50168046C4A6822F45A
:1032400080122243B4F5801F4A6005D14A68446C5D
:1032500022F4C00222434A601B0606D50268816C34
:10326000536823F400230B43536010BD2DE9F04154
:10327000069D04460F46164698462168CA6937EAF5
:1032800002030CBF01220022B24202D00020BDE89E
:10329000F0816B1CF2D09DB923681A6822F4D072B9
:1032A0001A609A6822F001029A60202384F8713033
:1032B00084F87230002384F870300320BDE8F08178
:1032C000FDF7FCFEA0EB08008542D6D2E4E72DE92D
:1032D000F3411F4690F87130202B04460D4690466E
:1032E0004AD1002946D0002A44D090F87030012BF2
:1032F00042D0012380F8703000234367212380F8F7
:103300007130FDF7DBFEA4F850800646A4F8528029
:10331000B4F85220009792B2334652B94021204669
:10332000FFF7A4FF58B9202384F8713084F87000A7
:1033300006E0002280212046FFF798FF18B1032005
:1033400002B0BDE8F081A3682268B3F5805F0DD1BB
:1033500023695BB935F8023BC3F308031385B4F85E
:103360005230013B9BB2A4F85230D1E72B78138541
:103370000135F4E70120E3E70220E1E773B50446F5
:1033800000264667FDF79AFE23681B681A07054664
:1033900017D423681B685B070AD56FF07E43009340
:1033A00000222B464FF480012046FFF75FFFA0B9B3
:1033B0002023002084F8713084F8700084F8723083
:1033C0000CE06FF07E430093324603464FF4001149
:1033D0002046FFF74BFF0028DBD0032002B070BD72
:1033E00010B5044660B390F8713003F0FF021BB9CA
:1033F00080F8702001F0EEF92268242384F87130FF
:10340000136823F0010313602046FFF743FD0128F2
:1034100016D0636A13B12046FFF7D4FE23685A68BA
:1034200022F490425A609A6822F02A029A601A683E
:1034300042F0010220461A60BDE81040FFF79EBF2F
:10344000012010BD7047000010B51548154B0360F2
:103450008AB0FDF7C0FE18B14021134801F0C2F850
:103460000024042322460DEB03010D48019402932E
:10347000039404940594FDF773FF18B14C210A4896
:1034800001F0B0F8102201A905480494FDF768FF87
:1034900018B15421044801F0A5F80AB010BD00BFCE
:1034A000A03401200074004089A8000870B50268AB
:1034B0002B4B9A4286B0054650D103F5CE330026F9
:1034C0009A6D284C42F000529A659B6D039603F06A
:1034D00000530093009B302301934FF0904003234F
:1034E00001A90293FEF7A0FA1F4AE66006234FF0F7
:1034F000100C84E80C10802323614FF48073636107
:103500004FF48063A36120462023E3612662FEF727
:1035100079F918B17B21154801F064F8AC60A56217
:10352000134C144B802222614FF4807203264FF01B
:10353000100E62614FF4806284E84840A26100236B
:1035400020222046E360E2612362FEF75BF918B1B6
:103550008C21064801F046F8EC60A56206B070BD0B
:1035600000740040B43401203000024089A80008F3
:10357000FC340120580402401F48204A08B50023AB
:1035800080E80C004FF0C0420123C2618022037228
:10359000437202624362FEF755F818B1432118489E
:1035A00001F020F81748184B036020220123037113
:1035B000C260002304228360036143618361C361AD
:1035C000026243620A22C362062382620363FDF73A
:1035D000C5FF18B155210A4801F004F801220B4932
:1035E0000548FEF7A1F828B15A210548BDE8084072
:1035F00000F0F8BF08BD00BF443501200061014064
:1036000096A80008E0350120406001400400020057
:103610002DE9F0412D4C236886B00546002B2ED1B4
:103620002B4A13680133012B136009D1294B1A6E01
:1036300042F080721A661B6E03F080730093009B49
:103640002548042300260DEB03014FF0020806274E
:103650000193CDF80880039604960597FEF7E4F9E8
:103660004FF4804301A91D480193CDF808800396CB
:1036700004960597FEF7D8F92368013323602A687A
:10368000174B9A421ED1174C802203F51F4322612B
:103690004FF40072443362614FF400622360A26110
:1036A0000023202220466360A360E360E26123627E
:1036B000FEF7A8F818B198210B4800F093FFA56217
:1036C000EC62AC6206B0BDE8F08100BF24020020CD
:1036D00028020020001002400008004800040048B2
:1036E000006101409835012096A80008F0B5194CFA
:1036F000236887B0002B2BD1174A13680133012BA5
:10370000136009D1154B1A6E42F080721A661B6E57
:1037100003F080730093009B1148042300250DEBF8
:103720000301022706260193029703950495059647
:10373000FEF77AF94FF4804301A90A4801930297F2
:10374000039504950596FEF76FF92368013323600E
:1037500007B0F0BD24020020280200200010024023
:1037600000080048000400481B4B07B59A6C42F063
:1037700001029A649A6C02F001020092009A9A6C1B
:1037800042F002029A649B6C002203F0020311468D
:1037900001930D20019BFDF7B7FC0D20FDF7E8FC20
:1037A000002211460E20FDF7AFFC0E20FDF7E0FCD5
:1037B000002211461120FDF7A7FC1120FDF7D8FCCF
:1037C000002211463C20FDF79FFC3C20FDF7D0FC79
:1037D00003B05DF804FB00BF0010024070B54FF469
:1037E00000712DED028B05469FED120A1248124E14
:1037F00001F064F807EE905A9FED107AF8EEE77A40
:103800000024C7EE278AB6EE008AAC4202DBBDEC8C
:10381000028B70BD07EE904AB8EEE70A013420EE45
:10382000280A02F007FAF0EE487AE0EE487AE6EC71
:10383000017AEAE70000000070040120DB0FC940B4
:1038400007B5B0EEC00A01A803F032FBDFED117A34
:103850009FED117A60EE277A20EE077A67EE807A84
:1038600027EE007AE0EE077A9FED0C7AE0EE077A19
:103870009FED0B0A9DED017A77EEC07AB8EEC70A8C
:1038800077EE807A9FED070A27EE800A03B05DF895
:1038900004FB00BFF5CA83C0A8A19D3FFBB3C04095
:1038A000E09248409B209A3EDFED117A80EE270A95
:1038B00008B5F7EE007A70EE277A17EE900AFCF75B
:1038C000A3FE41EC100B05F0A7FB07A3D3E90023EF
:1038D00051EC100BFCF7ECFEFDF7E2F900EE100ADC
:1038E00008BD00BFAFF30080000000000046A44008
:1038F00000002F4400000000DFED117A80EE277AEF
:1039000008B517EE100AFCF77FFE9FED0B0B41EC9C
:10391000110B05F001FC002251EC100B094BFCF7D8
:1039200013FD0022084BFCF7C3FEFDF7B9F900EECA
:10393000100A08BDAFF30080000000000000244022
:10394000003022450000F03F00E08540064B00EECD
:10395000100AD3ED007AB6EE007A67EE877ABBEEF6
:10396000EB0A20EE270A70472C030120F0B5002354
:103970000B480C4D0C4E00241F4640F2011E05EB77
:10398000032100220132402A41F8044BFAD146F8C3
:1039900023700133734540F8044BF0D1F0BD00BFF4
:1039A000700C01202C020020741001202DE9F04F32
:1039B0002DED028B514DDFF858A1DFF850B1504F7B
:1039C00083B0FFF7D3FF95ED000AF6EE007A20EE04
:1039D000270AFFF769FFDFED4B7A80EE278A002484
:1039E000002607EE904AB8EEE70A20EE080AFFF735
:1039F00083FF10EE100AAAEC010AFCF705FE8046D0
:103A000028688946FCF700FE32463B46FCF750FE2C
:103A100002460B4640464946FCF774FF00224FF031
:103A20008143FCF745FE32463B46FCF741FEFDF77D
:103A300017F94BF8240001342A2CD2D1324F334DE0
:103A40000124B846F7EE004A6FF00309296855F8DB
:103A5000042F0846FFF77AFF10466E68B0EE405A12
:103A6000FFF774FF3046B0EE406AFFF76FFF731A3E
:103A700006EE903A4FEA042AF8EEE66AF0EE405A73
:103A800007EB0A038B46934515DBC4EEA67A531A5F
:103A900003EB841308EB830309FB01A1C3ED007A58
:103AA0000132964219DA0134292CCFD103B0BDEC92
:103AB000028BBDE8F08F58460193FFF747FF76EE83
:103AC000457A30EE450A019B80EE277A0BF1010B17
:103AD000C7EE267AE3EC017AD5E71046FFF736FF0A
:103AE00075EEC67A35EEC00A01EB820380EE277AC6
:103AF0004344C7EE267AC3ED007AD1E72C030120B8
:103B00000000E03F000024422C020020741001203D
:103B1000700C01202DE9F04F2DED028B83B0FFF7E3
:103B200025FF4A4B9FED4A7AD3ED007A494DDFF8E5
:103B300030B1B6EE008A27EE888A17EE900A28EE9A
:103B4000078AFCF761FD0022434BFCF7B1FD00241E
:103B50008046894600264FF0814740F2011A07EE61
:103B6000904AF8EEE77A67EE887AE5EC017A17EE8C
:103B7000900AFCF749FD42464B46FCF7C3FE32462D
:103B80003B46FCF795FD0022334BFCF791FDFDF71A
:103B900067F84BF8240001345445E0D12F4D304CE8
:103BA00001212E46B7EE005A6FF00308D4F800A0AA
:103BB00054F8042F5046FFF7C9FE1046F0EE405A65
:103BC0006768FFF7C3FE3846F0EE406AFFF7BEFEB7
:103BD0004FEA0129B0EE406A05EB0903D34693454D
:103BE00015DBA2EB0A0303EB811306EB830383EDE2
:103BF000005A08FB0A990132974218DA0131B1F5EF
:103C0000807FD3D103B0BDEC028BBDE8F08F584666
:103C10000193FFF79BFE30EE650A36EEE57A019BD5
:103C2000C0EE077A0BF1010BE3EC017AD7E71046FF
:103C3000FFF78CFE36EE400A36EE667A09EB820319
:103C4000C0EE077A3344C3ED007AD4E72C03012099
:103C50000000803B700C01200000E03F2C0200209F
:103C600074100120032801D1FFF7A0BE062801D15E
:103C7000FFF750BF704700002DE9F8430FF27009BD
:103C8000D9E900892DED028B174D184F002400262D
:103C900007EE904AF8EEE77A013417EE900AFCF747
:103CA000B3FC42464B46FCF703FD3B463246FCF76D
:103CB00029FEFCF7F5FF00EE100A08EE100A01F0ED
:103CC000B9FF05ED010AB0EE480A01F065FF2B4689
:103CD000282C05F1080583ED000AD9D1BDEC028B33
:103CE000BDE8F883AFF300803403012000005440A6
:103CF00000000060FB2109C000B52DED028B4FF4E0
:103D0000007083B0B0EE408AFFF768FD0E4B0F489D
:103D100083ED008A4FF4007100F052FE50210C48F0
:103D200000F04EFE40F2012300930A4A0A4B0B4872
:103D3000022101F033FBFFF739FE03B0BDEC028B2B
:103D40005DF804EBFFF798BF2C030120303601200B
:103D50001836012000000020781C01204836012080
:103D6000024601464FF40073014801F029BB00BF31
:103D70004836012013B54FF4007101AA044600F043
:103D8000EBFD9DED010A4FF400722146B1EE400AB1
:103D9000204601F0C5FF02B010BD00004FF40073D3
:103DA0000246014901F0F2BF7004012038B5084C09
:103DB0000546224601460023064800F083FE2946B8
:103DC00020464FF40072BDE8384000F095BD00BFBA
:103DD000781401203036012070B54FF4807204460B
:103DE0002DED028B0E490E4D01F0EEFD4FF4807269
:103DF00021469FED0C0A204601F05CFF04F5806629
:103E0000B3EE048AB5EC010AFFF71AFD20EE080AAA
:103E1000A4EC010AB442F5D1BDEC028B70BD00BF29
:103E2000781401200000003B2DE9F3479FED1C0AA8
:103E3000DFF87080DFF87090DFF870A00629064682
:103E400002AD4FF48071174825ED010A0CBFFF2722
:103E5000282700F033FD0124A30009EB03020433FB
:103E600052F8040C53F80920013404F1FF11121A1E
:103E700001F57F412B4601320AEB012106EB800060
:103E800001F0CAFF019B48F8043BA742E4DA3A4636
:103E90003146044800F030FD02B0BDE8F08700BFB5
:103EA0000000000078140120741001202C02002072
:103EB00030B5ADF5217D05464FF4A072002168466E
:103EC00050AC02F005FB4FF4A0720021204602F036
:103ED000FFFA28226946284600F00EFD28AA13465C
:103EE00052F8041D43F8041BA342F9D100232246D3
:103EF00069460E4800F0E6FD50222146B0EE000A69
:103F0000204601F0D7FE282322460949204601F029
:103F1000BBFC0023E2180833126845F8042BB3F504
:103F2000A07FF7D10DF5217D30BD00BF18360120EF
:103F300030030120194B1A48DA6C10B542F0040224
:103F4000DA64DA6C88B002F004020092009ADA6C4B
:103F500042F00102DA64DA6C02F001020192019A85
:103F6000DA6C42F00202DA64DB6C03F002030293C3
:103F7000029B4FF400530024039303A9094B0493BD
:103F80000594FDF751FD224621462820FDF7BCF897
:103F90002820FDF7EDF808B010BD00BF001002406A
:103FA00000080048000021102DE9F0474B4C236821
:103FB0001646002B3ED14A4A13604A4B062937D891
:103FC000DFE801F00428362B2B2F34004FF4007269
:103FD0001A6001232360DFF80CA1414DDFF80C814A
:103FE00007464FF00009DAF8003099454FDB2768A3
:103FF000013F27602C68002F5AD13B4908EB040091
:1040000002F0A4FFA21C2A603849394892B2FEF798
:10401000C7FD38E04FF48072DAE728221A60C8231F
:10402000D8E728221A606FF00043D3E7FF22F5E7B4
:1040300000221A600229CED12E4FDFF8CC90DFF893
:10404000CCA001244FF0000807EB0426002556F809
:10405000040BFCF7D9FA42464B46FCF729FBFCF768
:10406000FFFD01350146504602F0A6FE402DEED17F
:10407000282C02D0204802F013FF0134292CE3D170
:104080001E4802F00DFF00263046BDE8F087F7EC31
:10409000017A28681A49FDEEE77A404417EE902A23
:1040A00002F030FF2B681844286009F101099AE7F3
:1040B000144908EB04005EB102F048FFA21C2A601C
:1040C0000A490B4892B2FEF76BFD00232B60DBE739
:1040D000023402F03BFF01262C60D5E77C2401204E
:1040E0008424012088240120BCA8000890240120F9
:1040F000E03601202C020020B3A80008B5A8000873
:10410000B7A80008B0A8000800005940AEA80008F1
:104110002DE9F041254E377805460C4617B1FCF7DE
:10412000CDFF07462846FFF725FE062C28D8012399
:10413000A34013F05A0F23D01D4B1B7813B1284610
:10414000FFF70EFE2846FFF729FE2846FFF72EFE52
:104150002846FFF741FE042C1FD0062C01D0032C6B
:104160000ED1DFF8548098F80030A34204D02046E6
:10417000FFF778FD88F8004021462846FFF754FEF7
:10418000337843B1FCF79AFF39460246094802F0FA
:1041900013FE00233370BDE8F08128462146FFF767
:1041A00043FE2846FFF784FEEAE700BF8E24012085
:1041B00080240120A5A800080800002010B5B8B090
:1041C0004FF48072089210220992012211920A2261
:1041D0000223129205A8072205930F9310931392BE
:1041E00014931593FDF7DCFD00B1FEE70F220323C6
:1041F000029003900490042168468DE80C00FDF7BE
:10420000F5FF00B1FEE7114B2590369016A81693E6
:10421000FEF7B4F900B1FEE74FF40070FDF7F4FCCF
:10422000044600B1FEE7FEF773F84FF47A73B0FB73
:10423000F3F0FCF7A9FF0420FCF7BCFF224621465F
:104240004FF0FF30FCF760FF38B010BD02000100F6
:104250002DE9F04FADF5505D83B00DF510550835E3
:104260004FF48052002102AE284602F031F90DF6DB
:1042700008074FF400620021304602F029F94FF49C
:1042800000620021384602F023F90DF580504FF40A
:1042900000620021083002F01BF90DF5C05000212A
:1042A0004FF44062083002F013F9994CFCF7E8FE35
:1042B000FFF784FFFFF73EFEFFF756FA00F068FABB
:1042C000FFF75AF9FFF7C0F800F024FA914B924A31
:1042D0001B68D268B3FBF2F3226AB3FBF2F3626AA3
:1042E000B3FBF2F300EE103AB8EE400AFFF704FD1C
:1042F0008A48FEF72BFB4FF0000800218848FCF7A6
:104300007DFF4FF4806332464146CDF800808448FB
:10431000FCF79EFF10218248FCF770FF3A461021FF
:104320004FF48063CDF800807D48FCF791FF0120B9
:10433000FCF7CAFE4FF4806229462046FDF712FAC8
:1043400000B1FEE7012277497748DFF8E4A1774C16
:10435000FEF7D2FB9AF80030002B66D0002355F808
:104360002320521302F5006292B226F8132036F889
:10437000132092B227F813200133B3F5007FEED15A
:104380000DF5C0510DF500504FF480720831083022
:1043900000F0B2FA0DF5E05108310022884655F8D8
:1043A00022305B1207EE903A0132F8EEE77AB2F56E
:1043B000007FE1EC017AF2D10DF580510DF5C0508E
:1043C0000831083000F098FADFF8689121780DF58F
:1043D00080500830FFF79CFE99F8003043B10DF58E
:1043E0008050217800220830FFF7DEFD89F80000B8
:1043F0000DF580514FF400720831404600F07CFA10
:104400000DF5805021780830FFF782FE99F80030D2
:1044100043B10DF58050217801220830FFF7C4FD2B
:1044200089F80000424A00231370DFF80C9199F8D4
:104430000030002B8ED04FF4007355F82320521318
:1044400002F5006292B226F8132036F8132092B2D9
:1044500027F813200133B3F5806FEED10DF5C0516D
:104460000DF500504FF480720831083000F044FA26
:104470000DF5E051083100228B46AB180432D3F819
:1044800000385B1207EE903AF8EEE77AB2F5006F6B
:10449000E1EC017AF1D10DF580510DF5C0504FF4EA
:1044A00000720831083000F027FADFF888802178A0
:1044B0000DF580500830FFF72BFE98F8003043B11F
:1044C0000DF58050217800220830FFF76DFD88F847
:1044D00000000DF580514FF400720831584600F08D
:1044E0000BFA0DF5805021780830FFF711FE98F88F
:1044F000003043B10DF58050217801220830FFF7DC
:1045000053FD88F80000002389F8003022E700BF3F
:10451000443501200C000020E035012058360120F0
:10452000A034012054360120E0360120090000208B
:104530008C2401208F2401208D240120044B1A7823
:1045400022B9044A904204BF01221A70704700BF8A
:104550008C24012044350120044B1A7822B9044AE6
:10456000904204BF01221A70704700BF8D240120C1
:104570004435012010B54FF0FF331446024892B283
:10458000FEF7A5FE204610BDE0360120B0F5005F25
:1045900002BF024B01221A70704700BF8F24012016
:1045A0000B4B1B78502B08D0702B0ED0094A303B98
:1045B000DBB213700122084B01E00122074B1A7095
:1045C000034907480122FEF797BA0022F6E700BF29
:1045D00054360120090000208F240120802401206E
:1045E000E0360120FEE70000214B07B51A6E42F0CD
:1045F00001021A661A6E02F001020092009A9A6D88
:1046000042F080529A659B6D03F080530193032022
:10461000019BFCF767FD002211466FF00B00FCF7D1
:1046200073FD002211466FF00A00FCF76DFD0022B9
:1046300011466FF00900FCF767FD002211466FF08C
:104640000400FCF761FD002211466FF00300FCF747
:104650005BFD002211466FF00100FCF755FD0022C2
:1046600011464FF0FF30FCF74FFD03B05DF804FB3F
:10467000001002407047704708B5FCF717FDBDE811
:104680000840FCF7A4BD00000148FDF783B900BF56
:10469000B43401200148FDF77DB900BF98350120F1
:1046A0000148FDF777B900BF983601200148FEF7B1
:1046B00051BB00BFE03601204FF40050FDF790BA27
:1046C0000148FDF767B900BFFC3401200F49D1F85C
:1046D000883043F47003C1F888300D4B1A6800200D
:1046E00042F001021A6098601A6822F0A85222F47F
:1046F00010221A604FF48052DA601A6822F4802285
:104700001A6098614FF000638B60704700ED00E025
:10471000001002401FB51148114B03600023436095
:10472000836040F6FF73C36080238361FEF78EF9D8
:1047300018B13D210B48FFF755FF2023019301A934
:10474000002306480393FEF79BF918B1442105485E
:10475000FFF748FF05B05DF804FB00BF58360120A5
:104760000010004008A900080268084B9A4282B075
:104770000AD103F500339A6D42F010029A659B6DE1
:1047800003F010030193019B02B07047001000403A
:1047900008B50D480D4B4FF4612E80E808400C22FF
:1047A00000238360C360036142618361C36103626C
:1047B0004362FEF715FE28B146210548BDE80840D2
:1047C000FFF710BF08BD00BFE036012000440040E5
:1047D00015A90008F0B502681F4B9A4287B006463B
:1047E00038D103F5E63300259A6D1C4C42F40032B3
:1047F0009A659B6D039503F400330093009B0C2393
:1048000001930323022704934FF09040072301A94B
:1048100005930297FDF708F9114BE56084E88800DD
:104820001023A3602046802323616561A561E561B3
:104830002562FCF7E7FF18B16F210A48FFF7D2FEA7
:1048400000222620B4661146A662FCF75DFC2620F5
:10485000FCF78EFC07B0F0BD004400409836012004
:104860008000024015A90008DFF834D0002103E0E1
:104870000C4B5B58435004310B480C4B42189A4286
:10488000F6D30B4A02E0002342F8043B094B9A425C
:10489000F9D3FFF71BFF01F0F7FDFFF7D9FCFEE7A7
:1048A00000800120A0E8010800000020E4010020B1
:1048B000E40100205C370120FEE7000010B48C0802
:1048C00010D000F110032246013A03ED040A03ED73
:1048D000030A03ED020A03ED010A03F11003F3D109
:1048E00000EB041011F0030103D00139A0EC010A20
:1048F000FBD15DF8044B70472DE9F0415FEA920867
:104900001ED000F1100401F11003454654F810CCFC
:1049100054F80CEC54F8087C54F8046C43F8046C1C
:10492000013D43F810CC43F80CEC43F8087C04F14B
:10493000100403F11003E9D14FEA08184044414440
:1049400012F0030205D050F8043B41F8043B013A51
:10495000F9D1BDE8F08100BF30B48D08DFED177AE2
:1049600018D000F110032C4613ED047A53ED035ACE
:1049700013ED026A53ED016A37EE877A013C77EE58
:10498000257A03F1100377EE867A77EEA67AEBD1DB
:1049900000EB051011F0030305D0B0EC017A013BE8
:1049A00077EE877AF9D107EE101AB8EE477A30BC65
:1049B000C7EE876AC2ED006A704700BF00000000C2
:1049C0004B08802B10B40182038046D016D9B3F572
:1049D000007F3CD028D9B3F5806F1FD0B3F5006FAE
:1049E00012D12049204A214B4FF46E6484818160AA
:1049F000426043615DF8044B00207047202B1CD0BF
:104A0000402B06D0102B1DD04FF0FF305DF8044B2B
:104A1000704738241649174A174BE7E74FF4E1640B
:104A20001649174A174BE1E7B3F5807FECD14FF4F5
:104A3000DC741549154A164BD8E730241549164A37
:104A4000164BD3E714241649164A174BCEE74FF4FA
:104A5000E0741649164A174BC8E7D0241649174A7E
:104A6000174BC3E7309F010824A90008940A0108E6
:104A700024EA0008F0BC0108E0E101081474010810
:104A80001453010894EA000870DE0108944A0108F2
:104A9000F0BE0108CC8201081473010824E9000863
:104AA00024820108945201084C820108F0C60108D2
:104AB000308F010870CA0108E0E30108308B01085B
:104AC00070DA01082DE9F041068A76080746154696
:104AD00006800C46002B5CD11A46012300F0E4FB53
:104AE000D4ED007A94ED017A3E88786937EE077A42
:104AF00077EEA77AB6EE003A77EE876A77EEC77A56
:104B0000013E26EE837A67EE837A04EBC60385EDD9
:104B1000007AC5ED017A103005F11002083B04F16E
:104B2000100193ED027A51ED026A10ED026AD3EDA5
:104B3000033A11ED015A50ED015A77EE667A77EE9D
:104B4000264A33EE854A66EE276A25EEA77A35EEC9
:104B5000635A76EEA46A77EE057A26EE046A65EE6D
:104B6000845A77EEC67A36EEA57A67EE837A27EE18
:104B7000037A013E02ED027A42ED017AA3F10803C5
:104B800001F1080100F1080002F10802C9D1BDE8F5
:104B9000F081D1ED007AD1ED016A416937EEA67A54
:104BA00077EEE67AF6EE003A27EE237A67EEA37AFE
:104BB000013E82ED007AC2ED017AF000EEB30838D2
:104BC00001F1100E204404F1100102F1100C90EDDF
:104BD000027A51ED026A1EED026A90ED034A11ED70
:104BE000015A5EED015A76EEC77A74EE054A26EE5A
:104BF000273A77EE266A35EE445A25EEA77A76EE06
:104C0000C36A77EE057A26EE246A65EEA45A77EE3B
:104C1000C67A36EEE57A67EEA37A27EE237A013E6E
:104C20000CED027A4CED017AA0F1080001F10801C7
:104C30000EF1080E0CF1080CC9D11A462946384667
:104C40000123BDE8F04100F02FBB00BF2DE9F0418A
:104C50002DED088B07460846B7F800E07A684FEA62
:104C60005E0100EB8E085FEADE0E00F0B0808B0084
:104C70001033C6181032434400F1100508F1100437
:104C800054ED041A54ED036A13ED044A53ED033A4C
:104C900053ED025A13ED015A14ED020A54ED017A54
:104CA00016ED042A56ED032A15ED036A15ED017A77
:104CB00015ED043A56ED020A16ED011A55ED024AB9
:104CC00073EE21BA36EE26BA37EE27AA72EE049AB0
:104CD00032EEA39A31EE058A74EE80AA70EEA58AB0
:104CE00045ED04BA05ED03BA45ED02AA05ED01AAAA
:104CF00006ED018A46ED049A06ED039A46ED028A16
:104D000076EE666A73EEE23A12ED036A52ED042A19
:104D100033EE613A34EE424A26EE868A24EE062AC3
:104D200063EE221A24EE224A23EE063A66EEA26AC7
:104D300023EE866A63EEA23A36EE046A76EEC36A22
:104D400072EE633A71EE882A44ED036A44ED042A58
:104D500043ED043A03ED036A77EE677A75EEE06A95
:104D600012ED017A52ED025A35EE416A74EEC04AF4
:104D700067EE873A26EE875A24EEA54A67EEA57AB3
:104D800064EE874A66EEA56A26EE077A26EE256A65
:104D900077EEE47A74EE235A35EE466A37EE267AD9
:104DA000BEF1010E44ED025A05F1100544ED017A01
:104DB00006F1100603ED026A03ED017A02F110021A
:104DC00004F1100403F110037FF45AAF7A688CB237
:104DD0002146022301F066F8BDEC088B21467A6873
:104DE00040460223BDE8F04101F05CB82DE9F04FE8
:104DF0002DED0A8B028891ED006A8FB00F465208A4
:104E000041680C90930038461844064609901844AF
:104E1000D0ED006A96ED004AD6ED012AD0ED017A78
:104E20000A9076EE265A044625461C44D4ED004AE4
:104E300097ED017A94ED013A019435EE845A3046AB
:104E400035EE245A3E4615EE10EA76EE666A46F8CE
:104E500008EB37EE276A90ED015A059677EE677AF0
:104E6000019E079776EEA23A96ED012A36EE057A74
:104E700075EEC45A37EEC45A77EE847A33EEC34ADD
:104E80000446A34637EE027A35EE245A14EE108A11
:104E9000A44675EEE45A87ED017A4BF8088BACF125
:104EA00004078CED015A01F1080C2C46CDF810C016
:104EB00015EE90CA36EE626A44F808CB76EEE26AE6
:104EC00036EE436A069476EE836A01F110045208C6
:104ED000029485ED016A2C4601F118050B92B24649
:104EE000039577EEE47A023A16EE905AB6463046CB
:104EF00052084AF8085BA0F10406CEED017A089248
:104F000000F030819146079ADDF80880CDF834A092
:104F1000083B02F1100501F1200CA4F10C0201F193
:104F2000300E334410345046594655ED023A14EDD4
:104F3000025A91ED007AD0ED007A54ED015A15ED48
:104F4000014AD0ED016A91ED016A33EE858A34EEB3
:104F5000250A78EE074A74EE655A74EEA74A33EED6
:104F6000C55A45ED024AD1ED014A90ED014A70EE75
:104F7000244A75EE06AA74EE844A35EEC7AA45EDBA
:104F8000014AD6ED001AD7ED000A92ED024AD3EDA0
:104F9000023A93ED012A16ED011AD2ED012A57EDDE
:104FA000019A70EEA14A39EE813A74EE848A70EE6D
:104FB000E11A78EEA38A7AEEE6AA18EE90AA47F8EC
:104FC00008A9D2ED018A93ED019A73EE288A3AEE90
:104FD00027AA78EE898A74EE630AC7ED018A18ED74
:104FE00002BA58ED018A39EEC11A6AEE28BA2AEEE1
:104FF0008BCA71EEE29A31EE209A79EE829A3CEEFB
:105000002BCA6AEEA8AA69EEA8BA2AEE0BAA69EE24
:105010008B9A69EE288A29EE0BBA1CEE10AA78EE5C
:10502000A98A41F808AB3AEE6AAA3BEECBBA34EE55
:10503000C44A33EE623A01ED01AAC2ED018A82ED63
:1050400002BA5CED044A74EE633A38EE478A1CED0E
:10505000034A30EE460A33EE423A38EE678A30EEC3
:10506000660A23EEE49A63EE048A28EE24AA60EE30
:10507000049A28EE048A20EE240A63EE843A39EE7C
:10508000684A7AEE299A14EE10AA30EE480A63EEC6
:10509000244A44ED029A73EEE43A04ED010A46F81C
:1050A00008A935EE466A35EE877AC6ED013A76EE06
:1050B000266A77EE677A1EED056A1EED067A67EEC0
:1050C000865A26EE875A72EE622A30EEC11A72EEC6
:1050D000E12A75EE255A62EE860A66EE866A67EE6A
:1050E000877A21EE066A62EE872A21EE071A15EE0C
:1050F00090AA77EEE67A40F808AB30EEC11A76EE69
:10510000222AB9F1010940ED017A05F1080583ED84
:10511000021AC3ED012A08F10808A2F108020CF1F5
:10512000100C04F108040EF1180EA3F108037FF42B
:10513000FCAE08990298DDF834A0CB0001EB4102E7
:1051400000EB011102910599194405910499194444
:10515000049106999B4419449A44039B069103EBDE
:10516000C2030393059A069892ED004A90ED007AE7
:105170009BED003ADAED003AD2ED014AD0ED016A3A
:105180009AED012ADBED017ABDF82C400C9E34EE3D
:10519000076A74EEA65A36EE035A74EEE66A35EEE6
:1051A000235A34EE477A82ED005A9BED015ADAED2C
:1051B000014A35EE855A37EE274A35EE245A76EE07
:1051C000C34A82ED015A049A34EEA35AD2ED001A72
:1051D000D2ED012A029A34EE424A36EE436A64EE78
:1051E000214A24EE224A65EE222A25EE215A74EE47
:1051F000A22A35EE445A75EEE75ACBED002A8BED24
:10520000015A92ED014A92ED005A039A36EE636A12
:1052100075EEC25A66EE054A25EE855A26EE046AF8
:1052200065EE845A35EE466A74EEA55A76EE836AC8
:1052300037EE677A80ED016AC0ED005AD2ED015A6F
:10524000079877EE027A36EEE37AD2ED006A27EE1F
:10525000A66A67EE266A67EEA57A27EE257A76EECD
:10526000E77A36EE077ACAED017A8AED007A72683B
:105270002146042300F016FE099872682146042393
:1052800000F010FE0A9872682146042300F00AFE1E
:1052900072680198214604230FB0BDEC0A8BBDE86B
:1052A000F04F00F0FFBD00BF2DE9F041012A064696
:1052B00017460C469846058854D0B5F5807F4CD0EB
:1052C00016D9B5F5806F1AD05CD9B5F5006F44D00A
:1052D000B5F5805F05D1012372682946204600F0AC
:1052E000E1FDB8F1000F11D1012F16D0BDE8F0811A
:1052F000202D32D04AD9402DEDD0802DF1D121463C
:105300003046FFF7A3FCB8F1000FEDD0B268B189C9
:105310002046FAF75DFF012FE8D107EE905AF8EE2C
:10532000677AB7EE007AC7EE276A002DDED004F167
:105330000801002301339D4201F1080111ED047AB7
:1053400051ED037A27EE267A67EEE67A01ED047ACC
:1053500041ED037AEED1BDE8F08121463046FFF7FA
:1053600045FDBEE7ADB101F10C03002253ED027A19
:105370000132F1EE677A954243ED027A03F10803B8
:10538000F4D19AE7B5F5007FA5D0AAE7102DB6D0E5
:10539000A7E7B5F5807F94D8AAE700BF70B5049C55
:1053A000826004F18044013C05460C4401801E46A5
:1053B000A2001846002101F08BF86E6070BD00BF9E
:1053C0002DE9F04F2DED108B89B005460390008834
:1053D00004931E46D5F804C0019000F18043013BC0
:1053E0000CEB8304F308D5F808800094029300F0D6
:1053F000EF814FEAD0099E464FEA49131E1F25460A
:105400000596044608EB030004F0070A13460CF166
:105410002004CDF818C084464846DDF81490079162
:1054200005F1200701F1200602F1200552469A46B7
:1054300056F8203C47F8203C56F81C3C47F81C3CEA
:1054400056F8183C47F8183C56F8143C47F8143CFA
:1054500056F8103C47F8103C56F80C3C47F80C3C0A
:1054600056F8083C47F8083CDFEDF13A56F8043CA2
:1054700047F8043C14ED083A54ED072A14ED062AC7
:1054800054ED051A14ED041A54ED030A14ED020A42
:10549000211FF0EE638AF0EE639AF0EE63AAF0EE5D
:1054A00063BAB0EE63CAF0EE63CAB0EE63DA002806
:1054B00000F0E88108F1200104F11C03834611ED9E
:1054C000084A13ED088A51ED074A11ED065A51EDCD
:1054D000055A11ED046A51ED036A11ED027A51ED9E
:1054E000017A24EE03FA64EE22EA13ED073A24EE81
:1054F00002EA64EE21DA24EE01BA24EE20AA24EEB8
:10550000009A24EE084A3FEE0DDA74EE233A24EEB8
:10551000A2FA7EEEACCA53ED062A64EE82EA3EEEB3
:105520000CCA7DEEABBA24EEA1EA64EE81DA7BEE22
:105530002AAA7AEE299A24EEA0BA24EE80AA79EE5D
:10554000288A28EE249A64EE834A25EE024A74EEF5
:10555000A34A13ED052A7EEEACCA3EEE0CCA65EEF8
:1055600021EA25EE01EA7DEEABBA7BEE2AAA65EED2
:1055700020DA25EE00BA7AEE299A79EE288A28EE0A
:1055800005AA23EE059A3DEE0FDA25EE225A65EEC6
:10559000A13A35EE245A53ED041A7EEEACCA3EEE23
:1055A0000CCA65EE81EA25EEA0EA7DEEABBA7BEE91
:1055B0002AAA65EE80DA28EE25BA7AEE299A79EEE3
:1055C000288A23EE25AA22EEA59A3DEE04DA65EE9E
:1055D000825A66EE014A7AEE299A13ED031A75EEA5
:1055E000855A3DEE23DA22EE065A7EEEACCA3EEE36
:1055F0000CCA66EE20EA26EE00EA7DEEABBA7BEE40
:105600002AAA68EE06DA23EE06BA22EE86AA79EE18
:10561000288A26EE216A26EEA09A36EE256A53EDF8
:10562000020A61EEA65A3DEE24DA7EEEACCA3EEEE8
:105630000CCA66EE80EA28EE26EA7DEEABBA7BEE77
:105640002AAA63EE26DA22EEA6BA3AEE29AA75EE67
:10565000288A62EE269A66EE816A27EE005A7BEE71
:105660002AAA75EEA88A7EEEACCA3EEE0CCA68EE97
:1056700007EA23EE07EA7DEEABBA22EE07BA62EE46
:1056800087DA39EE8AAA76EE866A61EE879A67EE45
:10569000203A13ED010A3DEE09DA21EE076A3DEEEC
:1056A00005DA28EE278A63EE275A22EEA75A62EE21
:1056B000274A3BEE2ABA39EE8AAA61EEA7AA61EE22
:1056C000279A36EE287A7EEEACCA60EEA78A3EEEC6
:1056D0000CCA7DEEABBA73EEA63A67EE807ABBF1E8
:1056E000010B01F1200138EE0DDA75EEACCA35EE92
:1056F0000CCA74EEABBA7AEE8BAA79EE8A9A78EE7F
:10570000878A77EEA33A03F120037FF4D8AE09EB42
:105710000401E346A2B31346BBEC016AF1EC017A43
:1057200026EE033A26EE224A66EE024A26EE215A79
:1057300066EE015A66EE206A26EE007A26EE276AA9
:10574000013B3DEE03DA7CEE84CAB0EE623A3CEEF9
:1057500024CAF0EE422A7BEE85BAB0EE612A7AEED8
:10576000A5AAF0EE411A79EEA69AB0EE601A78EE8C
:10577000878AF0EE400A73EE863AB0EE670ACBD124
:10578000BEF1010E05ED08DA45ED07CA05ED06CAC2
:1057900045ED05BA45ED04AA45ED039A45ED028AAB
:1057A00045ED013A07F1200706F1200604F1200437
:1057B00005F120057FF43CAE029B0098DDF818C08F
:1057C00007995B0152461844009019449C441A44BE
:1057D000049B13F0070E1FD0009FDDF8049076465F
:1057E000654651F8043BDFED126A47F8043B444636
:1057F0004B462846B0EC017AF4EC017A67EE277A42
:10580000013B76EEA76AF5D1013EE2EC016A05F1B3
:105810000405E6D10CEB8E0C019B591E039B8E08F0
:105820005C6820D004F110020CF11003304601E056
:105830000000000053F8105C42F8105C53F80C5C58
:1058400042F80C5C53F8085C42F8085C53F8045CBE
:1058500042F8045C013803F1100302F11002E9D1AF
:1058600033011C449C4411F0030306D022465CF82B
:10587000041B42F8041B013BF9D109B0BDEC108BAD
:10588000BDE8F08FC34645E7F0B55FEA930E73D0ED
:1058900000F1200601F1200502F12004774616ED03
:1058A000087A15ED085A16ED072A55ED072A16ED68
:1058B000053A16ED066A55ED067A55ED055A56ED90
:1058C000046A55ED043A67EE054A22EE224A25EEB7
:1058D000025A27EE227A34EEC44A66EE274A26EEB2
:1058E000256A67EE837A65EE835A37EE057A04ED12
:1058F000084A74EEE55A77EE867A16ED035A04EDFF
:10590000077A15ED037A44ED065A44ED057A56ED13
:10591000027A15ED026A56ED015A15ED014A67EE5D
:10592000864A23EE853A26EE256A25EE075A65EE6D
:10593000845A26EE877A67EE847A66EEA36A37EE9B
:10594000037A76EEC56A74EEE55A77EE867A013F01
:1059500044ED046A04ED037A44ED025A44ED017A01
:1059600006F1200605F1200504F1200497D14FEA45
:105970004E1420442144224413F0030322D0083063
:105980000831083250ED027A11ED027A50ED016AC9
:1059900051ED015A27EE876A26EE877A67EEA57ADF
:1059A00066EEA56A77EE877A76EE666A013B42ED8F
:1059B000026A42ED017A00F1080001F1080102F1EA
:1059C0000802DFD1F0BD00BF2DE9F0415FEA920887
:1059D00084B07FD0002700F1200401F11005464675
:1059E0005AE0B1EEE70AB4EE400AF1EE10FA40F0E8
:1059F000A48005ED040A54ED067A14ED050A67EE5D
:105A0000A77A20EE000A77EE807AF5EEC07AF1EE02
:105A100010FAC0F28F80B1EEE70AB4EE400AF1EE60
:105A200010FA40F0AF8005ED030A54ED047A14ED4E
:105A3000030A67EEA77A20EE000A77EE807AF5EE89
:105A4000C07AF1EE10FA72DBB1EEE70AB4EE400A6A
:105A5000F1EE10FA40F08C8005ED020A54ED027A66
:105A600014ED010A67EEA77A20EE000A77EE807A3D
:105A7000F5EEC07AF1EE10FA20DBB1EEE70AB4EEF3
:105A8000400AF1EE10FA69D1013E05ED010A04F178
:105A9000200405F1100519D054ED087A14ED070A19
:105AA00067EEA77A20EE000A77EE807AF5EEC07AEC
:105AB000F1EE10FA95DA45F8107C9CE7013E45F8C6
:105AC000047C04F1200405F11005E5D100EB481039
:105AD00001EB081112F0030526D0002600F108049E
